{
  "contractName": "MedImpact",
  "abi": [
    {
      "inputs": [],
      "payable": false,
      "stateMutability": "nonpayable",
      "type": "constructor"
    },
    {
      "constant": true,
      "inputs": [
        {
          "internalType": "address",
          "name": "",
          "type": "address"
        },
        {
          "internalType": "uint256",
          "name": "",
          "type": "uint256"
        }
      ],
      "name": "batchIdOfMedicine",
      "outputs": [
        {
          "internalType": "string",
          "name": "",
          "type": "string"
        }
      ],
      "payable": false,
      "stateMutability": "view",
      "type": "function"
    },
    {
      "constant": true,
      "inputs": [
        {
          "internalType": "address",
          "name": "",
          "type": "address"
        }
      ],
      "name": "medicalStores",
      "outputs": [
        {
          "internalType": "address",
          "name": "owner",
          "type": "address"
        },
        {
          "internalType": "string",
          "name": "ownerName",
          "type": "string"
        },
        {
          "internalType": "string",
          "name": "storeName",
          "type": "string"
        },
        {
          "internalType": "string",
          "name": "phoneno",
          "type": "string"
        },
        {
          "internalType": "string",
          "name": "ownerAddress",
          "type": "string"
        },
        {
          "internalType": "uint256",
          "name": "invoices",
          "type": "uint256"
        },
        {
          "internalType": "uint256",
          "name": "purchases",
          "type": "uint256"
        },
        {
          "internalType": "bool",
          "name": "exists",
          "type": "bool"
        }
      ],
      "payable": false,
      "stateMutability": "view",
      "type": "function"
    },
    {
      "constant": true,
      "inputs": [],
      "name": "medicalStoresCount",
      "outputs": [
        {
          "internalType": "uint256",
          "name": "",
          "type": "uint256"
        }
      ],
      "payable": false,
      "stateMutability": "view",
      "type": "function"
    },
    {
      "constant": true,
      "inputs": [
        {
          "internalType": "address",
          "name": "",
          "type": "address"
        }
      ],
      "name": "medicineCountInMedicalStore",
      "outputs": [
        {
          "internalType": "uint256",
          "name": "",
          "type": "uint256"
        }
      ],
      "payable": false,
      "stateMutability": "view",
      "type": "function"
    },
    {
      "constant": true,
      "inputs": [
        {
          "internalType": "address",
          "name": "",
          "type": "address"
        },
        {
          "internalType": "string",
          "name": "",
          "type": "string"
        }
      ],
      "name": "medicines",
      "outputs": [
        {
          "internalType": "string",
          "name": "name",
          "type": "string"
        },
        {
          "internalType": "uint256",
          "name": "rate",
          "type": "uint256"
        },
        {
          "internalType": "uint256",
          "name": "price",
          "type": "uint256"
        },
        {
          "internalType": "uint256",
          "name": "quantity",
          "type": "uint256"
        },
        {
          "internalType": "string",
          "name": "batchNo",
          "type": "string"
        },
        {
          "internalType": "string",
          "name": "manufactDate",
          "type": "string"
        },
        {
          "internalType": "string",
          "name": "expiryDate",
          "type": "string"
        },
        {
          "internalType": "bool",
          "name": "exists",
          "type": "bool"
        }
      ],
      "payable": false,
      "stateMutability": "view",
      "type": "function"
    },
    {
      "constant": true,
      "inputs": [
        {
          "internalType": "address",
          "name": "",
          "type": "address"
        },
        {
          "internalType": "uint256",
          "name": "",
          "type": "uint256"
        }
      ],
      "name": "myBills",
      "outputs": [
        {
          "internalType": "string",
          "name": "",
          "type": "string"
        }
      ],
      "payable": false,
      "stateMutability": "view",
      "type": "function"
    },
    {
      "constant": true,
      "inputs": [
        {
          "internalType": "address",
          "name": "",
          "type": "address"
        }
      ],
      "name": "myBillsCount",
      "outputs": [
        {
          "internalType": "uint256",
          "name": "",
          "type": "uint256"
        }
      ],
      "payable": false,
      "stateMutability": "view",
      "type": "function"
    },
    {
      "constant": true,
      "inputs": [
        {
          "internalType": "address",
          "name": "",
          "type": "address"
        }
      ],
      "name": "myMedicalStores",
      "outputs": [
        {
          "internalType": "address",
          "name": "owner",
          "type": "address"
        },
        {
          "internalType": "string",
          "name": "ownerName",
          "type": "string"
        },
        {
          "internalType": "string",
          "name": "storeName",
          "type": "string"
        },
        {
          "internalType": "string",
          "name": "phoneno",
          "type": "string"
        },
        {
          "internalType": "string",
          "name": "ownerAddress",
          "type": "string"
        },
        {
          "internalType": "uint256",
          "name": "invoices",
          "type": "uint256"
        },
        {
          "internalType": "uint256",
          "name": "purchases",
          "type": "uint256"
        },
        {
          "internalType": "bool",
          "name": "exists",
          "type": "bool"
        }
      ],
      "payable": false,
      "stateMutability": "view",
      "type": "function"
    },
    {
      "constant": false,
      "inputs": [
        {
          "internalType": "string",
          "name": "_ownerName",
          "type": "string"
        },
        {
          "internalType": "string",
          "name": "_medicalStoreName",
          "type": "string"
        },
        {
          "internalType": "string",
          "name": "_phoneno",
          "type": "string"
        },
        {
          "internalType": "string",
          "name": "_ownerAddress",
          "type": "string"
        }
      ],
      "name": "addMedicalStore",
      "outputs": [],
      "payable": false,
      "stateMutability": "nonpayable",
      "type": "function"
    },
    {
      "constant": false,
      "inputs": [
        {
          "internalType": "string",
          "name": "_medicineName",
          "type": "string"
        },
        {
          "internalType": "uint256",
          "name": "_rate",
          "type": "uint256"
        },
        {
          "internalType": "uint256",
          "name": "_price",
          "type": "uint256"
        },
        {
          "internalType": "uint256",
          "name": "_quantity",
          "type": "uint256"
        },
        {
          "internalType": "string",
          "name": "_batchNo",
          "type": "string"
        },
        {
          "internalType": "string",
          "name": "_manufactDate",
          "type": "string"
        },
        {
          "internalType": "string",
          "name": "_expiryDate",
          "type": "string"
        }
      ],
      "name": "addMedicine",
      "outputs": [],
      "payable": false,
      "stateMutability": "nonpayable",
      "type": "function"
    },
    {
      "constant": false,
      "inputs": [
        {
          "internalType": "uint256",
          "name": "_quantity",
          "type": "uint256"
        },
        {
          "internalType": "string",
          "name": "_batchNo",
          "type": "string"
        }
      ],
      "name": "purchaseMedicine",
      "outputs": [],
      "payable": false,
      "stateMutability": "nonpayable",
      "type": "function"
    },
    {
      "constant": false,
      "inputs": [
        {
          "internalType": "string",
          "name": "_billHash",
          "type": "string"
        }
      ],
      "name": "addBills",
      "outputs": [],
      "payable": false,
      "stateMutability": "nonpayable",
      "type": "function"
    },
    {
      "constant": true,
      "inputs": [],
      "name": "medicineCount",
      "outputs": [
        {
          "internalType": "uint256",
          "name": "",
          "type": "uint256"
        }
      ],
      "payable": false,
      "stateMutability": "view",
      "type": "function"
    },
    {
      "constant": true,
      "inputs": [],
      "name": "invoicesCount",
      "outputs": [
        {
          "internalType": "uint256",
          "name": "",
          "type": "uint256"
        }
      ],
      "payable": false,
      "stateMutability": "view",
      "type": "function"
    },
    {
      "constant": true,
      "inputs": [],
      "name": "purchasesCount",
      "outputs": [
        {
          "internalType": "uint256",
          "name": "",
          "type": "uint256"
        }
      ],
      "payable": false,
      "stateMutability": "view",
      "type": "function"
    }
  ],
  "bytecode": "0x608060405234801561001057600080fd5b50612971806100206000396000f3fe608060405234801561001057600080fd5b50600436106100f45760003560e01c806350904081116100975780639258b187116100665780639258b18714610e21578063c3dbfbfc14610e79578063d352cb9914610e97578063d639731114610f52576100f4565b80635090408114610cc8578063625a8e9114610ce65780636c2cd06314610d045780638e5729d914610dc9576100f4565b80633fcec935116100d35780633fcec9351461068d578063462e1764146109455780634dafd49014610a0c5780634e2d41db14610a2a576100f4565b80626e9e68146100f95780630b6594601461037957806328adb13a146105c6575b600080fd5b6103776004803603608081101561010f57600080fd5b810190808035906020019064010000000081111561012c57600080fd5b82018360208201111561013e57600080fd5b8035906020019184600183028401116401000000008311171561016057600080fd5b91908080601f016020809104026020016040519081016040528093929190818152602001838380828437600081840152601f19601f820116905080830192505050505050509192919290803590602001906401000000008111156101c357600080fd5b8201836020820111156101d557600080fd5b803590602001918460018302840111640100000000831117156101f757600080fd5b91908080601f016020809104026020016040519081016040528093929190818152602001838380828437600081840152601f19601f8201169050808301925050505050505091929192908035906020019064010000000081111561025a57600080fd5b82018360208201111561026c57600080fd5b8035906020019184600183028401116401000000008311171561028e57600080fd5b91908080601f016020809104026020016040519081016040528093929190818152602001838380828437600081840152601f19601f820116905080830192505050505050509192919290803590602001906401000000008111156102f157600080fd5b82018360208201111561030357600080fd5b8035906020019184600183028401116401000000008311171561032557600080fd5b91908080601f016020809104026020016040519081016040528093929190818152602001838380828437600081840152601f19601f82011690508083019250505050505050919291929050505061119f565b005b6103bb6004803603602081101561038f57600080fd5b81019080803573ffffffffffffffffffffffffffffffffffffffff16906020019092919050505061156f565b604051808973ffffffffffffffffffffffffffffffffffffffff1673ffffffffffffffffffffffffffffffffffffffff168152602001806020018060200180602001806020018881526020018781526020018615151515815260200185810385528c818151815260200191508051906020019080838360005b8381101561044f578082015181840152602081019050610434565b50505050905090810190601f16801561047c5780820380516001836020036101000a031916815260200191505b5085810384528b818151815260200191508051906020019080838360005b838110156104b557808201518184015260208101905061049a565b50505050905090810190601f1680156104e25780820380516001836020036101000a031916815260200191505b5085810383528a818151815260200191508051906020019080838360005b8381101561051b578082015181840152602081019050610500565b50505050905090810190601f1680156105485780820380516001836020036101000a031916815260200191505b50858103825289818151815260200191508051906020019080838360005b83811015610581578082015181840152602081019050610566565b50505050905090810190601f1680156105ae5780820380516001836020036101000a031916815260200191505b509c5050505050505050505050505060405180910390f35b610612600480360360408110156105dc57600080fd5b81019080803573ffffffffffffffffffffffffffffffffffffffff16906020019092919080359060200190929190505050611844565b6040518080602001828103825283818151815260200191508051906020019080838360005b83811015610652578082015181840152602081019050610637565b50505050905090810190601f16801561067f5780820380516001836020036101000a031916815260200191505b509250505060405180910390f35b610766600480360360408110156106a357600080fd5b81019080803573ffffffffffffffffffffffffffffffffffffffff169060200190929190803590602001906401000000008111156106e057600080fd5b8201836020820111156106f257600080fd5b8035906020019184600183028401116401000000008311171561071457600080fd5b91908080601f016020809104026020016040519081016040528093929190818152602001838380828437600081840152601f19601f820116905080830192505050505050509192919290505050611901565b60405180806020018981526020018881526020018781526020018060200180602001806020018615151515815260200185810385528d818151815260200191508051906020019080838360005b838110156107ce5780820151818401526020810190506107b3565b50505050905090810190601f1680156107fb5780820380516001836020036101000a031916815260200191505b50858103845289818151815260200191508051906020019080838360005b83811015610834578082015181840152602081019050610819565b50505050905090810190601f1680156108615780820380516001836020036101000a031916815260200191505b50858103835288818151815260200191508051906020019080838360005b8381101561089a57808201518184015260208101905061087f565b50505050905090810190601f1680156108c75780820380516001836020036101000a031916815260200191505b50858103825287818151815260200191508051906020019080838360005b838110156109005780820151818401526020810190506108e5565b50505050905090810190601f16801561092d5780820380516001836020036101000a031916815260200191505b509c5050505050505050505050505060405180910390f35b6109916004803603604081101561095b57600080fd5b81019080803573ffffffffffffffffffffffffffffffffffffffff16906020019092919080359060200190929190505050611bd9565b6040518080602001828103825283818151815260200191508051906020019080838360005b838110156109d15780820151818401526020810190506109b6565b50505050905090810190601f1680156109fe5780820380516001836020036101000a031916815260200191505b509250505060405180910390f35b610a14611c96565b6040518082815260200191505060405180910390f35b610cc6600480360360e0811015610a4057600080fd5b8101908080359060200190640100000000811115610a5d57600080fd5b820183602082011115610a6f57600080fd5b80359060200191846001830284011164010000000083111715610a9157600080fd5b91908080601f016020809104026020016040519081016040528093929190818152602001838380828437600081840152601f19601f82011690508083019250505050505050919291929080359060200190929190803590602001909291908035906020019092919080359060200190640100000000811115610b1257600080fd5b820183602082011115610b2457600080fd5b80359060200191846001830284011164010000000083111715610b4657600080fd5b91908080601f016020809104026020016040519081016040528093929190818152602001838380828437600081840152601f19601f82011690508083019250505050505050919291929080359060200190640100000000811115610ba957600080fd5b820183602082011115610bbb57600080fd5b80359060200191846001830284011164010000000083111715610bdd57600080fd5b91908080601f016020809104026020016040519081016040528093929190818152602001838380828437600081840152601f19601f82011690508083019250505050505050919291929080359060200190640100000000811115610c4057600080fd5b820183602082011115610c5257600080fd5b80359060200191846001830284011164010000000083111715610c7457600080fd5b91908080601f016020809104026020016040519081016040528093929190818152602001838380828437600081840152601f19601f820116905080830192505050505050509192919290505050611cdb565b005b610cd061206b565b6040518082815260200191505060405180910390f35b610cee6120b5565b6040518082815260200191505060405180910390f35b610dc760048036036040811015610d1a57600080fd5b810190808035906020019092919080359060200190640100000000811115610d4157600080fd5b820183602082011115610d5357600080fd5b80359060200191846001830284011164010000000083111715610d7557600080fd5b91908080601f016020809104026020016040519081016040528093929190818152602001838380828437600081840152601f19601f8201169050808301925050505050505091929192905050506120bb565b005b610e0b60048036036020811015610ddf57600080fd5b81019080803573ffffffffffffffffffffffffffffffffffffffff169060200190929190505050612390565b6040518082815260200191505060405180910390f35b610e6360048036036020811015610e3757600080fd5b81019080803573ffffffffffffffffffffffffffffffffffffffff1690602001909291905050506123a8565b6040518082815260200191505060405180910390f35b610e816123c0565b6040518082815260200191505060405180910390f35b610f5060048036036020811015610ead57600080fd5b8101908080359060200190640100000000811115610eca57600080fd5b820183602082011115610edc57600080fd5b80359060200191846001830284011164010000000083111715610efe57600080fd5b91908080601f016020809104026020016040519081016040528093929190818152602001838380828437600081840152601f19601f82011690508083019250505050505050919291929050505061240a565b005b610f9460048036036020811015610f6857600080fd5b81019080803573ffffffffffffffffffffffffffffffffffffffff169060200190929190505050612500565b604051808973ffffffffffffffffffffffffffffffffffffffff1673ffffffffffffffffffffffffffffffffffffffff168152602001806020018060200180602001806020018881526020018781526020018615151515815260200185810385528c818151815260200191508051906020019080838360005b8381101561102857808201518184015260208101905061100d565b50505050905090810190601f1680156110555780820380516001836020036101000a031916815260200191505b5085810384528b818151815260200191508051906020019080838360005b8381101561108e578082015181840152602081019050611073565b50505050905090810190601f1680156110bb5780820380516001836020036101000a031916815260200191505b5085810383528a818151815260200191508051906020019080838360005b838110156110f45780820151818401526020810190506110d9565b50505050905090810190601f1680156111215780820380516001836020036101000a031916815260200191505b50858103825289818151815260200191508051906020019080838360005b8381101561115a57808201518184015260208101905061113f565b50505050905090810190601f1680156111875780820380516001836020036101000a031916815260200191505b509c5050505050505050505050505060405180910390f35b60001515600360003373ffffffffffffffffffffffffffffffffffffffff1673ffffffffffffffffffffffffffffffffffffffff16815260200190815260200160002060070160009054906101000a900460ff1615151461124b576040517f08c379a00000000000000000000000000000000000000000000000000000000081526004018080602001828103825260218152602001806128fb6021913960400191505060405180910390fd5b6007600081548092919060010191905055506040518061010001604052803373ffffffffffffffffffffffffffffffffffffffff168152602001858152602001848152602001838152602001828152602001600081526020016000815260200160011515815250600360003373ffffffffffffffffffffffffffffffffffffffff1673ffffffffffffffffffffffffffffffffffffffff16815260200190815260200160002060008201518160000160006101000a81548173ffffffffffffffffffffffffffffffffffffffff021916908373ffffffffffffffffffffffffffffffffffffffff16021790555060208201518160010190805190602001906113549291906127d5565b5060408201518160020190805190602001906113719291906127d5565b50606082015181600301908051906020019061138e9291906127d5565b5060808201518160040190805190602001906113ab9291906127d5565b5060a0820151816005015560c0820151816006015560e08201518160070160006101000a81548160ff0219169083151502179055509050506040518061010001604052803373ffffffffffffffffffffffffffffffffffffffff168152602001858152602001848152602001838152602001828152602001600081526020016000815260200160011515815250600460003373ffffffffffffffffffffffffffffffffffffffff1673ffffffffffffffffffffffffffffffffffffffff16815260200190815260200160002060008201518160000160006101000a81548173ffffffffffffffffffffffffffffffffffffffff021916908373ffffffffffffffffffffffffffffffffffffffff16021790555060208201518160010190805190602001906114da9291906127d5565b5060408201518160020190805190602001906114f79291906127d5565b5060608201518160030190805190602001906115149291906127d5565b5060808201518160040190805190602001906115319291906127d5565b5060a0820151816005015560c0820151816006015560e08201518160070160006101000a81548160ff02191690831515021790555090505050505050565b60046020528060005260406000206000915090508060000160009054906101000a900473ffffffffffffffffffffffffffffffffffffffff1690806001018054600181600116156101000203166002900480601f0160208091040260200160405190810160405280929190818152602001828054600181600116156101000203166002900480156116415780601f1061161657610100808354040283529160200191611641565b820191906000526020600020905b81548152906001019060200180831161162457829003601f168201915b505050505090806002018054600181600116156101000203166002900480601f0160208091040260200160405190810160405280929190818152602001828054600181600116156101000203166002900480156116df5780601f106116b4576101008083540402835291602001916116df565b820191906000526020600020905b8154815290600101906020018083116116c257829003601f168201915b505050505090806003018054600181600116156101000203166002900480601f01602080910402602001604051908101604052809291908181526020018280546001816001161561010002031660029004801561177d5780601f106117525761010080835404028352916020019161177d565b820191906000526020600020905b81548152906001019060200180831161176057829003601f168201915b505050505090806004018054600181600116156101000203166002900480601f01602080910402602001604051908101604052809291908181526020018280546001816001161561010002031660029004801561181b5780601f106117f05761010080835404028352916020019161181b565b820191906000526020600020905b8154815290600101906020018083116117fe57829003601f168201915b5050505050908060050154908060060154908060070160009054906101000a900460ff16905088565b6001602052816000526040600020602052806000526040600020600091509150508054600181600116156101000203166002900480601f0160208091040260200160405190810160405280929190818152602001828054600181600116156101000203166002900480156118f95780601f106118ce576101008083540402835291602001916118f9565b820191906000526020600020905b8154815290600101906020018083116118dc57829003601f168201915b505050505081565b60006020528160005260406000208180516020810182018051848252602083016020850120818352809550505050505060009150915050806000018054600181600116156101000203166002900480601f0160208091040260200160405190810160405280929190818152602001828054600181600116156101000203166002900480156119d05780601f106119a5576101008083540402835291602001916119d0565b820191906000526020600020905b8154815290600101906020018083116119b357829003601f168201915b505050505090806001015490806002015490806003015490806004018054600181600116156101000203166002900480601f016020809104026020016040519081016040528092919081815260200182805460018160011615610100020316600290048015611a805780601f10611a5557610100808354040283529160200191611a80565b820191906000526020600020905b815481529060010190602001808311611a6357829003601f168201915b505050505090806005018054600181600116156101000203166002900480601f016020809104026020016040519081016040528092919081815260200182805460018160011615610100020316600290048015611b1e5780601f10611af357610100808354040283529160200191611b1e565b820191906000526020600020905b815481529060010190602001808311611b0157829003601f168201915b505050505090806006018054600181600116156101000203166002900480601f016020809104026020016040519081016040528092919081815260200182805460018160011615610100020316600290048015611bbc5780601f10611b9157610100808354040283529160200191611bbc565b820191906000526020600020905b815481529060010190602001808311611b9f57829003601f168201915b5050505050908060070160009054906101000a900460ff16905088565b6005602052816000526040600020602052806000526040600020600091509150508054600181600116156101000203166002900480601f016020809104026020016040519081016040528092919081815260200182805460018160011615610100020316600290048015611c8e5780601f10611c6357610100808354040283529160200191611c8e565b820191906000526020600020905b815481529060010190602001808311611c7157829003601f168201915b505050505081565b6000600260003373ffffffffffffffffffffffffffffffffffffffff1673ffffffffffffffffffffffffffffffffffffffff1681526020019081526020016000205090565b60008411611d34576040517f08c379a000000000000000000000000000000000000000000000000000000000815260040180806020018281038252602181526020018061291c6021913960400191505060405180910390fd5b600260003373ffffffffffffffffffffffffffffffffffffffff1673ffffffffffffffffffffffffffffffffffffffff1681526020019081526020016000206000815480929190600101919050555082600160003373ffffffffffffffffffffffffffffffffffffffff1673ffffffffffffffffffffffffffffffffffffffff1681526020019081526020016000206000600260003373ffffffffffffffffffffffffffffffffffffffff1673ffffffffffffffffffffffffffffffffffffffff1681526020019081526020016000205481526020019081526020016000209080519060200190611e26929190612855565b50604051806101000160405280888152602001878152602001868152602001858152602001848152602001838152602001828152602001600115158152506000803373ffffffffffffffffffffffffffffffffffffffff1673ffffffffffffffffffffffffffffffffffffffff168152602001908152602001600020846040518082805190602001908083835b60208310611ed65780518252602082019150602081019050602083039250611eb3565b6001836020036101000a03801982511681845116808217855250505050505090500191505090815260200160405180910390206000820151816000019080519060200190611f259291906127d5565b506020820151816001015560408201518160020155606082015181600301556080820151816004019080519060200190611f609291906127d5565b5060a0820151816005019080519060200190611f7d9291906127d5565b5060c0820151816006019080519060200190611f9a9291906127d5565b5060e08201518160070160006101000a81548160ff021916908315150217905550905050600360003373ffffffffffffffffffffffffffffffffffffffff1673ffffffffffffffffffffffffffffffffffffffff16815260200190815260200160002060050160008154809291906001019190505550600460003373ffffffffffffffffffffffffffffffffffffffff1673ffffffffffffffffffffffffffffffffffffffff1681526020019081526020016000206005016000815480929190600101919050555050505050505050565b6000600460003373ffffffffffffffffffffffffffffffffffffffff1673ffffffffffffffffffffffffffffffffffffffff16815260200190815260200160002060060154905090565b60075481565b60008060003373ffffffffffffffffffffffffffffffffffffffff1673ffffffffffffffffffffffffffffffffffffffff168152602001908152602001600020826040518082805190602001908083835b6020831061212f578051825260208201915060208101905060208303925061210c565b6001836020036101000a038019825116818451168082178552505050505050905001915050908152602001604051809103902060030154116121d9576040517f08c379a00000000000000000000000000000000000000000000000000000000081526004018080602001828103825260118152602001807f496e756666696369656e742073746f636b00000000000000000000000000000081525060200191505060405180910390fd5b60008211612232576040517f08c379a000000000000000000000000000000000000000000000000000000000815260040180806020018281038252602181526020018061291c6021913960400191505060405180910390fd5b816000803373ffffffffffffffffffffffffffffffffffffffff1673ffffffffffffffffffffffffffffffffffffffff168152602001908152602001600020826040518082805190602001908083835b602083106122a55780518252602082019150602081019050602083039250612282565b6001836020036101000a038019825116818451168082178552505050505050905001915050908152602001604051809103902060030160008282540392505081905550600360003373ffffffffffffffffffffffffffffffffffffffff1673ffffffffffffffffffffffffffffffffffffffff16815260200190815260200160002060060160008154809291906001019190505550600460003373ffffffffffffffffffffffffffffffffffffffff1673ffffffffffffffffffffffffffffffffffffffff168152602001908152602001600020600601600081548092919060010191905055505050565b60066020528060005260406000206000915090505481565b60026020528060005260406000206000915090505481565b6000600460003373ffffffffffffffffffffffffffffffffffffffff1673ffffffffffffffffffffffffffffffffffffffff16815260200190815260200160002060050154905090565b600660003373ffffffffffffffffffffffffffffffffffffffff1673ffffffffffffffffffffffffffffffffffffffff1681526020019081526020016000206000815480929190600101919050555080600560003373ffffffffffffffffffffffffffffffffffffffff1673ffffffffffffffffffffffffffffffffffffffff1681526020019081526020016000206000600660003373ffffffffffffffffffffffffffffffffffffffff1673ffffffffffffffffffffffffffffffffffffffff16815260200190815260200160002054815260200190815260200160002090805190602001906124fc929190612855565b5050565b60036020528060005260406000206000915090508060000160009054906101000a900473ffffffffffffffffffffffffffffffffffffffff1690806001018054600181600116156101000203166002900480601f0160208091040260200160405190810160405280929190818152602001828054600181600116156101000203166002900480156125d25780601f106125a7576101008083540402835291602001916125d2565b820191906000526020600020905b8154815290600101906020018083116125b557829003601f168201915b505050505090806002018054600181600116156101000203166002900480601f0160208091040260200160405190810160405280929190818152602001828054600181600116156101000203166002900480156126705780601f1061264557610100808354040283529160200191612670565b820191906000526020600020905b81548152906001019060200180831161265357829003601f168201915b505050505090806003018054600181600116156101000203166002900480601f01602080910402602001604051908101604052809291908181526020018280546001816001161561010002031660029004801561270e5780601f106126e35761010080835404028352916020019161270e565b820191906000526020600020905b8154815290600101906020018083116126f157829003601f168201915b505050505090806004018054600181600116156101000203166002900480601f0160208091040260200160405190810160405280929190818152602001828054600181600116156101000203166002900480156127ac5780601f10612781576101008083540402835291602001916127ac565b820191906000526020600020905b81548152906001019060200180831161278f57829003601f168201915b5050505050908060050154908060060154908060070160009054906101000a900460ff16905088565b828054600181600116156101000203166002900490600052602060002090601f016020900481019282601f1061281657805160ff1916838001178555612844565b82800160010185558215612844579182015b82811115612843578251825591602001919060010190612828565b5b50905061285191906128d5565b5090565b828054600181600116156101000203166002900490600052602060002090601f016020900481019282601f1061289657805160ff19168380011785556128c4565b828001600101855582156128c4579182015b828111156128c35782518255916020019190600101906128a8565b5b5090506128d191906128d5565b5090565b6128f791905b808211156128f35760008160009055506001016128db565b5090565b9056fe4d65646963616c2073746f7265206e616d6520616c7265616479206578697374735175616e746974792073686f756c642062652067726561746572207468616e2030a265627a7a72315820f7628290dedbb78f0993355aa81b2859c0363d3c5d045747f68535fcf86a0f1b64736f6c63430005100032",
  "source": "// SPDX-License-Identifier: MIT\r\npragma solidity >=0.4.22 <=0.8.9;\r\n\r\ncontract MedImpact {\r\n    \r\n    // model MedicalStore\r\n    struct MedicalStore {\r\n        //uint256 latitude;\r\n        //uint256 longitude;\r\n        address owner;\r\n        string ownerName;\r\n        string storeName;\r\n        //string email;\r\n        string phoneno;\r\n        //string landmark;\r\n        //string city;\r\n        string ownerAddress;\r\n        //string pincode;\r\n        uint256 invoices;\r\n        uint256 purchases;\r\n        //string aadhaarCardHash;\r\n        bool exists;\r\n    }\r\n    \r\n    // model Medicine\r\n    struct Medicine {\r\n        string name;\r\n        uint256 rate;\r\n        uint256 price;\r\n        uint256 quantity;\r\n        string batchNo;\r\n        string manufactDate;\r\n        string expiryDate;\r\n        //string billHash;\r\n        bool exists;\r\n    }\r\n    \r\n    // map to store medicines\r\n    // medicalStoreId => medicineName => expiryDate => Medicine\r\n    //mapping(string => mapping(string => mapping(string => Medicine))) public medicines;\r\n\r\n    // map to store medicines\r\n    // owneraddress => batchId => Medicine\r\n    mapping(address => mapping(string => Medicine)) public medicines;\r\n\r\n    // map owneraddress => medicine count => batchNo\r\n    mapping(address => mapping(uint256 => string)) public batchIdOfMedicine;\r\n    \r\n    // map owneraddress => medicine count\r\n    mapping(address => uint256) public medicineCountInMedicalStore;\r\n    \r\n    // map to store medical stores\r\n    // owneraddress => MedicalStore\r\n    mapping(address => MedicalStore) public medicalStores;\r\n    \r\n    // map to store medical stores of a particular user\r\n    // owneraddress => MedicalStore\r\n    mapping(address => MedicalStore) public myMedicalStores;\r\n\r\n    // map owneraddress => bill count => bills\r\n    mapping(address => mapping(uint256 => string)) public myBills;\r\n\r\n    // map owneraddress => bill count\r\n    mapping(address => uint256) public myBillsCount;\r\n\r\n\r\n    // store the number of medical stores\r\n    uint256 public medicalStoresCount;\r\n\r\n    constructor() public {\r\n        //addMedicalStore(\"Real Medicos\", \"realmedicos@gmail.com\", \"9976565437\", \"xyzhash\");\r\n    }\r\n\r\n    // function to add new medical store\r\n    function addMedicalStore(/*uint256 _latitude, uint256 _longitude,*/ string memory _ownerName, string memory _medicalStoreName,/* string memory _email,*/ string memory _phoneno, /*string memory _landmark, string memory _city,*/ string memory _ownerAddress /*string memory _pincode, string memory _aadhaarCardHash*/) public {\r\n        require(medicalStores[/*_medicalStoreId*/msg.sender].exists == false, \"Medical store name already exists\");\r\n        \r\n        medicalStoresCount++;\r\n        medicalStores[/*_medicalStoreId*/msg.sender] = MedicalStore(/*_latitude, _longitude,*/ msg.sender, _ownerName, _medicalStoreName,/* _email,*/ _phoneno,/* _landmark, _city,*/ _ownerAddress,/* _pincode,*/ 0, 0,/* _aadhaarCardHash,*/ true);\r\n        myMedicalStores[msg.sender] = MedicalStore(/*_latitude, _longitude,*/ msg.sender, _ownerName, _medicalStoreName,/* _email,*/ _phoneno,/* _landmark, _city,*/ _ownerAddress,/* _pincode,*/ 0, 0,/* _aadhaarCardHash,*/ true);\r\n    }\r\n\r\n    // function to add new stock of a specific medicine having a particular expiry date to a particular medical store\r\n    function addMedicine(/*string memory _medicalStoreId,*/ string memory _medicineName, uint256 _rate, uint256 _price, uint256 _quantity, string memory _batchNo, string memory _manufactDate, string memory _expiryDate/*, string memory _billHash*/) public {\r\n        //require(medicalStores[/*_medicalStoreId*/msg.sender].owner == msg.sender, \"You are not the owner of medical store\");\r\n        require(_quantity > 0, \"Quantity should be greater than 0\");\r\n        \r\n        /*if(medicines[_medicalStoreId][_medicineName][_expiryDate].exists){\r\n            medicines[_medicalStoreId][_medicineName][_expiryDate].quantity += _quantity;\r\n        }\r\n        else{\r\n            medicines[_medicalStoreId][_medicineName][_expiryDate] = Medicine( _medicineName, _price, _quantity, _expiryDate, _billHash, true);   \r\n        }*/\r\n        medicineCountInMedicalStore[/*_medicalStoreId*/msg.sender]++;\r\n        batchIdOfMedicine[/*_medicalStoreId*/msg.sender][ medicineCountInMedicalStore[/*_medicalStoreId*/msg.sender]] = _batchNo;\r\n        medicines[/*_medicalStoreId*/msg.sender][_batchNo] = Medicine(_medicineName, _rate, _price, _quantity, _batchNo, _manufactDate, _expiryDate,/* _billHash,*/ true);\r\n\r\n        medicalStores[/*_medicalStoreId*/msg.sender].invoices++;\r\n        myMedicalStores[msg.sender].invoices++;\r\n    }\r\n    \r\n    // function to purchase a specific medicine of a particular expiry date from a particular medical store\r\n    function purchaseMedicine(/*string memory _medicalStoreId, string memory _medicineName,*/ uint256 _quantity, string memory _batchNo/*, string memory _expiryDate*/) public {\r\n        //require(medicalStores[/*_medicalStoreId*/msg.sender].owner == msg.sender, \"You are not the owner of medical store\");\r\n        require(medicines[/*_medicalStoreId*/msg.sender][_batchNo].quantity > 0, \"Inufficient stock\");\r\n        require(_quantity > 0, \"Quantity should be greater than 0\");\r\n        \r\n        medicines[/*_medicalStoreId*/msg.sender][_batchNo].quantity -= _quantity;\r\n        medicalStores[/*_medicalStoreId*/msg.sender].purchases++;\r\n        myMedicalStores[msg.sender].purchases++;\r\n    }\r\n\r\n    function addBills(string memory _billHash) public {\r\n        myBillsCount[msg.sender]++;\r\n        myBills[msg.sender][myBillsCount[msg.sender]] = _billHash;\r\n    }\r\n    \r\n    // function to return the count of a specific medicine of a particular expiry date present in a particular medical store \r\n    function medicineCount(/*string memory _medicineName, string memory _medicalStoreId, string memory _batchNo, string memory _expiryDate*/) view public returns(uint256){\r\n        //require(medicalStores[_medicalStoreId].exists, \"Medical store does not exist\");\r\n        //return medicines[_medicalStoreId][_batchNo].quantity;\r\n        medicineCountInMedicalStore[msg.sender];\r\n    }\r\n    \r\n    // function to return the number of invoices for a particular medical store\r\n    function invoicesCount(/*string memory _medicalStoreId*/) view public returns(uint256){\r\n        /*require(medicalStores[_medicalStoreId].exists, \"Medical store does not exist\");\r\n        return medicalStores[_medicalStoreId].invoices;*/\r\n        return myMedicalStores[msg.sender].invoices;\r\n    }\r\n    \r\n    // function to return the number of purchases for a particular medical store\r\n    function purchasesCount(/*string memory _medicalStoreId*/) view public returns(uint256){\r\n        /*require(medicalStores[_medicalStoreId].exists, \"Medical store does not exist\");\r\n        return medicalStores[_medicalStoreId].purchases;\r\n        */\r\n        return myMedicalStores[msg.sender].purchases;\r\n    }\r\n\r\n    // function to return all the medicines in a particular store\r\n    /*function getMedicines(string memory _medicalStoreId) view public returns(uint256) {\r\n        require(medicalStores[_medicalStoreId].exists, \"Medical store does not exist\");\r\n\r\n    }*/\r\n    \r\n}\r\n",
  "sourcePath": "C:\\Users\\Akshat\\Desktop\\MedImpact\\contracts\\MedImpact.sol",
  "compiler": {
    "name": "solc",
    "version": "0.5.16+commit.9c3226ce.Emscripten.clang"
  },
  "schemaVersion": "3.4.3",
  "updatedAt": "2021-12-12T12:19:02.017Z",
  "devdoc": {
    "methods": {}
  },
  "userdoc": {
    "methods": {}
  }
}