{
  "contractName": "MedImpact",
  "abi": [
    {
      "inputs": [],
      "payable": false,
      "stateMutability": "nonpayable",
      "type": "constructor"
    },
    {
      "constant": true,
      "inputs": [
        {
          "internalType": "address",
          "name": "",
          "type": "address"
        },
        {
          "internalType": "uint256",
          "name": "",
          "type": "uint256"
        }
      ],
      "name": "batchIdOfMedicine",
      "outputs": [
        {
          "internalType": "string",
          "name": "",
          "type": "string"
        }
      ],
      "payable": false,
      "stateMutability": "view",
      "type": "function"
    },
    {
      "constant": true,
      "inputs": [
        {
          "internalType": "address",
          "name": "",
          "type": "address"
        }
      ],
      "name": "medicalStores",
      "outputs": [
        {
          "internalType": "address",
          "name": "owner",
          "type": "address"
        },
        {
          "internalType": "string",
          "name": "ownerName",
          "type": "string"
        },
        {
          "internalType": "string",
          "name": "storeName",
          "type": "string"
        },
        {
          "internalType": "string",
          "name": "phoneno",
          "type": "string"
        },
        {
          "internalType": "string",
          "name": "ownerAddress",
          "type": "string"
        },
        {
          "internalType": "uint256",
          "name": "invoices",
          "type": "uint256"
        },
        {
          "internalType": "uint256",
          "name": "purchases",
          "type": "uint256"
        },
        {
          "internalType": "bool",
          "name": "exists",
          "type": "bool"
        }
      ],
      "payable": false,
      "stateMutability": "view",
      "type": "function"
    },
    {
      "constant": true,
      "inputs": [],
      "name": "medicalStoresCount",
      "outputs": [
        {
          "internalType": "uint256",
          "name": "",
          "type": "uint256"
        }
      ],
      "payable": false,
      "stateMutability": "view",
      "type": "function"
    },
    {
      "constant": true,
      "inputs": [
        {
          "internalType": "address",
          "name": "",
          "type": "address"
        }
      ],
      "name": "medicineCountInMedicalStore",
      "outputs": [
        {
          "internalType": "uint256",
          "name": "",
          "type": "uint256"
        }
      ],
      "payable": false,
      "stateMutability": "view",
      "type": "function"
    },
    {
      "constant": true,
      "inputs": [
        {
          "internalType": "address",
          "name": "",
          "type": "address"
        },
        {
          "internalType": "string",
          "name": "",
          "type": "string"
        }
      ],
      "name": "medicines",
      "outputs": [
        {
          "internalType": "string",
          "name": "name",
          "type": "string"
        },
        {
          "internalType": "uint256",
          "name": "rate",
          "type": "uint256"
        },
        {
          "internalType": "uint256",
          "name": "price",
          "type": "uint256"
        },
        {
          "internalType": "uint256",
          "name": "quantity",
          "type": "uint256"
        },
        {
          "internalType": "string",
          "name": "batchNo",
          "type": "string"
        },
        {
          "internalType": "string",
          "name": "manufactDate",
          "type": "string"
        },
        {
          "internalType": "string",
          "name": "expiryDate",
          "type": "string"
        },
        {
          "internalType": "bool",
          "name": "exists",
          "type": "bool"
        }
      ],
      "payable": false,
      "stateMutability": "view",
      "type": "function"
    },
    {
      "constant": true,
      "inputs": [
        {
          "internalType": "address",
          "name": "",
          "type": "address"
        },
        {
          "internalType": "uint256",
          "name": "",
          "type": "uint256"
        }
      ],
      "name": "myBills",
      "outputs": [
        {
          "internalType": "string",
          "name": "",
          "type": "string"
        }
      ],
      "payable": false,
      "stateMutability": "view",
      "type": "function"
    },
    {
      "constant": true,
      "inputs": [
        {
          "internalType": "address",
          "name": "",
          "type": "address"
        }
      ],
      "name": "myBillsCount",
      "outputs": [
        {
          "internalType": "uint256",
          "name": "",
          "type": "uint256"
        }
      ],
      "payable": false,
      "stateMutability": "view",
      "type": "function"
    },
    {
      "constant": true,
      "inputs": [
        {
          "internalType": "address",
          "name": "",
          "type": "address"
        }
      ],
      "name": "myMedicalStores",
      "outputs": [
        {
          "internalType": "address",
          "name": "owner",
          "type": "address"
        },
        {
          "internalType": "string",
          "name": "ownerName",
          "type": "string"
        },
        {
          "internalType": "string",
          "name": "storeName",
          "type": "string"
        },
        {
          "internalType": "string",
          "name": "phoneno",
          "type": "string"
        },
        {
          "internalType": "string",
          "name": "ownerAddress",
          "type": "string"
        },
        {
          "internalType": "uint256",
          "name": "invoices",
          "type": "uint256"
        },
        {
          "internalType": "uint256",
          "name": "purchases",
          "type": "uint256"
        },
        {
          "internalType": "bool",
          "name": "exists",
          "type": "bool"
        }
      ],
      "payable": false,
      "stateMutability": "view",
      "type": "function"
    },
    {
      "constant": true,
      "inputs": [
        {
          "internalType": "address",
          "name": "",
          "type": "address"
        },
        {
          "internalType": "uint256",
          "name": "",
          "type": "uint256"
        }
      ],
      "name": "myMedicines",
      "outputs": [
        {
          "internalType": "string",
          "name": "name",
          "type": "string"
        },
        {
          "internalType": "uint256",
          "name": "rate",
          "type": "uint256"
        },
        {
          "internalType": "uint256",
          "name": "price",
          "type": "uint256"
        },
        {
          "internalType": "uint256",
          "name": "quantity",
          "type": "uint256"
        },
        {
          "internalType": "string",
          "name": "batchNo",
          "type": "string"
        },
        {
          "internalType": "string",
          "name": "manufactDate",
          "type": "string"
        },
        {
          "internalType": "string",
          "name": "expiryDate",
          "type": "string"
        },
        {
          "internalType": "bool",
          "name": "exists",
          "type": "bool"
        }
      ],
      "payable": false,
      "stateMutability": "view",
      "type": "function"
    },
    {
      "constant": false,
      "inputs": [
        {
          "internalType": "string",
          "name": "_ownerName",
          "type": "string"
        },
        {
          "internalType": "string",
          "name": "_medicalStoreName",
          "type": "string"
        },
        {
          "internalType": "string",
          "name": "_phoneno",
          "type": "string"
        },
        {
          "internalType": "string",
          "name": "_ownerAddress",
          "type": "string"
        }
      ],
      "name": "addMedicalStore",
      "outputs": [],
      "payable": false,
      "stateMutability": "nonpayable",
      "type": "function"
    },
    {
      "constant": false,
      "inputs": [
        {
          "internalType": "string",
          "name": "_medicineName",
          "type": "string"
        },
        {
          "internalType": "uint256",
          "name": "_rate",
          "type": "uint256"
        },
        {
          "internalType": "uint256",
          "name": "_price",
          "type": "uint256"
        },
        {
          "internalType": "uint256",
          "name": "_quantity",
          "type": "uint256"
        },
        {
          "internalType": "string",
          "name": "_batchNo",
          "type": "string"
        },
        {
          "internalType": "string",
          "name": "_manufactDate",
          "type": "string"
        },
        {
          "internalType": "string",
          "name": "_expiryDate",
          "type": "string"
        }
      ],
      "name": "addMedicine",
      "outputs": [],
      "payable": false,
      "stateMutability": "nonpayable",
      "type": "function"
    },
    {
      "constant": false,
      "inputs": [
        {
          "internalType": "uint256",
          "name": "_quantity",
          "type": "uint256"
        },
        {
          "internalType": "string",
          "name": "_batchNo",
          "type": "string"
        }
      ],
      "name": "purchaseMedicine",
      "outputs": [],
      "payable": false,
      "stateMutability": "nonpayable",
      "type": "function"
    },
    {
      "constant": false,
      "inputs": [
        {
          "internalType": "string",
          "name": "_billHash",
          "type": "string"
        }
      ],
      "name": "addBills",
      "outputs": [],
      "payable": false,
      "stateMutability": "nonpayable",
      "type": "function"
    },
    {
      "constant": true,
      "inputs": [],
      "name": "medicineCount",
      "outputs": [
        {
          "internalType": "uint256",
          "name": "",
          "type": "uint256"
        }
      ],
      "payable": false,
      "stateMutability": "view",
      "type": "function"
    },
    {
      "constant": true,
      "inputs": [],
      "name": "invoicesCount",
      "outputs": [
        {
          "internalType": "uint256",
          "name": "",
          "type": "uint256"
        }
      ],
      "payable": false,
      "stateMutability": "view",
      "type": "function"
    },
    {
      "constant": true,
      "inputs": [],
      "name": "purchasesCount",
      "outputs": [
        {
          "internalType": "uint256",
          "name": "",
          "type": "uint256"
        }
      ],
      "payable": false,
      "stateMutability": "view",
      "type": "function"
    }
  ],
  "bytecode": "0x608060405234801561001057600080fd5b50612fea806100206000396000f3fe608060405234801561001057600080fd5b50600436106100ff5760003560e01c8063625a8e91116100975780639258b187116100665780639258b18714611057578063c3dbfbfc146110af578063d352cb99146110cd578063d639731114611188576100ff565b8063625a8e9114610cf1578063695b331d14610d0f5780636c2cd06314610f3a5780638e5729d914610fff576100ff565b8063462e1764116100d3578063462e1764146109505780634dafd49014610a175780634e2d41db14610a355780635090408114610cd3576100ff565b80626e9e68146101045780630b6594601461038457806328adb13a146105d15780633fcec93514610698575b600080fd5b6103826004803603608081101561011a57600080fd5b810190808035906020019064010000000081111561013757600080fd5b82018360208201111561014957600080fd5b8035906020019184600183028401116401000000008311171561016b57600080fd5b91908080601f016020809104026020016040519081016040528093929190818152602001838380828437600081840152601f19601f820116905080830192505050505050509192919290803590602001906401000000008111156101ce57600080fd5b8201836020820111156101e057600080fd5b8035906020019184600183028401116401000000008311171561020257600080fd5b91908080601f016020809104026020016040519081016040528093929190818152602001838380828437600081840152601f19601f8201169050808301925050505050505091929192908035906020019064010000000081111561026557600080fd5b82018360208201111561027757600080fd5b8035906020019184600183028401116401000000008311171561029957600080fd5b91908080601f016020809104026020016040519081016040528093929190818152602001838380828437600081840152601f19601f820116905080830192505050505050509192919290803590602001906401000000008111156102fc57600080fd5b82018360208201111561030e57600080fd5b8035906020019184600183028401116401000000008311171561033057600080fd5b91908080601f016020809104026020016040519081016040528093929190818152602001838380828437600081840152601f19601f8201169050808301925050505050505091929192905050506113d5565b005b6103c66004803603602081101561039a57600080fd5b81019080803573ffffffffffffffffffffffffffffffffffffffff1690602001909291905050506117a5565b604051808973ffffffffffffffffffffffffffffffffffffffff1673ffffffffffffffffffffffffffffffffffffffff168152602001806020018060200180602001806020018881526020018781526020018615151515815260200185810385528c818151815260200191508051906020019080838360005b8381101561045a57808201518184015260208101905061043f565b50505050905090810190601f1680156104875780820380516001836020036101000a031916815260200191505b5085810384528b818151815260200191508051906020019080838360005b838110156104c05780820151818401526020810190506104a5565b50505050905090810190601f1680156104ed5780820380516001836020036101000a031916815260200191505b5085810383528a818151815260200191508051906020019080838360005b8381101561052657808201518184015260208101905061050b565b50505050905090810190601f1680156105535780820380516001836020036101000a031916815260200191505b50858103825289818151815260200191508051906020019080838360005b8381101561058c578082015181840152602081019050610571565b50505050905090810190601f1680156105b95780820380516001836020036101000a031916815260200191505b509c5050505050505050505050505060405180910390f35b61061d600480360360408110156105e757600080fd5b81019080803573ffffffffffffffffffffffffffffffffffffffff16906020019092919080359060200190929190505050611a7a565b6040518080602001828103825283818151815260200191508051906020019080838360005b8381101561065d578082015181840152602081019050610642565b50505050905090810190601f16801561068a5780820380516001836020036101000a031916815260200191505b509250505060405180910390f35b610771600480360360408110156106ae57600080fd5b81019080803573ffffffffffffffffffffffffffffffffffffffff169060200190929190803590602001906401000000008111156106eb57600080fd5b8201836020820111156106fd57600080fd5b8035906020019184600183028401116401000000008311171561071f57600080fd5b91908080601f016020809104026020016040519081016040528093929190818152602001838380828437600081840152601f19601f820116905080830192505050505050509192919290505050611b37565b60405180806020018981526020018881526020018781526020018060200180602001806020018615151515815260200185810385528d818151815260200191508051906020019080838360005b838110156107d95780820151818401526020810190506107be565b50505050905090810190601f1680156108065780820380516001836020036101000a031916815260200191505b50858103845289818151815260200191508051906020019080838360005b8381101561083f578082015181840152602081019050610824565b50505050905090810190601f16801561086c5780820380516001836020036101000a031916815260200191505b50858103835288818151815260200191508051906020019080838360005b838110156108a557808201518184015260208101905061088a565b50505050905090810190601f1680156108d25780820380516001836020036101000a031916815260200191505b50858103825287818151815260200191508051906020019080838360005b8381101561090b5780820151818401526020810190506108f0565b50505050905090810190601f1680156109385780820380516001836020036101000a031916815260200191505b509c5050505050505050505050505060405180910390f35b61099c6004803603604081101561096657600080fd5b81019080803573ffffffffffffffffffffffffffffffffffffffff16906020019092919080359060200190929190505050611e0f565b6040518080602001828103825283818151815260200191508051906020019080838360005b838110156109dc5780820151818401526020810190506109c1565b50505050905090810190601f168015610a095780820380516001836020036101000a031916815260200191505b509250505060405180910390f35b610a1f611ecc565b6040518082815260200191505060405180910390f35b610cd1600480360360e0811015610a4b57600080fd5b8101908080359060200190640100000000811115610a6857600080fd5b820183602082011115610a7a57600080fd5b80359060200191846001830284011164010000000083111715610a9c57600080fd5b91908080601f016020809104026020016040519081016040528093929190818152602001838380828437600081840152601f19601f82011690508083019250505050505050919291929080359060200190929190803590602001909291908035906020019092919080359060200190640100000000811115610b1d57600080fd5b820183602082011115610b2f57600080fd5b80359060200191846001830284011164010000000083111715610b5157600080fd5b91908080601f016020809104026020016040519081016040528093929190818152602001838380828437600081840152601f19601f82011690508083019250505050505050919291929080359060200190640100000000811115610bb457600080fd5b820183602082011115610bc657600080fd5b80359060200191846001830284011164010000000083111715610be857600080fd5b91908080601f016020809104026020016040519081016040528093929190818152602001838380828437600081840152601f19601f82011690508083019250505050505050919291929080359060200190640100000000811115610c4b57600080fd5b820183602082011115610c5d57600080fd5b80359060200191846001830284011164010000000083111715610c7f57600080fd5b91908080601f016020809104026020016040519081016040528093929190818152602001838380828437600081840152601f19601f820116905080830192505050505050509192919290505050611f11565b005b610cdb612422565b6040518082815260200191505060405180910390f35b610cf961246c565b6040518082815260200191505060405180910390f35b610d5b60048036036040811015610d2557600080fd5b81019080803573ffffffffffffffffffffffffffffffffffffffff16906020019092919080359060200190929190505050612472565b60405180806020018981526020018881526020018781526020018060200180602001806020018615151515815260200185810385528d818151815260200191508051906020019080838360005b83811015610dc3578082015181840152602081019050610da8565b50505050905090810190601f168015610df05780820380516001836020036101000a031916815260200191505b50858103845289818151815260200191508051906020019080838360005b83811015610e29578082015181840152602081019050610e0e565b50505050905090810190601f168015610e565780820380516001836020036101000a031916815260200191505b50858103835288818151815260200191508051906020019080838360005b83811015610e8f578082015181840152602081019050610e74565b50505050905090810190601f168015610ebc5780820380516001836020036101000a031916815260200191505b50858103825287818151815260200191508051906020019080838360005b83811015610ef5578082015181840152602081019050610eda565b50505050905090810190601f168015610f225780820380516001836020036101000a031916815260200191505b509c5050505050505050505050505060405180910390f35b610ffd60048036036040811015610f5057600080fd5b810190808035906020019092919080359060200190640100000000811115610f7757600080fd5b820183602082011115610f8957600080fd5b80359060200191846001830284011164010000000083111715610fab57600080fd5b91908080601f016020809104026020016040519081016040528093929190818152602001838380828437600081840152601f19601f820116905080830192505050505050509192919290505050612734565b005b6110416004803603602081101561101557600080fd5b81019080803573ffffffffffffffffffffffffffffffffffffffff169060200190929190505050612a09565b6040518082815260200191505060405180910390f35b6110996004803603602081101561106d57600080fd5b81019080803573ffffffffffffffffffffffffffffffffffffffff169060200190929190505050612a21565b6040518082815260200191505060405180910390f35b6110b7612a39565b6040518082815260200191505060405180910390f35b611186600480360360208110156110e357600080fd5b810190808035906020019064010000000081111561110057600080fd5b82018360208201111561111257600080fd5b8035906020019184600183028401116401000000008311171561113457600080fd5b91908080601f016020809104026020016040519081016040528093929190818152602001838380828437600081840152601f19601f820116905080830192505050505050509192919290505050612a83565b005b6111ca6004803603602081101561119e57600080fd5b81019080803573ffffffffffffffffffffffffffffffffffffffff169060200190929190505050612b79565b604051808973ffffffffffffffffffffffffffffffffffffffff1673ffffffffffffffffffffffffffffffffffffffff168152602001806020018060200180602001806020018881526020018781526020018615151515815260200185810385528c818151815260200191508051906020019080838360005b8381101561125e578082015181840152602081019050611243565b50505050905090810190601f16801561128b5780820380516001836020036101000a031916815260200191505b5085810384528b818151815260200191508051906020019080838360005b838110156112c45780820151818401526020810190506112a9565b50505050905090810190601f1680156112f15780820380516001836020036101000a031916815260200191505b5085810383528a818151815260200191508051906020019080838360005b8381101561132a57808201518184015260208101905061130f565b50505050905090810190601f1680156113575780820380516001836020036101000a031916815260200191505b50858103825289818151815260200191508051906020019080838360005b83811015611390578082015181840152602081019050611375565b50505050905090810190601f1680156113bd5780820380516001836020036101000a031916815260200191505b509c5050505050505050505050505060405180910390f35b60001515600460003373ffffffffffffffffffffffffffffffffffffffff1673ffffffffffffffffffffffffffffffffffffffff16815260200190815260200160002060070160009054906101000a900460ff16151514611481576040517f08c379a0000000000000000000000000000000000000000000000000000000008152600401808060200182810382526021815260200180612f746021913960400191505060405180910390fd5b6008600081548092919060010191905055506040518061010001604052803373ffffffffffffffffffffffffffffffffffffffff168152602001858152602001848152602001838152602001828152602001600081526020016000815260200160011515815250600460003373ffffffffffffffffffffffffffffffffffffffff1673ffffffffffffffffffffffffffffffffffffffff16815260200190815260200160002060008201518160000160006101000a81548173ffffffffffffffffffffffffffffffffffffffff021916908373ffffffffffffffffffffffffffffffffffffffff160217905550602082015181600101908051906020019061158a929190612e4e565b5060408201518160020190805190602001906115a7929190612e4e565b5060608201518160030190805190602001906115c4929190612e4e565b5060808201518160040190805190602001906115e1929190612e4e565b5060a0820151816005015560c0820151816006015560e08201518160070160006101000a81548160ff0219169083151502179055509050506040518061010001604052803373ffffffffffffffffffffffffffffffffffffffff168152602001858152602001848152602001838152602001828152602001600081526020016000815260200160011515815250600560003373ffffffffffffffffffffffffffffffffffffffff1673ffffffffffffffffffffffffffffffffffffffff16815260200190815260200160002060008201518160000160006101000a81548173ffffffffffffffffffffffffffffffffffffffff021916908373ffffffffffffffffffffffffffffffffffffffff1602179055506020820151816001019080519060200190611710929190612e4e565b50604082015181600201908051906020019061172d929190612e4e565b50606082015181600301908051906020019061174a929190612e4e565b506080820151816004019080519060200190611767929190612e4e565b5060a0820151816005015560c0820151816006015560e08201518160070160006101000a81548160ff02191690831515021790555090505050505050565b60056020528060005260406000206000915090508060000160009054906101000a900473ffffffffffffffffffffffffffffffffffffffff1690806001018054600181600116156101000203166002900480601f0160208091040260200160405190810160405280929190818152602001828054600181600116156101000203166002900480156118775780601f1061184c57610100808354040283529160200191611877565b820191906000526020600020905b81548152906001019060200180831161185a57829003601f168201915b505050505090806002018054600181600116156101000203166002900480601f0160208091040260200160405190810160405280929190818152602001828054600181600116156101000203166002900480156119155780601f106118ea57610100808354040283529160200191611915565b820191906000526020600020905b8154815290600101906020018083116118f857829003601f168201915b505050505090806003018054600181600116156101000203166002900480601f0160208091040260200160405190810160405280929190818152602001828054600181600116156101000203166002900480156119b35780601f10611988576101008083540402835291602001916119b3565b820191906000526020600020905b81548152906001019060200180831161199657829003601f168201915b505050505090806004018054600181600116156101000203166002900480601f016020809104026020016040519081016040528092919081815260200182805460018160011615610100020316600290048015611a515780601f10611a2657610100808354040283529160200191611a51565b820191906000526020600020905b815481529060010190602001808311611a3457829003601f168201915b5050505050908060050154908060060154908060070160009054906101000a900460ff16905088565b6001602052816000526040600020602052806000526040600020600091509150508054600181600116156101000203166002900480601f016020809104026020016040519081016040528092919081815260200182805460018160011615610100020316600290048015611b2f5780601f10611b0457610100808354040283529160200191611b2f565b820191906000526020600020905b815481529060010190602001808311611b1257829003601f168201915b505050505081565b60006020528160005260406000208180516020810182018051848252602083016020850120818352809550505050505060009150915050806000018054600181600116156101000203166002900480601f016020809104026020016040519081016040528092919081815260200182805460018160011615610100020316600290048015611c065780601f10611bdb57610100808354040283529160200191611c06565b820191906000526020600020905b815481529060010190602001808311611be957829003601f168201915b505050505090806001015490806002015490806003015490806004018054600181600116156101000203166002900480601f016020809104026020016040519081016040528092919081815260200182805460018160011615610100020316600290048015611cb65780601f10611c8b57610100808354040283529160200191611cb6565b820191906000526020600020905b815481529060010190602001808311611c9957829003601f168201915b505050505090806005018054600181600116156101000203166002900480601f016020809104026020016040519081016040528092919081815260200182805460018160011615610100020316600290048015611d545780601f10611d2957610100808354040283529160200191611d54565b820191906000526020600020905b815481529060010190602001808311611d3757829003601f168201915b505050505090806006018054600181600116156101000203166002900480601f016020809104026020016040519081016040528092919081815260200182805460018160011615610100020316600290048015611df25780601f10611dc757610100808354040283529160200191611df2565b820191906000526020600020905b815481529060010190602001808311611dd557829003601f168201915b5050505050908060070160009054906101000a900460ff16905088565b6006602052816000526040600020602052806000526040600020600091509150508054600181600116156101000203166002900480601f016020809104026020016040519081016040528092919081815260200182805460018160011615610100020316600290048015611ec45780601f10611e9957610100808354040283529160200191611ec4565b820191906000526020600020905b815481529060010190602001808311611ea757829003601f168201915b505050505081565b6000600260003373ffffffffffffffffffffffffffffffffffffffff1673ffffffffffffffffffffffffffffffffffffffff1681526020019081526020016000205090565b60008411611f6a576040517f08c379a0000000000000000000000000000000000000000000000000000000008152600401808060200182810382526021815260200180612f956021913960400191505060405180910390fd5b600260003373ffffffffffffffffffffffffffffffffffffffff1673ffffffffffffffffffffffffffffffffffffffff1681526020019081526020016000206000815480929190600101919050555060405180610100016040528088815260200187815260200186815260200185815260200184815260200183815260200182815260200160011515815250600360003373ffffffffffffffffffffffffffffffffffffffff1673ffffffffffffffffffffffffffffffffffffffff1681526020019081526020016000206000600260003373ffffffffffffffffffffffffffffffffffffffff1673ffffffffffffffffffffffffffffffffffffffff16815260200190815260200160002054815260200190815260200160002060008201518160000190805190602001906120a1929190612e4e565b5060208201518160010155604082015181600201556060820151816003015560808201518160040190805190602001906120dc929190612e4e565b5060a08201518160050190805190602001906120f9929190612e4e565b5060c0820151816006019080519060200190612116929190612e4e565b5060e08201518160070160006101000a81548160ff02191690831515021790555090505082600160003373ffffffffffffffffffffffffffffffffffffffff1673ffffffffffffffffffffffffffffffffffffffff1681526020019081526020016000206000600260003373ffffffffffffffffffffffffffffffffffffffff1673ffffffffffffffffffffffffffffffffffffffff16815260200190815260200160002054815260200190815260200160002090805190602001906121dd929190612ece565b50604051806101000160405280888152602001878152602001868152602001858152602001848152602001838152602001828152602001600115158152506000803373ffffffffffffffffffffffffffffffffffffffff1673ffffffffffffffffffffffffffffffffffffffff168152602001908152602001600020846040518082805190602001908083835b6020831061228d578051825260208201915060208101905060208303925061226a565b6001836020036101000a038019825116818451168082178552505050505050905001915050908152602001604051809103902060008201518160000190805190602001906122dc929190612e4e565b506020820151816001015560408201518160020155606082015181600301556080820151816004019080519060200190612317929190612e4e565b5060a0820151816005019080519060200190612334929190612e4e565b5060c0820151816006019080519060200190612351929190612e4e565b5060e08201518160070160006101000a81548160ff021916908315150217905550905050600460003373ffffffffffffffffffffffffffffffffffffffff1673ffffffffffffffffffffffffffffffffffffffff16815260200190815260200160002060050160008154809291906001019190505550600560003373ffffffffffffffffffffffffffffffffffffffff1673ffffffffffffffffffffffffffffffffffffffff1681526020019081526020016000206005016000815480929190600101919050555050505050505050565b6000600560003373ffffffffffffffffffffffffffffffffffffffff1673ffffffffffffffffffffffffffffffffffffffff16815260200190815260200160002060060154905090565b60085481565b600360205281600052604060002060205280600052604060002060009150915050806000018054600181600116156101000203166002900480601f01602080910402602001604051908101604052809291908181526020018280546001816001161561010002031660029004801561252b5780601f106125005761010080835404028352916020019161252b565b820191906000526020600020905b81548152906001019060200180831161250e57829003601f168201915b505050505090806001015490806002015490806003015490806004018054600181600116156101000203166002900480601f0160208091040260200160405190810160405280929190818152602001828054600181600116156101000203166002900480156125db5780601f106125b0576101008083540402835291602001916125db565b820191906000526020600020905b8154815290600101906020018083116125be57829003601f168201915b505050505090806005018054600181600116156101000203166002900480601f0160208091040260200160405190810160405280929190818152602001828054600181600116156101000203166002900480156126795780601f1061264e57610100808354040283529160200191612679565b820191906000526020600020905b81548152906001019060200180831161265c57829003601f168201915b505050505090806006018054600181600116156101000203166002900480601f0160208091040260200160405190810160405280929190818152602001828054600181600116156101000203166002900480156127175780601f106126ec57610100808354040283529160200191612717565b820191906000526020600020905b8154815290600101906020018083116126fa57829003601f168201915b5050505050908060070160009054906101000a900460ff16905088565b60008060003373ffffffffffffffffffffffffffffffffffffffff1673ffffffffffffffffffffffffffffffffffffffff168152602001908152602001600020826040518082805190602001908083835b602083106127a85780518252602082019150602081019050602083039250612785565b6001836020036101000a03801982511681845116808217855250505050505090500191505090815260200160405180910390206003015411612852576040517f08c379a00000000000000000000000000000000000000000000000000000000081526004018080602001828103825260118152602001807f496e756666696369656e742073746f636b00000000000000000000000000000081525060200191505060405180910390fd5b600082116128ab576040517f08c379a0000000000000000000000000000000000000000000000000000000008152600401808060200182810382526021815260200180612f956021913960400191505060405180910390fd5b816000803373ffffffffffffffffffffffffffffffffffffffff1673ffffffffffffffffffffffffffffffffffffffff168152602001908152602001600020826040518082805190602001908083835b6020831061291e57805182526020820191506020810190506020830392506128fb565b6001836020036101000a038019825116818451168082178552505050505050905001915050908152602001604051809103902060030160008282540392505081905550600460003373ffffffffffffffffffffffffffffffffffffffff1673ffffffffffffffffffffffffffffffffffffffff16815260200190815260200160002060060160008154809291906001019190505550600560003373ffffffffffffffffffffffffffffffffffffffff1673ffffffffffffffffffffffffffffffffffffffff168152602001908152602001600020600601600081548092919060010191905055505050565b60076020528060005260406000206000915090505481565b60026020528060005260406000206000915090505481565b6000600560003373ffffffffffffffffffffffffffffffffffffffff1673ffffffffffffffffffffffffffffffffffffffff16815260200190815260200160002060050154905090565b600760003373ffffffffffffffffffffffffffffffffffffffff1673ffffffffffffffffffffffffffffffffffffffff1681526020019081526020016000206000815480929190600101919050555080600660003373ffffffffffffffffffffffffffffffffffffffff1673ffffffffffffffffffffffffffffffffffffffff1681526020019081526020016000206000600760003373ffffffffffffffffffffffffffffffffffffffff1673ffffffffffffffffffffffffffffffffffffffff1681526020019081526020016000205481526020019081526020016000209080519060200190612b75929190612ece565b5050565b60046020528060005260406000206000915090508060000160009054906101000a900473ffffffffffffffffffffffffffffffffffffffff1690806001018054600181600116156101000203166002900480601f016020809104026020016040519081016040528092919081815260200182805460018160011615610100020316600290048015612c4b5780601f10612c2057610100808354040283529160200191612c4b565b820191906000526020600020905b815481529060010190602001808311612c2e57829003601f168201915b505050505090806002018054600181600116156101000203166002900480601f016020809104026020016040519081016040528092919081815260200182805460018160011615610100020316600290048015612ce95780601f10612cbe57610100808354040283529160200191612ce9565b820191906000526020600020905b815481529060010190602001808311612ccc57829003601f168201915b505050505090806003018054600181600116156101000203166002900480601f016020809104026020016040519081016040528092919081815260200182805460018160011615610100020316600290048015612d875780601f10612d5c57610100808354040283529160200191612d87565b820191906000526020600020905b815481529060010190602001808311612d6a57829003601f168201915b505050505090806004018054600181600116156101000203166002900480601f016020809104026020016040519081016040528092919081815260200182805460018160011615610100020316600290048015612e255780601f10612dfa57610100808354040283529160200191612e25565b820191906000526020600020905b815481529060010190602001808311612e0857829003601f168201915b5050505050908060050154908060060154908060070160009054906101000a900460ff16905088565b828054600181600116156101000203166002900490600052602060002090601f016020900481019282601f10612e8f57805160ff1916838001178555612ebd565b82800160010185558215612ebd579182015b82811115612ebc578251825591602001919060010190612ea1565b5b509050612eca9190612f4e565b5090565b828054600181600116156101000203166002900490600052602060002090601f016020900481019282601f10612f0f57805160ff1916838001178555612f3d565b82800160010185558215612f3d579182015b82811115612f3c578251825591602001919060010190612f21565b5b509050612f4a9190612f4e565b5090565b612f7091905b80821115612f6c576000816000905550600101612f54565b5090565b9056fe4d65646963616c2073746f7265206e616d6520616c7265616479206578697374735175616e746974792073686f756c642062652067726561746572207468616e2030a265627a7a723158200e9d93eb18a9a498b59e32023042f63578edaac2ce88cbb14c056a8a503804b464736f6c63430005100032",
  "source": "// SPDX-License-Identifier: MIT\npragma solidity >=0.4.22 <=0.8.9;\n\ncontract MedImpact {\n    \n    // model MedicalStore\n    struct MedicalStore {\n        //uint256 latitude;\n        //uint256 longitude;\n        address owner;\n        string ownerName;\n        string storeName;\n        //string email;\n        string phoneno;\n        //string landmark;\n        //string city;\n        string ownerAddress;\n        //string pincode;\n        uint256 invoices;\n        uint256 purchases;\n        //string aadhaarCardHash;\n        bool exists;\n    }\n    \n    // model Medicine\n    struct Medicine {\n        string name;\n        uint256 rate;\n        uint256 price;\n        uint256 quantity;\n        string batchNo;\n        string manufactDate;\n        string expiryDate;\n        //string billHash;\n        bool exists;\n    }\n    \n    // map to store medicines\n    // medicalStoreId => medicineName => expiryDate => Medicine\n    //mapping(string => mapping(string => mapping(string => Medicine))) public medicines;\n\n    // map to store medicines\n    // owneraddress => batchId => Medicine\n    mapping(address => mapping(string => Medicine)) public medicines;\n\n    // map owneraddress => medicine count => batchNo\n    mapping(address => mapping(uint256 => string)) public batchIdOfMedicine;\n    \n    // map owneraddress => medicine count\n    mapping(address => uint256) public medicineCountInMedicalStore;\n\n    // map ownerAddress => medicineCount => medicine\n    mapping(address => mapping(uint256 => Medicine)) public myMedicines;\n    \n    // map to store medical stores\n    // owneraddress => MedicalStore\n    mapping(address => MedicalStore) public medicalStores;\n    \n    // map to store medical stores of a particular user\n    // owneraddress => MedicalStore\n    mapping(address => MedicalStore) public myMedicalStores;\n\n    // map owneraddress => bill count => bills\n    mapping(address => mapping(uint256 => string)) public myBills;\n\n    // map owneraddress => bill count\n    mapping(address => uint256) public myBillsCount;\n\n\n    // store the number of medical stores\n    uint256 public medicalStoresCount;\n\n    constructor() public {\n        //addMedicalStore(\"Real Medicos\", \"realmedicos@gmail.com\", \"9976565437\", \"xyzhash\");\n    }\n\n    // function to add new medical store\n    function addMedicalStore(/*uint256 _latitude, uint256 _longitude,*/ string memory _ownerName, string memory _medicalStoreName,/* string memory _email,*/ string memory _phoneno, /*string memory _landmark, string memory _city,*/ string memory _ownerAddress /*string memory _pincode, string memory _aadhaarCardHash*/) public {\n        require(medicalStores[/*_medicalStoreId*/msg.sender].exists == false, \"Medical store name already exists\");\n        \n        medicalStoresCount++;\n        medicalStores[/*_medicalStoreId*/msg.sender] = MedicalStore(/*_latitude, _longitude,*/ msg.sender, _ownerName, _medicalStoreName,/* _email,*/ _phoneno,/* _landmark, _city,*/ _ownerAddress,/* _pincode,*/ 0, 0,/* _aadhaarCardHash,*/ true);\n        myMedicalStores[msg.sender] = MedicalStore(/*_latitude, _longitude,*/ msg.sender, _ownerName, _medicalStoreName,/* _email,*/ _phoneno,/* _landmark, _city,*/ _ownerAddress,/* _pincode,*/ 0, 0,/* _aadhaarCardHash,*/ true);\n    }\n\n    // function to add new stock of a specific medicine having a particular expiry date to a particular medical store\n    function addMedicine(/*string memory _medicalStoreId,*/ string memory _medicineName, uint256 _rate, uint256 _price, uint256 _quantity, string memory _batchNo, string memory _manufactDate, string memory _expiryDate/*, string memory _billHash*/) public {\n        //require(medicalStores[/*_medicalStoreId*/msg.sender].owner == msg.sender, \"You are not the owner of medical store\");\n        require(_quantity > 0, \"Quantity should be greater than 0\");\n        \n        /*if(medicines[_medicalStoreId][_medicineName][_expiryDate].exists){\n            medicines[_medicalStoreId][_medicineName][_expiryDate].quantity += _quantity;\n        }\n        else{\n            medicines[_medicalStoreId][_medicineName][_expiryDate] = Medicine( _medicineName, _price, _quantity, _expiryDate, _billHash, true);   \n        }*/\n        medicineCountInMedicalStore[/*_medicalStoreId*/msg.sender]++;\n        myMedicines[msg.sender][medicineCountInMedicalStore[/*_medicalStoreId*/msg.sender]] = Medicine(_medicineName, _rate, _price, _quantity, _batchNo, _manufactDate, _expiryDate,/* _billHash,*/ true);\n        batchIdOfMedicine[/*_medicalStoreId*/msg.sender][ medicineCountInMedicalStore[/*_medicalStoreId*/msg.sender]] = _batchNo;\n        medicines[/*_medicalStoreId*/msg.sender][_batchNo] = Medicine(_medicineName, _rate, _price, _quantity, _batchNo, _manufactDate, _expiryDate,/* _billHash,*/ true);\n\n        medicalStores[/*_medicalStoreId*/msg.sender].invoices++;\n        myMedicalStores[msg.sender].invoices++;\n    }\n    \n    // function to purchase a specific medicine of a particular expiry date from a particular medical store\n    function purchaseMedicine(/*string memory _medicalStoreId, string memory _medicineName,*/ uint256 _quantity, string memory _batchNo/*, string memory _expiryDate*/) public {\n        //require(medicalStores[/*_medicalStoreId*/msg.sender].owner == msg.sender, \"You are not the owner of medical store\");\n        require(medicines[/*_medicalStoreId*/msg.sender][_batchNo].quantity > 0, \"Inufficient stock\");\n        require(_quantity > 0, \"Quantity should be greater than 0\");\n        \n        medicines[/*_medicalStoreId*/msg.sender][_batchNo].quantity -= _quantity;\n        medicalStores[/*_medicalStoreId*/msg.sender].purchases++;\n        myMedicalStores[msg.sender].purchases++;\n    }\n\n    function addBills(string memory _billHash) public {\n        myBillsCount[msg.sender]++;\n        myBills[msg.sender][myBillsCount[msg.sender]] = _billHash;\n    }\n    \n    // function to return the count of a specific medicine of a particular expiry date present in a particular medical store \n    function medicineCount(/*string memory _medicineName, string memory _medicalStoreId, string memory _batchNo, string memory _expiryDate*/) view public returns(uint256){\n        //require(medicalStores[_medicalStoreId].exists, \"Medical store does not exist\");\n        //return medicines[_medicalStoreId][_batchNo].quantity;\n        medicineCountInMedicalStore[msg.sender];\n    }\n    \n    // function to return the number of invoices for a particular medical store\n    function invoicesCount(/*string memory _medicalStoreId*/) view public returns(uint256){\n        /*require(medicalStores[_medicalStoreId].exists, \"Medical store does not exist\");\n        return medicalStores[_medicalStoreId].invoices;*/\n        return myMedicalStores[msg.sender].invoices;\n    }\n    \n    // function to return the number of purchases for a particular medical store\n    function purchasesCount(/*string memory _medicalStoreId*/) view public returns(uint256){\n        /*require(medicalStores[_medicalStoreId].exists, \"Medical store does not exist\");\n        return medicalStores[_medicalStoreId].purchases;\n        */\n        return myMedicalStores[msg.sender].purchases;\n    }\n\n    // function to return all the medicines in a particular store\n    /*function getMedicines(string memory _medicalStoreId) view public returns(uint256) {\n        require(medicalStores[_medicalStoreId].exists, \"Medical store does not exist\");\n\n    }*/\n    \n}\n",
  "sourcePath": "C:\\Users\\Akshat\\Desktop\\MedImpact\\contracts\\MedImpact.sol",
  "compiler": {
    "name": "solc",
    "version": "0.5.16+commit.9c3226ce.Emscripten.clang"
  },
  "schemaVersion": "3.4.3",
  "updatedAt": "2021-12-12T14:28:00.088Z",
  "devdoc": {
    "methods": {}
  },
  "userdoc": {
    "methods": {}
  }
}