{
  "contractName": "MedImpact",
  "abi": [
    {
      "inputs": [],
      "payable": false,
      "stateMutability": "nonpayable",
      "type": "constructor"
    },
    {
      "constant": true,
      "inputs": [
        {
          "internalType": "address",
          "name": "",
          "type": "address"
        },
        {
          "internalType": "uint256",
          "name": "",
          "type": "uint256"
        }
      ],
      "name": "batchIdOfMedicine",
      "outputs": [
        {
          "internalType": "string",
          "name": "",
          "type": "string"
        }
      ],
      "payable": false,
      "stateMutability": "view",
      "type": "function"
    },
    {
      "constant": true,
      "inputs": [
        {
          "internalType": "address",
          "name": "",
          "type": "address"
        }
      ],
      "name": "medicalStores",
      "outputs": [
        {
          "internalType": "address",
          "name": "owner",
          "type": "address"
        },
        {
          "internalType": "string",
          "name": "ownerName",
          "type": "string"
        },
        {
          "internalType": "string",
          "name": "storeName",
          "type": "string"
        },
        {
          "internalType": "string",
          "name": "phoneno",
          "type": "string"
        },
        {
          "internalType": "string",
          "name": "ownerAddress",
          "type": "string"
        },
        {
          "internalType": "uint256",
          "name": "invoices",
          "type": "uint256"
        },
        {
          "internalType": "uint256",
          "name": "purchases",
          "type": "uint256"
        },
        {
          "internalType": "bool",
          "name": "exists",
          "type": "bool"
        }
      ],
      "payable": false,
      "stateMutability": "view",
      "type": "function"
    },
    {
      "constant": true,
      "inputs": [],
      "name": "medicalStoresCount",
      "outputs": [
        {
          "internalType": "uint256",
          "name": "",
          "type": "uint256"
        }
      ],
      "payable": false,
      "stateMutability": "view",
      "type": "function"
    },
    {
      "constant": true,
      "inputs": [
        {
          "internalType": "address",
          "name": "",
          "type": "address"
        }
      ],
      "name": "medicineCountInMedicalStore",
      "outputs": [
        {
          "internalType": "uint256",
          "name": "",
          "type": "uint256"
        }
      ],
      "payable": false,
      "stateMutability": "view",
      "type": "function"
    },
    {
      "constant": true,
      "inputs": [
        {
          "internalType": "address",
          "name": "",
          "type": "address"
        },
        {
          "internalType": "string",
          "name": "",
          "type": "string"
        }
      ],
      "name": "medicines",
      "outputs": [
        {
          "internalType": "string",
          "name": "name",
          "type": "string"
        },
        {
          "internalType": "uint256",
          "name": "rate",
          "type": "uint256"
        },
        {
          "internalType": "uint256",
          "name": "price",
          "type": "uint256"
        },
        {
          "internalType": "uint256",
          "name": "quantity",
          "type": "uint256"
        },
        {
          "internalType": "string",
          "name": "batchNo",
          "type": "string"
        },
        {
          "internalType": "string",
          "name": "manufactDate",
          "type": "string"
        },
        {
          "internalType": "string",
          "name": "expiryDate",
          "type": "string"
        },
        {
          "internalType": "bool",
          "name": "exists",
          "type": "bool"
        }
      ],
      "payable": false,
      "stateMutability": "view",
      "type": "function"
    },
    {
      "constant": false,
      "inputs": [
        {
          "internalType": "string",
          "name": "_ownerName",
          "type": "string"
        },
        {
          "internalType": "string",
          "name": "_medicalStoreName",
          "type": "string"
        },
        {
          "internalType": "string",
          "name": "_phoneno",
          "type": "string"
        },
        {
          "internalType": "string",
          "name": "_ownerAddress",
          "type": "string"
        }
      ],
      "name": "addMedicalStore",
      "outputs": [],
      "payable": false,
      "stateMutability": "nonpayable",
      "type": "function"
    },
    {
      "constant": false,
      "inputs": [
        {
          "internalType": "string",
          "name": "_medicineName",
          "type": "string"
        },
        {
          "internalType": "uint256",
          "name": "_rate",
          "type": "uint256"
        },
        {
          "internalType": "uint256",
          "name": "_price",
          "type": "uint256"
        },
        {
          "internalType": "uint256",
          "name": "_quantity",
          "type": "uint256"
        },
        {
          "internalType": "string",
          "name": "_batchNo",
          "type": "string"
        },
        {
          "internalType": "string",
          "name": "_manufactDate",
          "type": "string"
        },
        {
          "internalType": "string",
          "name": "_expiryDate",
          "type": "string"
        }
      ],
      "name": "addMedicine",
      "outputs": [],
      "payable": false,
      "stateMutability": "nonpayable",
      "type": "function"
    },
    {
      "constant": false,
      "inputs": [
        {
          "internalType": "uint256",
          "name": "_quantity",
          "type": "uint256"
        },
        {
          "internalType": "string",
          "name": "_batchNo",
          "type": "string"
        }
      ],
      "name": "purchaseMedicine",
      "outputs": [],
      "payable": false,
      "stateMutability": "nonpayable",
      "type": "function"
    },
    {
      "constant": false,
      "inputs": [
        {
          "internalType": "string",
          "name": "_billHash",
          "type": "string"
        }
      ],
      "name": "addBills",
      "outputs": [],
      "payable": false,
      "stateMutability": "nonpayable",
      "type": "function"
    },
    {
      "constant": true,
      "inputs": [],
      "name": "medicineCount",
      "outputs": [
        {
          "internalType": "uint256",
          "name": "",
          "type": "uint256"
        }
      ],
      "payable": false,
      "stateMutability": "view",
      "type": "function"
    },
    {
      "constant": true,
      "inputs": [],
      "name": "invoicesCount",
      "outputs": [
        {
          "internalType": "uint256",
          "name": "",
          "type": "uint256"
        }
      ],
      "payable": false,
      "stateMutability": "view",
      "type": "function"
    },
    {
      "constant": true,
      "inputs": [],
      "name": "purchasesCount",
      "outputs": [
        {
          "internalType": "uint256",
          "name": "",
          "type": "uint256"
        }
      ],
      "payable": false,
      "stateMutability": "view",
      "type": "function"
    }
  ],
  "bytecode": "0x608060405234801561001057600080fd5b5061221a806100206000396000f3fe608060405234801561001057600080fd5b50600436106100b35760003560e01c8063625a8e9111610071578063625a8e91146109915780636c2cd063146109af5780639258b18714610a74578063c3dbfbfc14610acc578063d352cb9914610aea578063d639731114610ba5576100b3565b80626e9e68146100b857806328adb13a146103385780633fcec935146103ff5780634dafd490146106b75780634e2d41db146106d55780635090408114610973575b600080fd5b610336600480360360808110156100ce57600080fd5b81019080803590602001906401000000008111156100eb57600080fd5b8201836020820111156100fd57600080fd5b8035906020019184600183028401116401000000008311171561011f57600080fd5b91908080601f016020809104026020016040519081016040528093929190818152602001838380828437600081840152601f19601f8201169050808301925050505050505091929192908035906020019064010000000081111561018257600080fd5b82018360208201111561019457600080fd5b803590602001918460018302840111640100000000831117156101b657600080fd5b91908080601f016020809104026020016040519081016040528093929190818152602001838380828437600081840152601f19601f8201169050808301925050505050505091929192908035906020019064010000000081111561021957600080fd5b82018360208201111561022b57600080fd5b8035906020019184600183028401116401000000008311171561024d57600080fd5b91908080601f016020809104026020016040519081016040528093929190818152602001838380828437600081840152601f19601f820116905080830192505050505050509192919290803590602001906401000000008111156102b057600080fd5b8201836020820111156102c257600080fd5b803590602001918460018302840111640100000000831117156102e457600080fd5b91908080601f016020809104026020016040519081016040528093929190818152602001838380828437600081840152601f19601f820116905080830192505050505050509192919290505050610df2565b005b6103846004803603604081101561034e57600080fd5b81019080803573ffffffffffffffffffffffffffffffffffffffff169060200190929190803590602001909291905050506111c2565b6040518080602001828103825283818151815260200191508051906020019080838360005b838110156103c45780820151818401526020810190506103a9565b50505050905090810190601f1680156103f15780820380516001836020036101000a031916815260200191505b509250505060405180910390f35b6104d86004803603604081101561041557600080fd5b81019080803573ffffffffffffffffffffffffffffffffffffffff1690602001909291908035906020019064010000000081111561045257600080fd5b82018360208201111561046457600080fd5b8035906020019184600183028401116401000000008311171561048657600080fd5b91908080601f016020809104026020016040519081016040528093929190818152602001838380828437600081840152601f19601f82011690508083019250505050505050919291929050505061127f565b60405180806020018981526020018881526020018781526020018060200180602001806020018615151515815260200185810385528d818151815260200191508051906020019080838360005b83811015610540578082015181840152602081019050610525565b50505050905090810190601f16801561056d5780820380516001836020036101000a031916815260200191505b50858103845289818151815260200191508051906020019080838360005b838110156105a657808201518184015260208101905061058b565b50505050905090810190601f1680156105d35780820380516001836020036101000a031916815260200191505b50858103835288818151815260200191508051906020019080838360005b8381101561060c5780820151818401526020810190506105f1565b50505050905090810190601f1680156106395780820380516001836020036101000a031916815260200191505b50858103825287818151815260200191508051906020019080838360005b83811015610672578082015181840152602081019050610657565b50505050905090810190601f16801561069f5780820380516001836020036101000a031916815260200191505b509c5050505050505050505050505060405180910390f35b6106bf611557565b6040518082815260200191505060405180910390f35b610971600480360360e08110156106eb57600080fd5b810190808035906020019064010000000081111561070857600080fd5b82018360208201111561071a57600080fd5b8035906020019184600183028401116401000000008311171561073c57600080fd5b91908080601f016020809104026020016040519081016040528093929190818152602001838380828437600081840152601f19601f820116905080830192505050505050509192919290803590602001909291908035906020019092919080359060200190929190803590602001906401000000008111156107bd57600080fd5b8201836020820111156107cf57600080fd5b803590602001918460018302840111640100000000831117156107f157600080fd5b91908080601f016020809104026020016040519081016040528093929190818152602001838380828437600081840152601f19601f8201169050808301925050505050505091929192908035906020019064010000000081111561085457600080fd5b82018360208201111561086657600080fd5b8035906020019184600183028401116401000000008311171561088857600080fd5b91908080601f016020809104026020016040519081016040528093929190818152602001838380828437600081840152601f19601f820116905080830192505050505050509192919290803590602001906401000000008111156108eb57600080fd5b8201836020820111156108fd57600080fd5b8035906020019184600183028401116401000000008311171561091f57600080fd5b91908080601f016020809104026020016040519081016040528093929190818152602001838380828437600081840152601f19601f82011690508083019250505050505050919291929050505061159c565b005b61097b61192c565b6040518082815260200191505060405180910390f35b610999611976565b6040518082815260200191505060405180910390f35b610a72600480360360408110156109c557600080fd5b8101908080359060200190929190803590602001906401000000008111156109ec57600080fd5b8201836020820111156109fe57600080fd5b80359060200191846001830284011164010000000083111715610a2057600080fd5b91908080601f016020809104026020016040519081016040528093929190818152602001838380828437600081840152601f19601f82011690508083019250505050505050919291929050505061197c565b005b610ab660048036036020811015610a8a57600080fd5b81019080803573ffffffffffffffffffffffffffffffffffffffff169060200190929190505050611c51565b6040518082815260200191505060405180910390f35b610ad4611c69565b6040518082815260200191505060405180910390f35b610ba360048036036020811015610b0057600080fd5b8101908080359060200190640100000000811115610b1d57600080fd5b820183602082011115610b2f57600080fd5b80359060200191846001830284011164010000000083111715610b5157600080fd5b91908080601f016020809104026020016040519081016040528093929190818152602001838380828437600081840152601f19601f820116905080830192505050505050509192919290505050611cb3565b005b610be760048036036020811015610bbb57600080fd5b81019080803573ffffffffffffffffffffffffffffffffffffffff169060200190929190505050611da9565b604051808973ffffffffffffffffffffffffffffffffffffffff1673ffffffffffffffffffffffffffffffffffffffff168152602001806020018060200180602001806020018881526020018781526020018615151515815260200185810385528c818151815260200191508051906020019080838360005b83811015610c7b578082015181840152602081019050610c60565b50505050905090810190601f168015610ca85780820380516001836020036101000a031916815260200191505b5085810384528b818151815260200191508051906020019080838360005b83811015610ce1578082015181840152602081019050610cc6565b50505050905090810190601f168015610d0e5780820380516001836020036101000a031916815260200191505b5085810383528a818151815260200191508051906020019080838360005b83811015610d47578082015181840152602081019050610d2c565b50505050905090810190601f168015610d745780820380516001836020036101000a031916815260200191505b50858103825289818151815260200191508051906020019080838360005b83811015610dad578082015181840152602081019050610d92565b50505050905090810190601f168015610dda5780820380516001836020036101000a031916815260200191505b509c5050505050505050505050505060405180910390f35b60001515600360003373ffffffffffffffffffffffffffffffffffffffff1673ffffffffffffffffffffffffffffffffffffffff16815260200190815260200160002060070160009054906101000a900460ff16151514610e9e576040517f08c379a00000000000000000000000000000000000000000000000000000000081526004018080602001828103825260218152602001806121a46021913960400191505060405180910390fd5b6007600081548092919060010191905055506040518061010001604052803373ffffffffffffffffffffffffffffffffffffffff168152602001858152602001848152602001838152602001828152602001600081526020016000815260200160011515815250600360003373ffffffffffffffffffffffffffffffffffffffff1673ffffffffffffffffffffffffffffffffffffffff16815260200190815260200160002060008201518160000160006101000a81548173ffffffffffffffffffffffffffffffffffffffff021916908373ffffffffffffffffffffffffffffffffffffffff1602179055506020820151816001019080519060200190610fa792919061207e565b506040820151816002019080519060200190610fc492919061207e565b506060820151816003019080519060200190610fe192919061207e565b506080820151816004019080519060200190610ffe92919061207e565b5060a0820151816005015560c0820151816006015560e08201518160070160006101000a81548160ff0219169083151502179055509050506040518061010001604052803373ffffffffffffffffffffffffffffffffffffffff168152602001858152602001848152602001838152602001828152602001600081526020016000815260200160011515815250600460003373ffffffffffffffffffffffffffffffffffffffff1673ffffffffffffffffffffffffffffffffffffffff16815260200190815260200160002060008201518160000160006101000a81548173ffffffffffffffffffffffffffffffffffffffff021916908373ffffffffffffffffffffffffffffffffffffffff160217905550602082015181600101908051906020019061112d92919061207e565b50604082015181600201908051906020019061114a92919061207e565b50606082015181600301908051906020019061116792919061207e565b50608082015181600401908051906020019061118492919061207e565b5060a0820151816005015560c0820151816006015560e08201518160070160006101000a81548160ff02191690831515021790555090505050505050565b6001602052816000526040600020602052806000526040600020600091509150508054600181600116156101000203166002900480601f0160208091040260200160405190810160405280929190818152602001828054600181600116156101000203166002900480156112775780601f1061124c57610100808354040283529160200191611277565b820191906000526020600020905b81548152906001019060200180831161125a57829003601f168201915b505050505081565b60006020528160005260406000208180516020810182018051848252602083016020850120818352809550505050505060009150915050806000018054600181600116156101000203166002900480601f01602080910402602001604051908101604052809291908181526020018280546001816001161561010002031660029004801561134e5780601f106113235761010080835404028352916020019161134e565b820191906000526020600020905b81548152906001019060200180831161133157829003601f168201915b505050505090806001015490806002015490806003015490806004018054600181600116156101000203166002900480601f0160208091040260200160405190810160405280929190818152602001828054600181600116156101000203166002900480156113fe5780601f106113d3576101008083540402835291602001916113fe565b820191906000526020600020905b8154815290600101906020018083116113e157829003601f168201915b505050505090806005018054600181600116156101000203166002900480601f01602080910402602001604051908101604052809291908181526020018280546001816001161561010002031660029004801561149c5780601f106114715761010080835404028352916020019161149c565b820191906000526020600020905b81548152906001019060200180831161147f57829003601f168201915b505050505090806006018054600181600116156101000203166002900480601f01602080910402602001604051908101604052809291908181526020018280546001816001161561010002031660029004801561153a5780601f1061150f5761010080835404028352916020019161153a565b820191906000526020600020905b81548152906001019060200180831161151d57829003601f168201915b5050505050908060070160009054906101000a900460ff16905088565b6000600260003373ffffffffffffffffffffffffffffffffffffffff1673ffffffffffffffffffffffffffffffffffffffff1681526020019081526020016000205090565b600084116115f5576040517f08c379a00000000000000000000000000000000000000000000000000000000081526004018080602001828103825260218152602001806121c56021913960400191505060405180910390fd5b600260003373ffffffffffffffffffffffffffffffffffffffff1673ffffffffffffffffffffffffffffffffffffffff1681526020019081526020016000206000815480929190600101919050555082600160003373ffffffffffffffffffffffffffffffffffffffff1673ffffffffffffffffffffffffffffffffffffffff1681526020019081526020016000206000600260003373ffffffffffffffffffffffffffffffffffffffff1673ffffffffffffffffffffffffffffffffffffffff16815260200190815260200160002054815260200190815260200160002090805190602001906116e79291906120fe565b50604051806101000160405280888152602001878152602001868152602001858152602001848152602001838152602001828152602001600115158152506000803373ffffffffffffffffffffffffffffffffffffffff1673ffffffffffffffffffffffffffffffffffffffff168152602001908152602001600020846040518082805190602001908083835b602083106117975780518252602082019150602081019050602083039250611774565b6001836020036101000a038019825116818451168082178552505050505050905001915050908152602001604051809103902060008201518160000190805190602001906117e692919061207e565b50602082015181600101556040820151816002015560608201518160030155608082015181600401908051906020019061182192919061207e565b5060a082015181600501908051906020019061183e92919061207e565b5060c082015181600601908051906020019061185b92919061207e565b5060e08201518160070160006101000a81548160ff021916908315150217905550905050600360003373ffffffffffffffffffffffffffffffffffffffff1673ffffffffffffffffffffffffffffffffffffffff16815260200190815260200160002060050160008154809291906001019190505550600460003373ffffffffffffffffffffffffffffffffffffffff1673ffffffffffffffffffffffffffffffffffffffff1681526020019081526020016000206005016000815480929190600101919050555050505050505050565b6000600460003373ffffffffffffffffffffffffffffffffffffffff1673ffffffffffffffffffffffffffffffffffffffff16815260200190815260200160002060060154905090565b60075481565b60008060003373ffffffffffffffffffffffffffffffffffffffff1673ffffffffffffffffffffffffffffffffffffffff168152602001908152602001600020826040518082805190602001908083835b602083106119f057805182526020820191506020810190506020830392506119cd565b6001836020036101000a03801982511681845116808217855250505050505090500191505090815260200160405180910390206003015411611a9a576040517f08c379a00000000000000000000000000000000000000000000000000000000081526004018080602001828103825260118152602001807f496e756666696369656e742073746f636b00000000000000000000000000000081525060200191505060405180910390fd5b60008211611af3576040517f08c379a00000000000000000000000000000000000000000000000000000000081526004018080602001828103825260218152602001806121c56021913960400191505060405180910390fd5b816000803373ffffffffffffffffffffffffffffffffffffffff1673ffffffffffffffffffffffffffffffffffffffff168152602001908152602001600020826040518082805190602001908083835b60208310611b665780518252602082019150602081019050602083039250611b43565b6001836020036101000a038019825116818451168082178552505050505050905001915050908152602001604051809103902060030160008282540392505081905550600360003373ffffffffffffffffffffffffffffffffffffffff1673ffffffffffffffffffffffffffffffffffffffff16815260200190815260200160002060060160008154809291906001019190505550600460003373ffffffffffffffffffffffffffffffffffffffff1673ffffffffffffffffffffffffffffffffffffffff168152602001908152602001600020600601600081548092919060010191905055505050565b60026020528060005260406000206000915090505481565b6000600460003373ffffffffffffffffffffffffffffffffffffffff1673ffffffffffffffffffffffffffffffffffffffff16815260200190815260200160002060050154905090565b600660003373ffffffffffffffffffffffffffffffffffffffff1673ffffffffffffffffffffffffffffffffffffffff1681526020019081526020016000206000815480929190600101919050555080600560003373ffffffffffffffffffffffffffffffffffffffff1673ffffffffffffffffffffffffffffffffffffffff1681526020019081526020016000206000600660003373ffffffffffffffffffffffffffffffffffffffff1673ffffffffffffffffffffffffffffffffffffffff1681526020019081526020016000205481526020019081526020016000209080519060200190611da59291906120fe565b5050565b60036020528060005260406000206000915090508060000160009054906101000a900473ffffffffffffffffffffffffffffffffffffffff1690806001018054600181600116156101000203166002900480601f016020809104026020016040519081016040528092919081815260200182805460018160011615610100020316600290048015611e7b5780601f10611e5057610100808354040283529160200191611e7b565b820191906000526020600020905b815481529060010190602001808311611e5e57829003601f168201915b505050505090806002018054600181600116156101000203166002900480601f016020809104026020016040519081016040528092919081815260200182805460018160011615610100020316600290048015611f195780601f10611eee57610100808354040283529160200191611f19565b820191906000526020600020905b815481529060010190602001808311611efc57829003601f168201915b505050505090806003018054600181600116156101000203166002900480601f016020809104026020016040519081016040528092919081815260200182805460018160011615610100020316600290048015611fb75780601f10611f8c57610100808354040283529160200191611fb7565b820191906000526020600020905b815481529060010190602001808311611f9a57829003601f168201915b505050505090806004018054600181600116156101000203166002900480601f0160208091040260200160405190810160405280929190818152602001828054600181600116156101000203166002900480156120555780601f1061202a57610100808354040283529160200191612055565b820191906000526020600020905b81548152906001019060200180831161203857829003601f168201915b5050505050908060050154908060060154908060070160009054906101000a900460ff16905088565b828054600181600116156101000203166002900490600052602060002090601f016020900481019282601f106120bf57805160ff19168380011785556120ed565b828001600101855582156120ed579182015b828111156120ec5782518255916020019190600101906120d1565b5b5090506120fa919061217e565b5090565b828054600181600116156101000203166002900490600052602060002090601f016020900481019282601f1061213f57805160ff191683800117855561216d565b8280016001018555821561216d579182015b8281111561216c578251825591602001919060010190612151565b5b50905061217a919061217e565b5090565b6121a091905b8082111561219c576000816000905550600101612184565b5090565b9056fe4d65646963616c2073746f7265206e616d6520616c7265616479206578697374735175616e746974792073686f756c642062652067726561746572207468616e2030a265627a7a7231582040a12b608627ddf0f144549d43078667cab238ff73e064757ce12325f5e4655b64736f6c63430005100032",
  "source": "// SPDX-License-Identifier: MIT\r\npragma solidity >=0.4.22 <=0.8.9;\r\n\r\ncontract MedImpact {\r\n    \r\n    // model MedicalStore\r\n    struct MedicalStore {\r\n        //uint256 latitude;\r\n        //uint256 longitude;\r\n        address owner;\r\n        string ownerName;\r\n        string storeName;\r\n        //string email;\r\n        string phoneno;\r\n        //string landmark;\r\n        //string city;\r\n        string ownerAddress;\r\n        //string pincode;\r\n        uint256 invoices;\r\n        uint256 purchases;\r\n        //string aadhaarCardHash;\r\n        bool exists;\r\n    }\r\n    \r\n    // model Medicine\r\n    struct Medicine {\r\n        string name;\r\n        uint256 rate;\r\n        uint256 price;\r\n        uint256 quantity;\r\n        string batchNo;\r\n        string manufactDate;\r\n        string expiryDate;\r\n        //string billHash;\r\n        bool exists;\r\n    }\r\n    \r\n    // map to store medicines\r\n    // medicalStoreId => medicineName => expiryDate => Medicine\r\n    //mapping(string => mapping(string => mapping(string => Medicine))) public medicines;\r\n\r\n    // map to store medicines\r\n    // owneraddress => batchId => Medicine\r\n    mapping(address => mapping(string => Medicine)) public medicines;\r\n\r\n    // map owneraddress => medicine count => batchNo\r\n    mapping(address => mapping(uint256 => string)) public batchIdOfMedicine;\r\n    \r\n    // map owneraddress => medicine count\r\n    mapping(address => uint256) public medicineCountInMedicalStore;\r\n    \r\n    // map to store medical stores\r\n    // owneraddress => MedicalStore\r\n    mapping(address => MedicalStore) public medicalStores;\r\n    \r\n    // map to store medical stores of a particular user\r\n    // owneraddress => MedicalStore\r\n    mapping(address => MedicalStore) myMedicalStores;\r\n\r\n    // map owneraddress => bill count => bills\r\n    mapping(address => mapping(uint256 => string)) myBills;\r\n\r\n    // map owneraddress => bill count\r\n    mapping(address => uint256) myBillsCount;\r\n\r\n\r\n    // store the number of medical stores\r\n    uint256 public medicalStoresCount;\r\n\r\n    constructor() public {\r\n        //addMedicalStore(\"Real Medicos\", \"realmedicos@gmail.com\", \"9976565437\", \"xyzhash\");\r\n    }\r\n\r\n    // function to add new medical store\r\n    function addMedicalStore(/*uint256 _latitude, uint256 _longitude,*/ string memory _ownerName, string memory _medicalStoreName,/* string memory _email,*/ string memory _phoneno, /*string memory _landmark, string memory _city,*/ string memory _ownerAddress /*string memory _pincode, string memory _aadhaarCardHash*/) public {\r\n        require(medicalStores[/*_medicalStoreId*/msg.sender].exists == false, \"Medical store name already exists\");\r\n        \r\n        medicalStoresCount++;\r\n        medicalStores[/*_medicalStoreId*/msg.sender] = MedicalStore(/*_latitude, _longitude,*/ msg.sender, _ownerName, _medicalStoreName,/* _email,*/ _phoneno,/* _landmark, _city,*/ _ownerAddress,/* _pincode,*/ 0, 0,/* _aadhaarCardHash,*/ true);\r\n        myMedicalStores[msg.sender] = MedicalStore(/*_latitude, _longitude,*/ msg.sender, _ownerName, _medicalStoreName,/* _email,*/ _phoneno,/* _landmark, _city,*/ _ownerAddress,/* _pincode,*/ 0, 0,/* _aadhaarCardHash,*/ true);\r\n    }\r\n\r\n    // function to add new stock of a specific medicine having a particular expiry date to a particular medical store\r\n    function addMedicine(/*string memory _medicalStoreId,*/ string memory _medicineName, uint256 _rate, uint256 _price, uint256 _quantity, string memory _batchNo, string memory _manufactDate, string memory _expiryDate/*, string memory _billHash*/) public {\r\n        //require(medicalStores[/*_medicalStoreId*/msg.sender].owner == msg.sender, \"You are not the owner of medical store\");\r\n        require(_quantity > 0, \"Quantity should be greater than 0\");\r\n        \r\n        /*if(medicines[_medicalStoreId][_medicineName][_expiryDate].exists){\r\n            medicines[_medicalStoreId][_medicineName][_expiryDate].quantity += _quantity;\r\n        }\r\n        else{\r\n            medicines[_medicalStoreId][_medicineName][_expiryDate] = Medicine( _medicineName, _price, _quantity, _expiryDate, _billHash, true);   \r\n        }*/\r\n        medicineCountInMedicalStore[/*_medicalStoreId*/msg.sender]++;\r\n        batchIdOfMedicine[/*_medicalStoreId*/msg.sender][ medicineCountInMedicalStore[/*_medicalStoreId*/msg.sender]] = _batchNo;\r\n        medicines[/*_medicalStoreId*/msg.sender][_batchNo] = Medicine(_medicineName, _rate, _price, _quantity, _batchNo, _manufactDate, _expiryDate,/* _billHash,*/ true);\r\n\r\n        medicalStores[/*_medicalStoreId*/msg.sender].invoices++;\r\n        myMedicalStores[msg.sender].invoices++;\r\n    }\r\n    \r\n    // function to purchase a specific medicine of a particular expiry date from a particular medical store\r\n    function purchaseMedicine(/*string memory _medicalStoreId, string memory _medicineName,*/ uint256 _quantity, string memory _batchNo/*, string memory _expiryDate*/) public {\r\n        //require(medicalStores[/*_medicalStoreId*/msg.sender].owner == msg.sender, \"You are not the owner of medical store\");\r\n        require(medicines[/*_medicalStoreId*/msg.sender][_batchNo].quantity > 0, \"Inufficient stock\");\r\n        require(_quantity > 0, \"Quantity should be greater than 0\");\r\n        \r\n        medicines[/*_medicalStoreId*/msg.sender][_batchNo].quantity -= _quantity;\r\n        medicalStores[/*_medicalStoreId*/msg.sender].purchases++;\r\n        myMedicalStores[msg.sender].purchases++;\r\n    }\r\n\r\n    function addBills(string memory _billHash) public {\r\n        myBillsCount[msg.sender]++;\r\n        myBills[msg.sender][myBillsCount[msg.sender]] = _billHash;\r\n    }\r\n    \r\n    // function to return the count of a specific medicine of a particular expiry date present in a particular medical store \r\n    function medicineCount(/*string memory _medicineName, string memory _medicalStoreId, string memory _batchNo, string memory _expiryDate*/) view public returns(uint256){\r\n        //require(medicalStores[_medicalStoreId].exists, \"Medical store does not exist\");\r\n        //return medicines[_medicalStoreId][_batchNo].quantity;\r\n        medicineCountInMedicalStore[msg.sender];\r\n    }\r\n    \r\n    // function to return the number of invoices for a particular medical store\r\n    function invoicesCount(/*string memory _medicalStoreId*/) view public returns(uint256){\r\n        /*require(medicalStores[_medicalStoreId].exists, \"Medical store does not exist\");\r\n        return medicalStores[_medicalStoreId].invoices;*/\r\n        return myMedicalStores[msg.sender].invoices;\r\n    }\r\n    \r\n    // function to return the number of purchases for a particular medical store\r\n    function purchasesCount(/*string memory _medicalStoreId*/) view public returns(uint256){\r\n        /*require(medicalStores[_medicalStoreId].exists, \"Medical store does not exist\");\r\n        return medicalStores[_medicalStoreId].purchases;\r\n        */\r\n        return myMedicalStores[msg.sender].purchases;\r\n    }\r\n\r\n    // function to return all the medicines in a particular store\r\n    /*function getMedicines(string memory _medicalStoreId) view public returns(uint256) {\r\n        require(medicalStores[_medicalStoreId].exists, \"Medical store does not exist\");\r\n\r\n    }*/\r\n    \r\n}\r\n",
  "sourcePath": "C:\\Users\\Akshat\\Desktop\\MedImpact\\contracts\\MedImpact.sol",
  "compiler": {
    "name": "solc",
    "version": "0.5.16+commit.9c3226ce.Emscripten.clang"
  },
  "schemaVersion": "3.4.3",
  "updatedAt": "2021-12-12T09:55:32.301Z",
  "devdoc": {
    "methods": {}
  },
  "userdoc": {
    "methods": {}
  }
}