{
  "contractName": "MedImpact",
  "abi": [
    {
      "inputs": [],
      "payable": false,
      "stateMutability": "nonpayable",
      "type": "constructor"
    },
    {
      "constant": true,
      "inputs": [
        {
          "internalType": "address",
          "name": "",
          "type": "address"
        },
        {
          "internalType": "uint256",
          "name": "",
          "type": "uint256"
        }
      ],
      "name": "batchIdOfMedicine",
      "outputs": [
        {
          "internalType": "string",
          "name": "",
          "type": "string"
        }
      ],
      "payable": false,
      "stateMutability": "view",
      "type": "function"
    },
    {
      "constant": true,
      "inputs": [
        {
          "internalType": "address",
          "name": "",
          "type": "address"
        }
      ],
      "name": "medicalStores",
      "outputs": [
        {
          "internalType": "address",
          "name": "owner",
          "type": "address"
        },
        {
          "internalType": "string",
          "name": "ownerName",
          "type": "string"
        },
        {
          "internalType": "string",
          "name": "storeName",
          "type": "string"
        },
        {
          "internalType": "string",
          "name": "phoneno",
          "type": "string"
        },
        {
          "internalType": "string",
          "name": "ownerAddress",
          "type": "string"
        },
        {
          "internalType": "uint256",
          "name": "invoices",
          "type": "uint256"
        },
        {
          "internalType": "uint256",
          "name": "purchases",
          "type": "uint256"
        },
        {
          "internalType": "bool",
          "name": "exists",
          "type": "bool"
        }
      ],
      "payable": false,
      "stateMutability": "view",
      "type": "function"
    },
    {
      "constant": true,
      "inputs": [],
      "name": "medicalStoresCount",
      "outputs": [
        {
          "internalType": "uint256",
          "name": "",
          "type": "uint256"
        }
      ],
      "payable": false,
      "stateMutability": "view",
      "type": "function"
    },
    {
      "constant": true,
      "inputs": [
        {
          "internalType": "address",
          "name": "",
          "type": "address"
        }
      ],
      "name": "medicineCountInMedicalStore",
      "outputs": [
        {
          "internalType": "uint256",
          "name": "",
          "type": "uint256"
        }
      ],
      "payable": false,
      "stateMutability": "view",
      "type": "function"
    },
    {
      "constant": true,
      "inputs": [
        {
          "internalType": "address",
          "name": "",
          "type": "address"
        },
        {
          "internalType": "string",
          "name": "",
          "type": "string"
        }
      ],
      "name": "medicines",
      "outputs": [
        {
          "internalType": "string",
          "name": "name",
          "type": "string"
        },
        {
          "internalType": "uint256",
          "name": "rate",
          "type": "uint256"
        },
        {
          "internalType": "uint256",
          "name": "price",
          "type": "uint256"
        },
        {
          "internalType": "uint256",
          "name": "quantity",
          "type": "uint256"
        },
        {
          "internalType": "string",
          "name": "batchNo",
          "type": "string"
        },
        {
          "internalType": "string",
          "name": "manufactDate",
          "type": "string"
        },
        {
          "internalType": "string",
          "name": "expiryDate",
          "type": "string"
        },
        {
          "internalType": "bool",
          "name": "exists",
          "type": "bool"
        }
      ],
      "payable": false,
      "stateMutability": "view",
      "type": "function"
    },
    {
      "constant": true,
      "inputs": [
        {
          "internalType": "address",
          "name": "",
          "type": "address"
        },
        {
          "internalType": "uint256",
          "name": "",
          "type": "uint256"
        }
      ],
      "name": "myBills",
      "outputs": [
        {
          "internalType": "string",
          "name": "",
          "type": "string"
        }
      ],
      "payable": false,
      "stateMutability": "view",
      "type": "function"
    },
    {
      "constant": true,
      "inputs": [
        {
          "internalType": "address",
          "name": "",
          "type": "address"
        }
      ],
      "name": "myBillsCount",
      "outputs": [
        {
          "internalType": "uint256",
          "name": "",
          "type": "uint256"
        }
      ],
      "payable": false,
      "stateMutability": "view",
      "type": "function"
    },
    {
      "constant": true,
      "inputs": [
        {
          "internalType": "address",
          "name": "",
          "type": "address"
        },
        {
          "internalType": "uint256",
          "name": "",
          "type": "uint256"
        }
      ],
      "name": "myInvoices",
      "outputs": [
        {
          "internalType": "string",
          "name": "",
          "type": "string"
        }
      ],
      "payable": false,
      "stateMutability": "view",
      "type": "function"
    },
    {
      "constant": true,
      "inputs": [
        {
          "internalType": "address",
          "name": "",
          "type": "address"
        }
      ],
      "name": "myInvoicesCount",
      "outputs": [
        {
          "internalType": "uint256",
          "name": "",
          "type": "uint256"
        }
      ],
      "payable": false,
      "stateMutability": "view",
      "type": "function"
    },
    {
      "constant": true,
      "inputs": [
        {
          "internalType": "address",
          "name": "",
          "type": "address"
        }
      ],
      "name": "myMedicalStores",
      "outputs": [
        {
          "internalType": "address",
          "name": "owner",
          "type": "address"
        },
        {
          "internalType": "string",
          "name": "ownerName",
          "type": "string"
        },
        {
          "internalType": "string",
          "name": "storeName",
          "type": "string"
        },
        {
          "internalType": "string",
          "name": "phoneno",
          "type": "string"
        },
        {
          "internalType": "string",
          "name": "ownerAddress",
          "type": "string"
        },
        {
          "internalType": "uint256",
          "name": "invoices",
          "type": "uint256"
        },
        {
          "internalType": "uint256",
          "name": "purchases",
          "type": "uint256"
        },
        {
          "internalType": "bool",
          "name": "exists",
          "type": "bool"
        }
      ],
      "payable": false,
      "stateMutability": "view",
      "type": "function"
    },
    {
      "constant": true,
      "inputs": [
        {
          "internalType": "address",
          "name": "",
          "type": "address"
        },
        {
          "internalType": "uint256",
          "name": "",
          "type": "uint256"
        }
      ],
      "name": "myMedicines",
      "outputs": [
        {
          "internalType": "string",
          "name": "name",
          "type": "string"
        },
        {
          "internalType": "uint256",
          "name": "rate",
          "type": "uint256"
        },
        {
          "internalType": "uint256",
          "name": "price",
          "type": "uint256"
        },
        {
          "internalType": "uint256",
          "name": "quantity",
          "type": "uint256"
        },
        {
          "internalType": "string",
          "name": "batchNo",
          "type": "string"
        },
        {
          "internalType": "string",
          "name": "manufactDate",
          "type": "string"
        },
        {
          "internalType": "string",
          "name": "expiryDate",
          "type": "string"
        },
        {
          "internalType": "bool",
          "name": "exists",
          "type": "bool"
        }
      ],
      "payable": false,
      "stateMutability": "view",
      "type": "function"
    },
    {
      "constant": false,
      "inputs": [
        {
          "internalType": "string",
          "name": "_ownerName",
          "type": "string"
        },
        {
          "internalType": "string",
          "name": "_medicalStoreName",
          "type": "string"
        },
        {
          "internalType": "string",
          "name": "_phoneno",
          "type": "string"
        },
        {
          "internalType": "string",
          "name": "_ownerAddress",
          "type": "string"
        }
      ],
      "name": "addMedicalStore",
      "outputs": [],
      "payable": false,
      "stateMutability": "nonpayable",
      "type": "function"
    },
    {
      "constant": false,
      "inputs": [
        {
          "internalType": "string",
          "name": "_medicineName",
          "type": "string"
        },
        {
          "internalType": "uint256",
          "name": "_rate",
          "type": "uint256"
        },
        {
          "internalType": "uint256",
          "name": "_price",
          "type": "uint256"
        },
        {
          "internalType": "uint256",
          "name": "_quantity",
          "type": "uint256"
        },
        {
          "internalType": "string",
          "name": "_batchNo",
          "type": "string"
        },
        {
          "internalType": "string",
          "name": "_manufactDate",
          "type": "string"
        },
        {
          "internalType": "string",
          "name": "_expiryDate",
          "type": "string"
        }
      ],
      "name": "addMedicine",
      "outputs": [],
      "payable": false,
      "stateMutability": "nonpayable",
      "type": "function"
    },
    {
      "constant": false,
      "inputs": [
        {
          "internalType": "uint256",
          "name": "_quantity",
          "type": "uint256"
        },
        {
          "internalType": "string",
          "name": "_batchNo",
          "type": "string"
        }
      ],
      "name": "purchaseMedicine",
      "outputs": [],
      "payable": false,
      "stateMutability": "nonpayable",
      "type": "function"
    },
    {
      "constant": false,
      "inputs": [
        {
          "internalType": "string",
          "name": "_billHash",
          "type": "string"
        }
      ],
      "name": "addBills",
      "outputs": [],
      "payable": false,
      "stateMutability": "nonpayable",
      "type": "function"
    },
    {
      "constant": false,
      "inputs": [
        {
          "internalType": "string",
          "name": "_invoiceHash",
          "type": "string"
        }
      ],
      "name": "addInvoices",
      "outputs": [],
      "payable": false,
      "stateMutability": "nonpayable",
      "type": "function"
    },
    {
      "constant": true,
      "inputs": [],
      "name": "medicineCount",
      "outputs": [
        {
          "internalType": "uint256",
          "name": "",
          "type": "uint256"
        }
      ],
      "payable": false,
      "stateMutability": "view",
      "type": "function"
    },
    {
      "constant": true,
      "inputs": [],
      "name": "invoicesCount",
      "outputs": [
        {
          "internalType": "uint256",
          "name": "",
          "type": "uint256"
        }
      ],
      "payable": false,
      "stateMutability": "view",
      "type": "function"
    },
    {
      "constant": true,
      "inputs": [],
      "name": "purchasesCount",
      "outputs": [
        {
          "internalType": "uint256",
          "name": "",
          "type": "uint256"
        }
      ],
      "payable": false,
      "stateMutability": "view",
      "type": "function"
    }
  ],
  "bytecode": "0x608060405234801561001057600080fd5b506133b2806100206000396000f3fe608060405234801561001057600080fd5b50600436106101205760003560e01c8063625a8e91116100ad578063b52189a411610071578063b52189a41461118b578063bac1ff8f14611252578063c3dbfbfc146112aa578063d352cb99146112c8578063d63973111461138357610120565b8063625a8e9114610dcd578063695b331d14610deb5780636c2cd063146110165780638e5729d9146110db5780639258b1871461113357610120565b8063462e1764116100f4578063462e1764146109715780634706016a14610a385780634dafd49014610af35780634e2d41db14610b115780635090408114610daf57610120565b80626e9e68146101255780630b659460146103a557806328adb13a146105f25780633fcec935146106b9575b600080fd5b6103a36004803603608081101561013b57600080fd5b810190808035906020019064010000000081111561015857600080fd5b82018360208201111561016a57600080fd5b8035906020019184600183028401116401000000008311171561018c57600080fd5b91908080601f016020809104026020016040519081016040528093929190818152602001838380828437600081840152601f19601f820116905080830192505050505050509192919290803590602001906401000000008111156101ef57600080fd5b82018360208201111561020157600080fd5b8035906020019184600183028401116401000000008311171561022357600080fd5b91908080601f016020809104026020016040519081016040528093929190818152602001838380828437600081840152601f19601f8201169050808301925050505050505091929192908035906020019064010000000081111561028657600080fd5b82018360208201111561029857600080fd5b803590602001918460018302840111640100000000831117156102ba57600080fd5b91908080601f016020809104026020016040519081016040528093929190818152602001838380828437600081840152601f19601f8201169050808301925050505050505091929192908035906020019064010000000081111561031d57600080fd5b82018360208201111561032f57600080fd5b8035906020019184600183028401116401000000008311171561035157600080fd5b91908080601f016020809104026020016040519081016040528093929190818152602001838380828437600081840152601f19601f8201169050808301925050505050505091929192905050506115d0565b005b6103e7600480360360208110156103bb57600080fd5b81019080803573ffffffffffffffffffffffffffffffffffffffff1690602001909291905050506119a0565b604051808973ffffffffffffffffffffffffffffffffffffffff1673ffffffffffffffffffffffffffffffffffffffff168152602001806020018060200180602001806020018881526020018781526020018615151515815260200185810385528c818151815260200191508051906020019080838360005b8381101561047b578082015181840152602081019050610460565b50505050905090810190601f1680156104a85780820380516001836020036101000a031916815260200191505b5085810384528b818151815260200191508051906020019080838360005b838110156104e15780820151818401526020810190506104c6565b50505050905090810190601f16801561050e5780820380516001836020036101000a031916815260200191505b5085810383528a818151815260200191508051906020019080838360005b8381101561054757808201518184015260208101905061052c565b50505050905090810190601f1680156105745780820380516001836020036101000a031916815260200191505b50858103825289818151815260200191508051906020019080838360005b838110156105ad578082015181840152602081019050610592565b50505050905090810190601f1680156105da5780820380516001836020036101000a031916815260200191505b509c5050505050505050505050505060405180910390f35b61063e6004803603604081101561060857600080fd5b81019080803573ffffffffffffffffffffffffffffffffffffffff16906020019092919080359060200190929190505050611c75565b6040518080602001828103825283818151815260200191508051906020019080838360005b8381101561067e578082015181840152602081019050610663565b50505050905090810190601f1680156106ab5780820380516001836020036101000a031916815260200191505b509250505060405180910390f35b610792600480360360408110156106cf57600080fd5b81019080803573ffffffffffffffffffffffffffffffffffffffff1690602001909291908035906020019064010000000081111561070c57600080fd5b82018360208201111561071e57600080fd5b8035906020019184600183028401116401000000008311171561074057600080fd5b91908080601f016020809104026020016040519081016040528093929190818152602001838380828437600081840152601f19601f820116905080830192505050505050509192919290505050611d32565b60405180806020018981526020018881526020018781526020018060200180602001806020018615151515815260200185810385528d818151815260200191508051906020019080838360005b838110156107fa5780820151818401526020810190506107df565b50505050905090810190601f1680156108275780820380516001836020036101000a031916815260200191505b50858103845289818151815260200191508051906020019080838360005b83811015610860578082015181840152602081019050610845565b50505050905090810190601f16801561088d5780820380516001836020036101000a031916815260200191505b50858103835288818151815260200191508051906020019080838360005b838110156108c65780820151818401526020810190506108ab565b50505050905090810190601f1680156108f35780820380516001836020036101000a031916815260200191505b50858103825287818151815260200191508051906020019080838360005b8381101561092c578082015181840152602081019050610911565b50505050905090810190601f1680156109595780820380516001836020036101000a031916815260200191505b509c5050505050505050505050505060405180910390f35b6109bd6004803603604081101561098757600080fd5b81019080803573ffffffffffffffffffffffffffffffffffffffff1690602001909291908035906020019092919050505061200a565b6040518080602001828103825283818151815260200191508051906020019080838360005b838110156109fd5780820151818401526020810190506109e2565b50505050905090810190601f168015610a2a5780820380516001836020036101000a031916815260200191505b509250505060405180910390f35b610af160048036036020811015610a4e57600080fd5b8101908080359060200190640100000000811115610a6b57600080fd5b820183602082011115610a7d57600080fd5b80359060200191846001830284011164010000000083111715610a9f57600080fd5b91908080601f016020809104026020016040519081016040528093929190818152602001838380828437600081840152601f19601f8201169050808301925050505050505091929192905050506120c7565b005b610afb6121bd565b6040518082815260200191505060405180910390f35b610dad600480360360e0811015610b2757600080fd5b8101908080359060200190640100000000811115610b4457600080fd5b820183602082011115610b5657600080fd5b80359060200191846001830284011164010000000083111715610b7857600080fd5b91908080601f016020809104026020016040519081016040528093929190818152602001838380828437600081840152601f19601f82011690508083019250505050505050919291929080359060200190929190803590602001909291908035906020019092919080359060200190640100000000811115610bf957600080fd5b820183602082011115610c0b57600080fd5b80359060200191846001830284011164010000000083111715610c2d57600080fd5b91908080601f016020809104026020016040519081016040528093929190818152602001838380828437600081840152601f19601f82011690508083019250505050505050919291929080359060200190640100000000811115610c9057600080fd5b820183602082011115610ca257600080fd5b80359060200191846001830284011164010000000083111715610cc457600080fd5b91908080601f016020809104026020016040519081016040528093929190818152602001838380828437600081840152601f19601f82011690508083019250505050505050919291929080359060200190640100000000811115610d2757600080fd5b820183602082011115610d3957600080fd5b80359060200191846001830284011164010000000083111715610d5b57600080fd5b91908080601f016020809104026020016040519081016040528093929190818152602001838380828437600081840152601f19601f820116905080830192505050505050509192919290505050612204565b005b610db7612715565b6040518082815260200191505060405180910390f35b610dd561275f565b6040518082815260200191505060405180910390f35b610e3760048036036040811015610e0157600080fd5b81019080803573ffffffffffffffffffffffffffffffffffffffff16906020019092919080359060200190929190505050612765565b60405180806020018981526020018881526020018781526020018060200180602001806020018615151515815260200185810385528d818151815260200191508051906020019080838360005b83811015610e9f578082015181840152602081019050610e84565b50505050905090810190601f168015610ecc5780820380516001836020036101000a031916815260200191505b50858103845289818151815260200191508051906020019080838360005b83811015610f05578082015181840152602081019050610eea565b50505050905090810190601f168015610f325780820380516001836020036101000a031916815260200191505b50858103835288818151815260200191508051906020019080838360005b83811015610f6b578082015181840152602081019050610f50565b50505050905090810190601f168015610f985780820380516001836020036101000a031916815260200191505b50858103825287818151815260200191508051906020019080838360005b83811015610fd1578082015181840152602081019050610fb6565b50505050905090810190601f168015610ffe5780820380516001836020036101000a031916815260200191505b509c5050505050505050505050505060405180910390f35b6110d96004803603604081101561102c57600080fd5b81019080803590602001909291908035906020019064010000000081111561105357600080fd5b82018360208201111561106557600080fd5b8035906020019184600183028401116401000000008311171561108757600080fd5b91908080601f016020809104026020016040519081016040528093929190818152602001838380828437600081840152601f19601f820116905080830192505050505050509192919290505050612a27565b005b61111d600480360360208110156110f157600080fd5b81019080803573ffffffffffffffffffffffffffffffffffffffff169060200190929190505050612cfc565b6040518082815260200191505060405180910390f35b6111756004803603602081101561114957600080fd5b81019080803573ffffffffffffffffffffffffffffffffffffffff169060200190929190505050612d14565b6040518082815260200191505060405180910390f35b6111d7600480360360408110156111a157600080fd5b81019080803573ffffffffffffffffffffffffffffffffffffffff16906020019092919080359060200190929190505050612d2c565b6040518080602001828103825283818151815260200191508051906020019080838360005b838110156112175780820151818401526020810190506111fc565b50505050905090810190601f1680156112445780820380516001836020036101000a031916815260200191505b509250505060405180910390f35b6112946004803603602081101561126857600080fd5b81019080803573ffffffffffffffffffffffffffffffffffffffff169060200190929190505050612de9565b6040518082815260200191505060405180910390f35b6112b2612e01565b6040518082815260200191505060405180910390f35b611381600480360360208110156112de57600080fd5b81019080803590602001906401000000008111156112fb57600080fd5b82018360208201111561130d57600080fd5b8035906020019184600183028401116401000000008311171561132f57600080fd5b91908080601f016020809104026020016040519081016040528093929190818152602001838380828437600081840152601f19601f820116905080830192505050505050509192919290505050612e4b565b005b6113c56004803603602081101561139957600080fd5b81019080803573ffffffffffffffffffffffffffffffffffffffff169060200190929190505050612f41565b604051808973ffffffffffffffffffffffffffffffffffffffff1673ffffffffffffffffffffffffffffffffffffffff168152602001806020018060200180602001806020018881526020018781526020018615151515815260200185810385528c818151815260200191508051906020019080838360005b8381101561145957808201518184015260208101905061143e565b50505050905090810190601f1680156114865780820380516001836020036101000a031916815260200191505b5085810384528b818151815260200191508051906020019080838360005b838110156114bf5780820151818401526020810190506114a4565b50505050905090810190601f1680156114ec5780820380516001836020036101000a031916815260200191505b5085810383528a818151815260200191508051906020019080838360005b8381101561152557808201518184015260208101905061150a565b50505050905090810190601f1680156115525780820380516001836020036101000a031916815260200191505b50858103825289818151815260200191508051906020019080838360005b8381101561158b578082015181840152602081019050611570565b50505050905090810190601f1680156115b85780820380516001836020036101000a031916815260200191505b509c5050505050505050505050505060405180910390f35b60001515600460003373ffffffffffffffffffffffffffffffffffffffff1673ffffffffffffffffffffffffffffffffffffffff16815260200190815260200160002060070160009054906101000a900460ff1615151461167c576040517f08c379a000000000000000000000000000000000000000000000000000000000815260040180806020018281038252602181526020018061333c6021913960400191505060405180910390fd5b600a600081548092919060010191905055506040518061010001604052803373ffffffffffffffffffffffffffffffffffffffff168152602001858152602001848152602001838152602001828152602001600081526020016000815260200160011515815250600460003373ffffffffffffffffffffffffffffffffffffffff1673ffffffffffffffffffffffffffffffffffffffff16815260200190815260200160002060008201518160000160006101000a81548173ffffffffffffffffffffffffffffffffffffffff021916908373ffffffffffffffffffffffffffffffffffffffff1602179055506020820151816001019080519060200190611785929190613216565b5060408201518160020190805190602001906117a2929190613216565b5060608201518160030190805190602001906117bf929190613216565b5060808201518160040190805190602001906117dc929190613216565b5060a0820151816005015560c0820151816006015560e08201518160070160006101000a81548160ff0219169083151502179055509050506040518061010001604052803373ffffffffffffffffffffffffffffffffffffffff168152602001858152602001848152602001838152602001828152602001600081526020016000815260200160011515815250600560003373ffffffffffffffffffffffffffffffffffffffff1673ffffffffffffffffffffffffffffffffffffffff16815260200190815260200160002060008201518160000160006101000a81548173ffffffffffffffffffffffffffffffffffffffff021916908373ffffffffffffffffffffffffffffffffffffffff160217905550602082015181600101908051906020019061190b929190613216565b506040820151816002019080519060200190611928929190613216565b506060820151816003019080519060200190611945929190613216565b506080820151816004019080519060200190611962929190613216565b5060a0820151816005015560c0820151816006015560e08201518160070160006101000a81548160ff02191690831515021790555090505050505050565b60056020528060005260406000206000915090508060000160009054906101000a900473ffffffffffffffffffffffffffffffffffffffff1690806001018054600181600116156101000203166002900480601f016020809104026020016040519081016040528092919081815260200182805460018160011615610100020316600290048015611a725780601f10611a4757610100808354040283529160200191611a72565b820191906000526020600020905b815481529060010190602001808311611a5557829003601f168201915b505050505090806002018054600181600116156101000203166002900480601f016020809104026020016040519081016040528092919081815260200182805460018160011615610100020316600290048015611b105780601f10611ae557610100808354040283529160200191611b10565b820191906000526020600020905b815481529060010190602001808311611af357829003601f168201915b505050505090806003018054600181600116156101000203166002900480601f016020809104026020016040519081016040528092919081815260200182805460018160011615610100020316600290048015611bae5780601f10611b8357610100808354040283529160200191611bae565b820191906000526020600020905b815481529060010190602001808311611b9157829003601f168201915b505050505090806004018054600181600116156101000203166002900480601f016020809104026020016040519081016040528092919081815260200182805460018160011615610100020316600290048015611c4c5780601f10611c2157610100808354040283529160200191611c4c565b820191906000526020600020905b815481529060010190602001808311611c2f57829003601f168201915b5050505050908060050154908060060154908060070160009054906101000a900460ff16905088565b6001602052816000526040600020602052806000526040600020600091509150508054600181600116156101000203166002900480601f016020809104026020016040519081016040528092919081815260200182805460018160011615610100020316600290048015611d2a5780601f10611cff57610100808354040283529160200191611d2a565b820191906000526020600020905b815481529060010190602001808311611d0d57829003601f168201915b505050505081565b60006020528160005260406000208180516020810182018051848252602083016020850120818352809550505050505060009150915050806000018054600181600116156101000203166002900480601f016020809104026020016040519081016040528092919081815260200182805460018160011615610100020316600290048015611e015780601f10611dd657610100808354040283529160200191611e01565b820191906000526020600020905b815481529060010190602001808311611de457829003601f168201915b505050505090806001015490806002015490806003015490806004018054600181600116156101000203166002900480601f016020809104026020016040519081016040528092919081815260200182805460018160011615610100020316600290048015611eb15780601f10611e8657610100808354040283529160200191611eb1565b820191906000526020600020905b815481529060010190602001808311611e9457829003601f168201915b505050505090806005018054600181600116156101000203166002900480601f016020809104026020016040519081016040528092919081815260200182805460018160011615610100020316600290048015611f4f5780601f10611f2457610100808354040283529160200191611f4f565b820191906000526020600020905b815481529060010190602001808311611f3257829003601f168201915b505050505090806006018054600181600116156101000203166002900480601f016020809104026020016040519081016040528092919081815260200182805460018160011615610100020316600290048015611fed5780601f10611fc257610100808354040283529160200191611fed565b820191906000526020600020905b815481529060010190602001808311611fd057829003601f168201915b5050505050908060070160009054906101000a900460ff16905088565b6006602052816000526040600020602052806000526040600020600091509150508054600181600116156101000203166002900480601f0160208091040260200160405190810160405280929190818152602001828054600181600116156101000203166002900480156120bf5780601f10612094576101008083540402835291602001916120bf565b820191906000526020600020905b8154815290600101906020018083116120a257829003601f168201915b505050505081565b600960003373ffffffffffffffffffffffffffffffffffffffff1673ffffffffffffffffffffffffffffffffffffffff1681526020019081526020016000206000815480929190600101919050555080600860003373ffffffffffffffffffffffffffffffffffffffff1673ffffffffffffffffffffffffffffffffffffffff1681526020019081526020016000206000600960003373ffffffffffffffffffffffffffffffffffffffff1673ffffffffffffffffffffffffffffffffffffffff16815260200190815260200160002054815260200190815260200160002090805190602001906121b9929190613296565b5050565b6000600260003373ffffffffffffffffffffffffffffffffffffffff1673ffffffffffffffffffffffffffffffffffffffff16815260200190815260200160002054905090565b6000841161225d576040517f08c379a000000000000000000000000000000000000000000000000000000000815260040180806020018281038252602181526020018061335d6021913960400191505060405180910390fd5b600260003373ffffffffffffffffffffffffffffffffffffffff1673ffffffffffffffffffffffffffffffffffffffff1681526020019081526020016000206000815480929190600101919050555060405180610100016040528088815260200187815260200186815260200185815260200184815260200183815260200182815260200160011515815250600360003373ffffffffffffffffffffffffffffffffffffffff1673ffffffffffffffffffffffffffffffffffffffff1681526020019081526020016000206000600260003373ffffffffffffffffffffffffffffffffffffffff1673ffffffffffffffffffffffffffffffffffffffff1681526020019081526020016000205481526020019081526020016000206000820151816000019080519060200190612394929190613216565b5060208201518160010155604082015181600201556060820151816003015560808201518160040190805190602001906123cf929190613216565b5060a08201518160050190805190602001906123ec929190613216565b5060c0820151816006019080519060200190612409929190613216565b5060e08201518160070160006101000a81548160ff02191690831515021790555090505082600160003373ffffffffffffffffffffffffffffffffffffffff1673ffffffffffffffffffffffffffffffffffffffff1681526020019081526020016000206000600260003373ffffffffffffffffffffffffffffffffffffffff1673ffffffffffffffffffffffffffffffffffffffff16815260200190815260200160002054815260200190815260200160002090805190602001906124d0929190613296565b50604051806101000160405280888152602001878152602001868152602001858152602001848152602001838152602001828152602001600115158152506000803373ffffffffffffffffffffffffffffffffffffffff1673ffffffffffffffffffffffffffffffffffffffff168152602001908152602001600020846040518082805190602001908083835b60208310612580578051825260208201915060208101905060208303925061255d565b6001836020036101000a038019825116818451168082178552505050505050905001915050908152602001604051809103902060008201518160000190805190602001906125cf929190613216565b50602082015181600101556040820151816002015560608201518160030155608082015181600401908051906020019061260a929190613216565b5060a0820151816005019080519060200190612627929190613216565b5060c0820151816006019080519060200190612644929190613216565b5060e08201518160070160006101000a81548160ff021916908315150217905550905050600460003373ffffffffffffffffffffffffffffffffffffffff1673ffffffffffffffffffffffffffffffffffffffff16815260200190815260200160002060050160008154809291906001019190505550600560003373ffffffffffffffffffffffffffffffffffffffff1673ffffffffffffffffffffffffffffffffffffffff1681526020019081526020016000206005016000815480929190600101919050555050505050505050565b6000600560003373ffffffffffffffffffffffffffffffffffffffff1673ffffffffffffffffffffffffffffffffffffffff16815260200190815260200160002060060154905090565b600a5481565b600360205281600052604060002060205280600052604060002060009150915050806000018054600181600116156101000203166002900480601f01602080910402602001604051908101604052809291908181526020018280546001816001161561010002031660029004801561281e5780601f106127f35761010080835404028352916020019161281e565b820191906000526020600020905b81548152906001019060200180831161280157829003601f168201915b505050505090806001015490806002015490806003015490806004018054600181600116156101000203166002900480601f0160208091040260200160405190810160405280929190818152602001828054600181600116156101000203166002900480156128ce5780601f106128a3576101008083540402835291602001916128ce565b820191906000526020600020905b8154815290600101906020018083116128b157829003601f168201915b505050505090806005018054600181600116156101000203166002900480601f01602080910402602001604051908101604052809291908181526020018280546001816001161561010002031660029004801561296c5780601f106129415761010080835404028352916020019161296c565b820191906000526020600020905b81548152906001019060200180831161294f57829003601f168201915b505050505090806006018054600181600116156101000203166002900480601f016020809104026020016040519081016040528092919081815260200182805460018160011615610100020316600290048015612a0a5780601f106129df57610100808354040283529160200191612a0a565b820191906000526020600020905b8154815290600101906020018083116129ed57829003601f168201915b5050505050908060070160009054906101000a900460ff16905088565b60008060003373ffffffffffffffffffffffffffffffffffffffff1673ffffffffffffffffffffffffffffffffffffffff168152602001908152602001600020826040518082805190602001908083835b60208310612a9b5780518252602082019150602081019050602083039250612a78565b6001836020036101000a03801982511681845116808217855250505050505090500191505090815260200160405180910390206003015411612b45576040517f08c379a00000000000000000000000000000000000000000000000000000000081526004018080602001828103825260118152602001807f496e756666696369656e742073746f636b00000000000000000000000000000081525060200191505060405180910390fd5b60008211612b9e576040517f08c379a000000000000000000000000000000000000000000000000000000000815260040180806020018281038252602181526020018061335d6021913960400191505060405180910390fd5b816000803373ffffffffffffffffffffffffffffffffffffffff1673ffffffffffffffffffffffffffffffffffffffff168152602001908152602001600020826040518082805190602001908083835b60208310612c115780518252602082019150602081019050602083039250612bee565b6001836020036101000a038019825116818451168082178552505050505050905001915050908152602001604051809103902060030160008282540392505081905550600460003373ffffffffffffffffffffffffffffffffffffffff1673ffffffffffffffffffffffffffffffffffffffff16815260200190815260200160002060060160008154809291906001019190505550600560003373ffffffffffffffffffffffffffffffffffffffff1673ffffffffffffffffffffffffffffffffffffffff168152602001908152602001600020600601600081548092919060010191905055505050565b60076020528060005260406000206000915090505481565b60026020528060005260406000206000915090505481565b6008602052816000526040600020602052806000526040600020600091509150508054600181600116156101000203166002900480601f016020809104026020016040519081016040528092919081815260200182805460018160011615610100020316600290048015612de15780601f10612db657610100808354040283529160200191612de1565b820191906000526020600020905b815481529060010190602001808311612dc457829003601f168201915b505050505081565b60096020528060005260406000206000915090505481565b6000600560003373ffffffffffffffffffffffffffffffffffffffff1673ffffffffffffffffffffffffffffffffffffffff16815260200190815260200160002060050154905090565b600760003373ffffffffffffffffffffffffffffffffffffffff1673ffffffffffffffffffffffffffffffffffffffff1681526020019081526020016000206000815480929190600101919050555080600660003373ffffffffffffffffffffffffffffffffffffffff1673ffffffffffffffffffffffffffffffffffffffff1681526020019081526020016000206000600760003373ffffffffffffffffffffffffffffffffffffffff1673ffffffffffffffffffffffffffffffffffffffff1681526020019081526020016000205481526020019081526020016000209080519060200190612f3d929190613296565b5050565b60046020528060005260406000206000915090508060000160009054906101000a900473ffffffffffffffffffffffffffffffffffffffff1690806001018054600181600116156101000203166002900480601f0160208091040260200160405190810160405280929190818152602001828054600181600116156101000203166002900480156130135780601f10612fe857610100808354040283529160200191613013565b820191906000526020600020905b815481529060010190602001808311612ff657829003601f168201915b505050505090806002018054600181600116156101000203166002900480601f0160208091040260200160405190810160405280929190818152602001828054600181600116156101000203166002900480156130b15780601f10613086576101008083540402835291602001916130b1565b820191906000526020600020905b81548152906001019060200180831161309457829003601f168201915b505050505090806003018054600181600116156101000203166002900480601f01602080910402602001604051908101604052809291908181526020018280546001816001161561010002031660029004801561314f5780601f106131245761010080835404028352916020019161314f565b820191906000526020600020905b81548152906001019060200180831161313257829003601f168201915b505050505090806004018054600181600116156101000203166002900480601f0160208091040260200160405190810160405280929190818152602001828054600181600116156101000203166002900480156131ed5780601f106131c2576101008083540402835291602001916131ed565b820191906000526020600020905b8154815290600101906020018083116131d057829003601f168201915b5050505050908060050154908060060154908060070160009054906101000a900460ff16905088565b828054600181600116156101000203166002900490600052602060002090601f016020900481019282601f1061325757805160ff1916838001178555613285565b82800160010185558215613285579182015b82811115613284578251825591602001919060010190613269565b5b5090506132929190613316565b5090565b828054600181600116156101000203166002900490600052602060002090601f016020900481019282601f106132d757805160ff1916838001178555613305565b82800160010185558215613305579182015b828111156133045782518255916020019190600101906132e9565b5b5090506133129190613316565b5090565b61333891905b8082111561333457600081600090555060010161331c565b5090565b9056fe4d65646963616c2073746f7265206e616d6520616c7265616479206578697374735175616e746974792073686f756c642062652067726561746572207468616e2030a265627a7a72315820616243ee5b555d0947c75502d23c9619aa12909cca9786605b3a63e63cacc64764736f6c63430005100032",
  "source": "// SPDX-License-Identifier: MIT\npragma solidity >=0.4.22 <=0.8.9;\n\ncontract MedImpact {\n    \n    // model MedicalStore\n    struct MedicalStore {\n        //uint256 latitude;\n        //uint256 longitude;\n        address owner;\n        string ownerName;\n        string storeName;\n        //string email;\n        string phoneno;\n        //string landmark;\n        //string city;\n        string ownerAddress;\n        //string pincode;\n        uint256 invoices;\n        uint256 purchases;\n        //string aadhaarCardHash;\n        bool exists;\n    }\n    \n    // model Medicine\n    struct Medicine {\n        string name;\n        uint256 rate;\n        uint256 price;\n        uint256 quantity;\n        string batchNo;\n        string manufactDate;\n        string expiryDate;\n        //string billHash;\n        bool exists;\n    }\n    \n    // map to store medicines\n    // medicalStoreId => medicineName => expiryDate => Medicine\n    //mapping(string => mapping(string => mapping(string => Medicine))) public medicines;\n\n    // map to store medicines\n    // owneraddress => batchId => Medicine\n    mapping(address => mapping(string => Medicine)) public medicines;\n\n    // map owneraddress => medicine count => batchNo\n    mapping(address => mapping(uint256 => string)) public batchIdOfMedicine;\n    \n    // map owneraddress => medicine count\n    mapping(address => uint256) public medicineCountInMedicalStore;\n\n    // map ownerAddress => medicineCount => medicine\n    mapping(address => mapping(uint256 => Medicine)) public myMedicines;\n    \n    // map to store medical stores\n    // owneraddress => MedicalStore\n    mapping(address => MedicalStore) public medicalStores;\n    \n    // map to store medical stores of a particular user\n    // owneraddress => MedicalStore\n    mapping(address => MedicalStore) public myMedicalStores;\n\n    // map owneraddress => bill count => bills\n    mapping(address => mapping(uint256 => string)) public myBills;\n\n    // map owneraddress => bill count\n    mapping(address => uint256) public myBillsCount;\n\n    // map owneraddress => invoices count => bills\n    mapping(address => mapping(uint256 => string)) public myInvoices;\n\n    // map owneraddress => invoices count\n    mapping(address => uint256) public myInvoicesCount;\n\n\n    // store the number of medical stores\n    uint256 public medicalStoresCount;\n\n    constructor() public {\n        //addMedicalStore(\"Real Medicos\", \"realmedicos@gmail.com\", \"9976565437\", \"xyzhash\");\n    }\n\n    // function to add new medical store\n    function addMedicalStore(/*uint256 _latitude, uint256 _longitude,*/ string memory _ownerName, string memory _medicalStoreName,/* string memory _email,*/ string memory _phoneno, /*string memory _landmark, string memory _city,*/ string memory _ownerAddress /*string memory _pincode, string memory _aadhaarCardHash*/) public {\n        require(medicalStores[/*_medicalStoreId*/msg.sender].exists == false, \"Medical store name already exists\");\n        \n        medicalStoresCount++;\n        medicalStores[/*_medicalStoreId*/msg.sender] = MedicalStore(/*_latitude, _longitude,*/ msg.sender, _ownerName, _medicalStoreName,/* _email,*/ _phoneno,/* _landmark, _city,*/ _ownerAddress,/* _pincode,*/ 0, 0,/* _aadhaarCardHash,*/ true);\n        myMedicalStores[msg.sender] = MedicalStore(/*_latitude, _longitude,*/ msg.sender, _ownerName, _medicalStoreName,/* _email,*/ _phoneno,/* _landmark, _city,*/ _ownerAddress,/* _pincode,*/ 0, 0,/* _aadhaarCardHash,*/ true);\n    }\n\n    // function to add new stock of a specific medicine having a particular expiry date to a particular medical store\n    function addMedicine(/*string memory _medicalStoreId,*/ string memory _medicineName, uint256 _rate, uint256 _price, uint256 _quantity, string memory _batchNo, string memory _manufactDate, string memory _expiryDate/*, string memory _billHash*/) public {\n        //require(medicalStores[/*_medicalStoreId*/msg.sender].owner == msg.sender, \"You are not the owner of medical store\");\n        require(_quantity > 0, \"Quantity should be greater than 0\");\n        \n        /*if(medicines[_medicalStoreId][_medicineName][_expiryDate].exists){\n            medicines[_medicalStoreId][_medicineName][_expiryDate].quantity += _quantity;\n        }\n        else{\n            medicines[_medicalStoreId][_medicineName][_expiryDate] = Medicine( _medicineName, _price, _quantity, _expiryDate, _billHash, true);   \n        }*/\n        medicineCountInMedicalStore[/*_medicalStoreId*/msg.sender]++;\n        myMedicines[msg.sender][medicineCountInMedicalStore[/*_medicalStoreId*/msg.sender]] = Medicine(_medicineName, _rate, _price, _quantity, _batchNo, _manufactDate, _expiryDate,/* _billHash,*/ true);\n        batchIdOfMedicine[/*_medicalStoreId*/msg.sender][ medicineCountInMedicalStore[/*_medicalStoreId*/msg.sender]] = _batchNo;\n        medicines[/*_medicalStoreId*/msg.sender][_batchNo] = Medicine(_medicineName, _rate, _price, _quantity, _batchNo, _manufactDate, _expiryDate,/* _billHash,*/ true);\n\n        medicalStores[/*_medicalStoreId*/msg.sender].invoices++;\n        myMedicalStores[msg.sender].invoices++;\n    }\n    \n    // function to purchase a specific medicine of a particular expiry date from a particular medical store\n    function purchaseMedicine(/*string memory _medicalStoreId, string memory _medicineName,*/ uint256 _quantity, string memory _batchNo/*, string memory _expiryDate*/) public {\n        //require(medicalStores[/*_medicalStoreId*/msg.sender].owner == msg.sender, \"You are not the owner of medical store\");\n        require(medicines[/*_medicalStoreId*/msg.sender][_batchNo].quantity > 0, \"Inufficient stock\");\n        require(_quantity > 0, \"Quantity should be greater than 0\");\n        \n        medicines[/*_medicalStoreId*/msg.sender][_batchNo].quantity -= _quantity;\n        medicalStores[/*_medicalStoreId*/msg.sender].purchases++;\n        myMedicalStores[msg.sender].purchases++;\n    }\n\n    function addBills(string memory _billHash) public {\n        myBillsCount[msg.sender]++;\n        myBills[msg.sender][myBillsCount[msg.sender]] = _billHash;\n    }\n\n    function addInvoices(string memory _invoiceHash) public {\n        myInvoicesCount[msg.sender]++;\n        myInvoices[msg.sender][myInvoicesCount[msg.sender]] = _invoiceHash;\n    }\n    \n    // function to return the count of a specific medicine of a particular expiry date present in a particular medical store \n    function medicineCount(/*string memory _medicineName, string memory _medicalStoreId, string memory _batchNo, string memory _expiryDate*/) view public returns(uint256){\n        //require(medicalStores[_medicalStoreId].exists, \"Medical store does not exist\");\n        //return medicines[_medicalStoreId][_batchNo].quantity;\n        return medicineCountInMedicalStore[msg.sender];\n    }\n    \n    // function to return the number of invoices for a particular medical store\n    function invoicesCount(/*string memory _medicalStoreId*/) view public returns(uint256){\n        /*require(medicalStores[_medicalStoreId].exists, \"Medical store does not exist\");\n        return medicalStores[_medicalStoreId].invoices;*/\n        return myMedicalStores[msg.sender].invoices;\n    }\n    \n    // function to return the number of purchases for a particular medical store\n    function purchasesCount(/*string memory _medicalStoreId*/) view public returns(uint256){\n        /*require(medicalStores[_medicalStoreId].exists, \"Medical store does not exist\");\n        return medicalStores[_medicalStoreId].purchases;\n        */\n        return myMedicalStores[msg.sender].purchases;\n    }\n\n    // function to return all the medicines in a particular store\n    /*function getMedicines(string memory _medicalStoreId) view public returns(uint256) {\n        require(medicalStores[_medicalStoreId].exists, \"Medical store does not exist\");\n\n    }*/\n    \n}\n",
  "sourcePath": "C:\\Users\\Akshat\\Desktop\\MedImpact\\contracts\\MedImpact.sol",
  "compiler": {
    "name": "solc",
    "version": "0.5.16+commit.9c3226ce.Emscripten.clang"
  },
  "schemaVersion": "3.4.3",
  "updatedAt": "2021-12-12T16:20:19.966Z",
  "devdoc": {
    "methods": {}
  },
  "userdoc": {
    "methods": {}
  }
}