{
  "contractName": "MedImpact",
  "abi": [
    {
      "inputs": [],
      "payable": false,
      "stateMutability": "nonpayable",
      "type": "constructor"
    },
    {
      "constant": true,
      "inputs": [
        {
          "internalType": "string",
          "name": "",
          "type": "string"
        },
        {
          "internalType": "uint256",
          "name": "",
          "type": "uint256"
        }
      ],
      "name": "batchIdOfMedicine",
      "outputs": [
        {
          "internalType": "string",
          "name": "",
          "type": "string"
        }
      ],
      "payable": false,
      "stateMutability": "view",
      "type": "function"
    },
    {
      "constant": true,
      "inputs": [
        {
          "internalType": "string",
          "name": "",
          "type": "string"
        }
      ],
      "name": "medicalStores",
      "outputs": [
        {
          "internalType": "address",
          "name": "owner",
          "type": "address"
        },
        {
          "internalType": "string",
          "name": "name",
          "type": "string"
        },
        {
          "internalType": "string",
          "name": "email",
          "type": "string"
        },
        {
          "internalType": "string",
          "name": "phoneno",
          "type": "string"
        },
        {
          "internalType": "uint256",
          "name": "invoices",
          "type": "uint256"
        },
        {
          "internalType": "uint256",
          "name": "purchases",
          "type": "uint256"
        },
        {
          "internalType": "string",
          "name": "aadhaarCardHash",
          "type": "string"
        },
        {
          "internalType": "bool",
          "name": "exists",
          "type": "bool"
        }
      ],
      "payable": false,
      "stateMutability": "view",
      "type": "function"
    },
    {
      "constant": true,
      "inputs": [],
      "name": "medicalStoresCount",
      "outputs": [
        {
          "internalType": "uint256",
          "name": "",
          "type": "uint256"
        }
      ],
      "payable": false,
      "stateMutability": "view",
      "type": "function"
    },
    {
      "constant": true,
      "inputs": [
        {
          "internalType": "string",
          "name": "",
          "type": "string"
        }
      ],
      "name": "medicineCountInMedicalStore",
      "outputs": [
        {
          "internalType": "uint256",
          "name": "",
          "type": "uint256"
        }
      ],
      "payable": false,
      "stateMutability": "view",
      "type": "function"
    },
    {
      "constant": true,
      "inputs": [
        {
          "internalType": "string",
          "name": "",
          "type": "string"
        },
        {
          "internalType": "string",
          "name": "",
          "type": "string"
        }
      ],
      "name": "medicines",
      "outputs": [
        {
          "internalType": "string",
          "name": "name",
          "type": "string"
        },
        {
          "internalType": "uint256",
          "name": "price",
          "type": "uint256"
        },
        {
          "internalType": "uint256",
          "name": "quantity",
          "type": "uint256"
        },
        {
          "internalType": "string",
          "name": "batchNo",
          "type": "string"
        },
        {
          "internalType": "string",
          "name": "expiryDate",
          "type": "string"
        },
        {
          "internalType": "string",
          "name": "billHash",
          "type": "string"
        },
        {
          "internalType": "bool",
          "name": "exists",
          "type": "bool"
        }
      ],
      "payable": false,
      "stateMutability": "view",
      "type": "function"
    },
    {
      "constant": false,
      "inputs": [
        {
          "internalType": "string",
          "name": "_medicalStoreId",
          "type": "string"
        },
        {
          "internalType": "string",
          "name": "_email",
          "type": "string"
        },
        {
          "internalType": "string",
          "name": "_phoneno",
          "type": "string"
        },
        {
          "internalType": "string",
          "name": "_aadhaarCardHash",
          "type": "string"
        }
      ],
      "name": "addMedicalStore",
      "outputs": [],
      "payable": false,
      "stateMutability": "nonpayable",
      "type": "function"
    },
    {
      "constant": false,
      "inputs": [
        {
          "internalType": "string",
          "name": "_medicalStoreId",
          "type": "string"
        },
        {
          "internalType": "string",
          "name": "_medicineName",
          "type": "string"
        },
        {
          "internalType": "uint256",
          "name": "_price",
          "type": "uint256"
        },
        {
          "internalType": "uint256",
          "name": "_quantity",
          "type": "uint256"
        },
        {
          "internalType": "string",
          "name": "_batchNo",
          "type": "string"
        },
        {
          "internalType": "string",
          "name": "_expiryDate",
          "type": "string"
        },
        {
          "internalType": "string",
          "name": "_billHash",
          "type": "string"
        }
      ],
      "name": "addMedicine",
      "outputs": [],
      "payable": false,
      "stateMutability": "nonpayable",
      "type": "function"
    },
    {
      "constant": false,
      "inputs": [
        {
          "internalType": "string",
          "name": "_medicalStoreId",
          "type": "string"
        },
        {
          "internalType": "string",
          "name": "_medicineName",
          "type": "string"
        },
        {
          "internalType": "uint256",
          "name": "_quantity",
          "type": "uint256"
        },
        {
          "internalType": "string",
          "name": "_batchNo",
          "type": "string"
        }
      ],
      "name": "purchaseMedicine",
      "outputs": [],
      "payable": false,
      "stateMutability": "nonpayable",
      "type": "function"
    },
    {
      "constant": true,
      "inputs": [
        {
          "internalType": "string",
          "name": "_medicineName",
          "type": "string"
        },
        {
          "internalType": "string",
          "name": "_medicalStoreId",
          "type": "string"
        },
        {
          "internalType": "string",
          "name": "_batchNo",
          "type": "string"
        }
      ],
      "name": "medicineCount",
      "outputs": [
        {
          "internalType": "uint256",
          "name": "",
          "type": "uint256"
        }
      ],
      "payable": false,
      "stateMutability": "view",
      "type": "function"
    },
    {
      "constant": true,
      "inputs": [],
      "name": "invoicesCount",
      "outputs": [
        {
          "internalType": "uint256",
          "name": "",
          "type": "uint256"
        }
      ],
      "payable": false,
      "stateMutability": "view",
      "type": "function"
    },
    {
      "constant": true,
      "inputs": [],
      "name": "purchasesCount",
      "outputs": [
        {
          "internalType": "uint256",
          "name": "",
          "type": "uint256"
        }
      ],
      "payable": false,
      "stateMutability": "view",
      "type": "function"
    }
  ],
  "bytecode": "0x608060405234801561001057600080fd5b50612b81806100206000396000f3fe608060405234801561001057600080fd5b50600436106100a75760003560e01c806362328dc61161007157806362328dc614610b29578063625a8e9114610e545780639813b7fc14610e72578063bee8b5421461106f578063c3dbfbfc146111ad578063ca95bdfe146111cb576100a7565b80624e5e19146100ac5780626e9e681461029f5780631dc0dbaf1461051f57806344925cbf146108475780635090408114610b0b575b600080fd5b61029d600480360360808110156100c257600080fd5b81019080803590602001906401000000008111156100df57600080fd5b8201836020820111156100f157600080fd5b8035906020019184600183028401116401000000008311171561011357600080fd5b91908080601f016020809104026020016040519081016040528093929190818152602001838380828437600081840152601f19601f8201169050808301925050505050505091929192908035906020019064010000000081111561017657600080fd5b82018360208201111561018857600080fd5b803590602001918460018302840111640100000000831117156101aa57600080fd5b91908080601f016020809104026020016040519081016040528093929190818152602001838380828437600081840152601f19601f820116905080830192505050505050509192919290803590602001909291908035906020019064010000000081111561021757600080fd5b82018360208201111561022957600080fd5b8035906020019184600183028401116401000000008311171561024b57600080fd5b91908080601f016020809104026020016040519081016040528093929190818152602001838380828437600081840152601f19601f82011690508083019250505050505050919291929050505061129a565b005b61051d600480360360808110156102b557600080fd5b81019080803590602001906401000000008111156102d257600080fd5b8201836020820111156102e457600080fd5b8035906020019184600183028401116401000000008311171561030657600080fd5b91908080601f016020809104026020016040519081016040528093929190818152602001838380828437600081840152601f19601f8201169050808301925050505050505091929192908035906020019064010000000081111561036957600080fd5b82018360208201111561037b57600080fd5b8035906020019184600183028401116401000000008311171561039d57600080fd5b91908080601f016020809104026020016040519081016040528093929190818152602001838380828437600081840152601f19601f8201169050808301925050505050505091929192908035906020019064010000000081111561040057600080fd5b82018360208201111561041257600080fd5b8035906020019184600183028401116401000000008311171561043457600080fd5b91908080601f016020809104026020016040519081016040528093929190818152602001838380828437600081840152601f19601f8201169050808301925050505050505091929192908035906020019064010000000081111561049757600080fd5b8201836020820111156104a957600080fd5b803590602001918460018302840111640100000000831117156104cb57600080fd5b91908080601f016020809104026020016040519081016040528093929190818152602001838380828437600081840152601f19601f820116905080830192505050505050509192919290505050611700565b005b61066f6004803603604081101561053557600080fd5b810190808035906020019064010000000081111561055257600080fd5b82018360208201111561056457600080fd5b8035906020019184600183028401116401000000008311171561058657600080fd5b91908080601f016020809104026020016040519081016040528093929190818152602001838380828437600081840152601f19601f820116905080830192505050505050509192919290803590602001906401000000008111156105e957600080fd5b8201836020820111156105fb57600080fd5b8035906020019184600183028401116401000000008311171561061d57600080fd5b91908080601f016020809104026020016040519081016040528093929190818152602001838380828437600081840152601f19601f820116905080830192505050505050509192919290505050611b24565b60405180806020018881526020018781526020018060200180602001806020018615151515815260200185810385528c818151815260200191508051906020019080838360005b838110156106d15780820151818401526020810190506106b6565b50505050905090810190601f1680156106fe5780820380516001836020036101000a031916815260200191505b50858103845289818151815260200191508051906020019080838360005b8381101561073757808201518184015260208101905061071c565b50505050905090810190601f1680156107645780820380516001836020036101000a031916815260200191505b50858103835288818151815260200191508051906020019080838360005b8381101561079d578082015181840152602081019050610782565b50505050905090810190601f1680156107ca5780820380516001836020036101000a031916815260200191505b50858103825287818151815260200191508051906020019080838360005b838110156108035780820151818401526020810190506107e8565b50505050905090810190601f1680156108305780820380516001836020036101000a031916815260200191505b509b50505050505050505050505060405180910390f35b6109006004803603602081101561085d57600080fd5b810190808035906020019064010000000081111561087a57600080fd5b82018360208201111561088c57600080fd5b803590602001918460018302840111640100000000831117156108ae57600080fd5b91908080601f016020809104026020016040519081016040528093929190818152602001838380828437600081840152601f19601f820116905080830192505050505050509192919290505050611e0c565b604051808973ffffffffffffffffffffffffffffffffffffffff1673ffffffffffffffffffffffffffffffffffffffff168152602001806020018060200180602001888152602001878152602001806020018615151515815260200185810385528c818151815260200191508051906020019080838360005b83811015610994578082015181840152602081019050610979565b50505050905090810190601f1680156109c15780820380516001836020036101000a031916815260200191505b5085810384528b818151815260200191508051906020019080838360005b838110156109fa5780820151818401526020810190506109df565b50505050905090810190601f168015610a275780820380516001836020036101000a031916815260200191505b5085810383528a818151815260200191508051906020019080838360005b83811015610a60578082015181840152602081019050610a45565b50505050905090810190601f168015610a8d5780820380516001836020036101000a031916815260200191505b50858103825287818151815260200191508051906020019080838360005b83811015610ac6578082015181840152602081019050610aab565b50505050905090810190601f168015610af35780820380516001836020036101000a031916815260200191505b509c5050505050505050505050505060405180910390f35b610b136120f7565b6040518082815260200191505060405180910390f35b610e52600480360360e0811015610b3f57600080fd5b8101908080359060200190640100000000811115610b5c57600080fd5b820183602082011115610b6e57600080fd5b80359060200191846001830284011164010000000083111715610b9057600080fd5b91908080601f016020809104026020016040519081016040528093929190818152602001838380828437600081840152601f19601f82011690508083019250505050505050919291929080359060200190640100000000811115610bf357600080fd5b820183602082011115610c0557600080fd5b80359060200191846001830284011164010000000083111715610c2757600080fd5b91908080601f016020809104026020016040519081016040528093929190818152602001838380828437600081840152601f19601f820116905080830192505050505050509192919290803590602001909291908035906020019092919080359060200190640100000000811115610c9e57600080fd5b820183602082011115610cb057600080fd5b80359060200191846001830284011164010000000083111715610cd257600080fd5b91908080601f016020809104026020016040519081016040528093929190818152602001838380828437600081840152601f19601f82011690508083019250505050505050919291929080359060200190640100000000811115610d3557600080fd5b820183602082011115610d4757600080fd5b80359060200191846001830284011164010000000083111715610d6957600080fd5b91908080601f016020809104026020016040519081016040528093929190818152602001838380828437600081840152601f19601f82011690508083019250505050505050919291929080359060200190640100000000811115610dcc57600080fd5b820183602082011115610dde57600080fd5b80359060200191846001830284011164010000000083111715610e0057600080fd5b91908080601f016020809104026020016040519081016040528093929190818152602001838380828437600081840152601f19601f820116905080830192505050505050509192919290505050612141565b005b610e5c6126a3565b6040518082815260200191505060405180910390f35b61105960048036036060811015610e8857600080fd5b8101908080359060200190640100000000811115610ea557600080fd5b820183602082011115610eb757600080fd5b80359060200191846001830284011164010000000083111715610ed957600080fd5b91908080601f016020809104026020016040519081016040528093929190818152602001838380828437600081840152601f19601f82011690508083019250505050505050919291929080359060200190640100000000811115610f3c57600080fd5b820183602082011115610f4e57600080fd5b80359060200191846001830284011164010000000083111715610f7057600080fd5b91908080601f016020809104026020016040519081016040528093929190818152602001838380828437600081840152601f19601f82011690508083019250505050505050919291929080359060200190640100000000811115610fd357600080fd5b820183602082011115610fe557600080fd5b8035906020019184600183028401116401000000008311171561100757600080fd5b91908080601f016020809104026020016040519081016040528093929190818152602001838380828437600081840152601f19601f8201169050808301925050505050505091929192905050506126a9565b6040518082815260200191505060405180910390f35b6111326004803603604081101561108557600080fd5b81019080803590602001906401000000008111156110a257600080fd5b8201836020820111156110b457600080fd5b803590602001918460018302840111640100000000831117156110d657600080fd5b91908080601f016020809104026020016040519081016040528093929190818152602001838380828437600081840152601f19601f82011690508083019250505050505050919291929080359060200190929190505050612874565b6040518080602001828103825283818151815260200191508051906020019080838360005b83811015611172578082015181840152602081019050611157565b50505050905090810190601f16801561119f5780820380516001836020036101000a031916815260200191505b509250505060405180910390f35b6111b5612947565b6040518082815260200191505060405180910390f35b611284600480360360208110156111e157600080fd5b81019080803590602001906401000000008111156111fe57600080fd5b82018360208201111561121057600080fd5b8035906020019184600183028401116401000000008311171561123257600080fd5b91908080601f016020809104026020016040519081016040528093929190818152602001838380828437600081840152601f19601f820116905080830192505050505050509192919290505050612991565b6040518082815260200191505060405180910390f35b3373ffffffffffffffffffffffffffffffffffffffff166003856040518082805190602001908083835b602083106112e757805182526020820191506020810190506020830392506112c4565b6001836020036101000a038019825116818451168082178552505050505050905001915050908152602001604051809103902060000160009054906101000a900473ffffffffffffffffffffffffffffffffffffffff1673ffffffffffffffffffffffffffffffffffffffff16146113aa576040517f08c379a0000000000000000000000000000000000000000000000000000000008152600401808060200182810382526026815260200180612b066026913960400191505060405180910390fd5b600080856040518082805190602001908083835b602083106113e157805182526020820191506020810190506020830392506113be565b6001836020036101000a0380198251168184511680821785525050505050509050019150509081526020016040518091039020826040518082805190602001908083835b602083106114485780518252602082019150602081019050602083039250611425565b6001836020036101000a038019825116818451168082178552505050505050905001915050908152602001604051809103902060020154116114f2576040517f08c379a00000000000000000000000000000000000000000000000000000000081526004018080602001828103825260118152602001807f496e756666696369656e742073746f636b00000000000000000000000000000081525060200191505060405180910390fd5b6000821161154b576040517f08c379a0000000000000000000000000000000000000000000000000000000008152600401808060200182810382526021815260200180612b2c6021913960400191505060405180910390fd5b816000856040518082805190602001908083835b60208310611582578051825260208201915060208101905060208303925061155f565b6001836020036101000a0380198251168184511680821785525050505050509050019150509081526020016040518091039020826040518082805190602001908083835b602083106115e957805182526020820191506020810190506020830392506115c6565b6001836020036101000a0380198251168184511680821785525050505050509050019150509081526020016040518091039020600201600082825403925050819055506003846040518082805190602001908083835b60208310611662578051825260208201915060208101905060208303925061163f565b6001836020036101000a038019825116818451168082178552505050505050905001915050908152602001604051809103902060050160008154809291906001019190505550600460003373ffffffffffffffffffffffffffffffffffffffff1673ffffffffffffffffffffffffffffffffffffffff1681526020019081526020016000206005016000815480929190600101919050555050505050565b600015156003856040518082805190602001908083835b6020831061173a5780518252602082019150602081019050602083039250611717565b6001836020036101000a038019825116818451168082178552505050505050905001915050908152602001604051809103902060070160009054906101000a900460ff161515146117d6576040517f08c379a0000000000000000000000000000000000000000000000000000000008152600401808060200182810382526021815260200180612ae56021913960400191505060405180910390fd5b6005600081548092919060010191905055506040518061010001604052803373ffffffffffffffffffffffffffffffffffffffff1681526020018581526020018481526020018381526020016000815260200160008152602001828152602001600115158152506003856040518082805190602001908083835b602083106118735780518252602082019150602081019050602083039250611850565b6001836020036101000a038019825116818451168082178552505050505050905001915050908152602001604051809103902060008201518160000160006101000a81548173ffffffffffffffffffffffffffffffffffffffff021916908373ffffffffffffffffffffffffffffffffffffffff16021790555060208201518160010190805190602001906119099291906129bf565b5060408201518160020190805190602001906119269291906129bf565b5060608201518160030190805190602001906119439291906129bf565b506080820151816004015560a0820151816005015560c08201518160060190805190602001906119749291906129bf565b5060e08201518160070160006101000a81548160ff0219169083151502179055509050506040518061010001604052803373ffffffffffffffffffffffffffffffffffffffff168152602001858152602001848152602001838152602001600081526020016000815260200182815260200160011515815250600460003373ffffffffffffffffffffffffffffffffffffffff1673ffffffffffffffffffffffffffffffffffffffff16815260200190815260200160002060008201518160000160006101000a81548173ffffffffffffffffffffffffffffffffffffffff021916908373ffffffffffffffffffffffffffffffffffffffff1602179055506020820151816001019080519060200190611a8f9291906129bf565b506040820151816002019080519060200190611aac9291906129bf565b506060820151816003019080519060200190611ac99291906129bf565b506080820151816004015560a0820151816005015560c0820151816006019080519060200190611afa9291906129bf565b5060e08201518160070160006101000a81548160ff02191690831515021790555090505050505050565b6000828051602081018201805184825260208301602085012081835280955050505050508180516020810182018051848252602083016020850120818352809550505050505060009150915050806000018054600181600116156101000203166002900480601f016020809104026020016040519081016040528092919081815260200182805460018160011615610100020316600290048015611c095780601f10611bde57610100808354040283529160200191611c09565b820191906000526020600020905b815481529060010190602001808311611bec57829003601f168201915b505050505090806001015490806002015490806003018054600181600116156101000203166002900480601f016020809104026020016040519081016040528092919081815260200182805460018160011615610100020316600290048015611cb35780601f10611c8857610100808354040283529160200191611cb3565b820191906000526020600020905b815481529060010190602001808311611c9657829003601f168201915b505050505090806004018054600181600116156101000203166002900480601f016020809104026020016040519081016040528092919081815260200182805460018160011615610100020316600290048015611d515780601f10611d2657610100808354040283529160200191611d51565b820191906000526020600020905b815481529060010190602001808311611d3457829003601f168201915b505050505090806005018054600181600116156101000203166002900480601f016020809104026020016040519081016040528092919081815260200182805460018160011615610100020316600290048015611def5780601f10611dc457610100808354040283529160200191611def565b820191906000526020600020905b815481529060010190602001808311611dd257829003601f168201915b5050505050908060060160009054906101000a900460ff16905087565b6003818051602081018201805184825260208301602085012081835280955050505050506000915090508060000160009054906101000a900473ffffffffffffffffffffffffffffffffffffffff1690806001018054600181600116156101000203166002900480601f016020809104026020016040519081016040528092919081815260200182805460018160011615610100020316600290048015611ef45780601f10611ec957610100808354040283529160200191611ef4565b820191906000526020600020905b815481529060010190602001808311611ed757829003601f168201915b505050505090806002018054600181600116156101000203166002900480601f016020809104026020016040519081016040528092919081815260200182805460018160011615610100020316600290048015611f925780601f10611f6757610100808354040283529160200191611f92565b820191906000526020600020905b815481529060010190602001808311611f7557829003601f168201915b505050505090806003018054600181600116156101000203166002900480601f0160208091040260200160405190810160405280929190818152602001828054600181600116156101000203166002900480156120305780601f1061200557610100808354040283529160200191612030565b820191906000526020600020905b81548152906001019060200180831161201357829003601f168201915b505050505090806004015490806005015490806006018054600181600116156101000203166002900480601f0160208091040260200160405190810160405280929190818152602001828054600181600116156101000203166002900480156120da5780601f106120af576101008083540402835291602001916120da565b820191906000526020600020905b8154815290600101906020018083116120bd57829003601f168201915b5050505050908060070160009054906101000a900460ff16905088565b6000600460003373ffffffffffffffffffffffffffffffffffffffff1673ffffffffffffffffffffffffffffffffffffffff16815260200190815260200160002060050154905090565b3373ffffffffffffffffffffffffffffffffffffffff166003886040518082805190602001908083835b6020831061218e578051825260208201915060208101905060208303925061216b565b6001836020036101000a038019825116818451168082178552505050505050905001915050908152602001604051809103902060000160009054906101000a900473ffffffffffffffffffffffffffffffffffffffff1673ffffffffffffffffffffffffffffffffffffffff1614612251576040517f08c379a0000000000000000000000000000000000000000000000000000000008152600401808060200182810382526026815260200180612b066026913960400191505060405180910390fd5b600084116122aa576040517f08c379a0000000000000000000000000000000000000000000000000000000008152600401808060200182810382526021815260200180612b2c6021913960400191505060405180910390fd5b6002876040518082805190602001908083835b602083106122e057805182526020820191506020810190506020830392506122bd565b6001836020036101000a038019825116818451168082178552505050505050905001915050908152602001604051809103902060008154809291906001019190505550826001886040518082805190602001908083835b6020831061235a5780518252602082019150602081019050602083039250612337565b6001836020036101000a0380198251168184511680821785525050505050509050019150509081526020016040518091039020600060028a6040518082805190602001908083835b602083106123c557805182526020820191506020810190506020830392506123a2565b6001836020036101000a0380198251168184511680821785525050505050509050019150509081526020016040518091039020548152602001908152602001600020908051906020019061241a929190612a3f565b506040518060e00160405280878152602001868152602001858152602001848152602001838152602001828152602001600115158152506000886040518082805190602001908083835b602083106124875780518252602082019150602081019050602083039250612464565b6001836020036101000a0380198251168184511680821785525050505050509050019150509081526020016040518091039020846040518082805190602001908083835b602083106124ee57805182526020820191506020810190506020830392506124cb565b6001836020036101000a0380198251168184511680821785525050505050509050019150509081526020016040518091039020600082015181600001908051906020019061253d9291906129bf565b506020820151816001015560408201518160020155606082015181600301908051906020019061256e9291906129bf565b50608082015181600401908051906020019061258b9291906129bf565b5060a08201518160050190805190602001906125a89291906129bf565b5060c08201518160060160006101000a81548160ff0219169083151502179055509050506003876040518082805190602001908083835b6020831061260257805182526020820191506020810190506020830392506125df565b6001836020036101000a038019825116818451168082178552505050505050905001915050908152602001604051809103902060040160008154809291906001019190505550600460003373ffffffffffffffffffffffffffffffffffffffff1673ffffffffffffffffffffffffffffffffffffffff1681526020019081526020016000206004016000815480929190600101919050555050505050505050565b60055481565b60006003836040518082805190602001908083835b602083106126e157805182526020820191506020810190506020830392506126be565b6001836020036101000a038019825116818451168082178552505050505050905001915050908152602001604051809103902060070160009054906101000a900460ff16612797576040517f08c379a000000000000000000000000000000000000000000000000000000000815260040180806020018281038252601c8152602001807f4d65646963616c2073746f726520646f6573206e6f742065786973740000000081525060200191505060405180910390fd5b6000836040518082805190602001908083835b602083106127cd57805182526020820191506020810190506020830392506127aa565b6001836020036101000a0380198251168184511680821785525050505050509050019150509081526020016040518091039020826040518082805190602001908083835b602083106128345780518252602082019150602081019050602083039250612811565b6001836020036101000a03801982511681845116808217855250505050505090500191505090815260200160405180910390206002015490509392505050565b600182805160208101820180518482526020830160208501208183528095505050505050602052806000526040600020600091509150508054600181600116156101000203166002900480601f01602080910402602001604051908101604052809291908181526020018280546001816001161561010002031660029004801561293f5780601f106129145761010080835404028352916020019161293f565b820191906000526020600020905b81548152906001019060200180831161292257829003601f168201915b505050505081565b6000600460003373ffffffffffffffffffffffffffffffffffffffff1673ffffffffffffffffffffffffffffffffffffffff16815260200190815260200160002060040154905090565b6002818051602081018201805184825260208301602085012081835280955050505050506000915090505481565b828054600181600116156101000203166002900490600052602060002090601f016020900481019282601f10612a0057805160ff1916838001178555612a2e565b82800160010185558215612a2e579182015b82811115612a2d578251825591602001919060010190612a12565b5b509050612a3b9190612abf565b5090565b828054600181600116156101000203166002900490600052602060002090601f016020900481019282601f10612a8057805160ff1916838001178555612aae565b82800160010185558215612aae579182015b82811115612aad578251825591602001919060010190612a92565b5b509050612abb9190612abf565b5090565b612ae191905b80821115612add576000816000905550600101612ac5565b5090565b9056fe4d65646963616c2073746f7265206e616d6520616c726561647920657869737473596f7520617265206e6f7420746865206f776e6572206f66206d65646963616c2073746f72655175616e746974792073686f756c642062652067726561746572207468616e2030a265627a7a72315820115e48e606813d927c4db05d66209999e07a05e398680584eed2dacb5f5c35a264736f6c63430005100032",
  "source": "// SPDX-License-Identifier: MIT\r\npragma solidity >=0.4.22 <=0.8.9;\r\n\r\ncontract MedImpact {\r\n    \r\n    // model MedicalStore\r\n    struct MedicalStore {\r\n        //uint256 latitude;\r\n        //uint256 longitude;\r\n        address owner;\r\n        string name;\r\n        string email;\r\n        string phoneno;\r\n        uint256 invoices;\r\n        uint256 purchases;\r\n        string aadhaarCardHash;\r\n        bool exists;\r\n    }\r\n    \r\n    // model Medicine\r\n    struct Medicine {\r\n        string name;\r\n        uint256 price;\r\n        uint256 quantity;\r\n        string batchNo;\r\n        string expiryDate;\r\n        string billHash;\r\n        bool exists;\r\n    }\r\n    \r\n    // map to store medicines\r\n    // medicalStoreId => medicineName => expiryDate => Medicine\r\n    //mapping(string => mapping(string => mapping(string => Medicine))) public medicines;\r\n\r\n    // map to store medicines\r\n    // medicalStoreId => batchId => Medicine\r\n    mapping(string => mapping(string => Medicine)) public medicines;\r\n\r\n    // map medicalStoreId => medicine count => batchNo\r\n    mapping(string => mapping(uint256 => string)) public batchIdOfMedicine;\r\n    \r\n    // map medicalStoreId => medicine count\r\n    mapping(string => uint256) public medicineCountInMedicalStore;\r\n    \r\n    // map to store medical stores\r\n    // medicalStoreId => MedicalStore\r\n    mapping(string => MedicalStore) public medicalStores;\r\n    \r\n    // map to store medical stores of a particular user\r\n    // userEthereumAddress => MedicalStore\r\n    mapping(address => MedicalStore) myMedicalStores;\r\n\r\n    // store the number of medical stores\r\n    uint256 public medicalStoresCount;\r\n\r\n    constructor() public {\r\n        //addMedicalStore(\"Real Medicos\", \"realmedicos@gmail.com\", \"9976565437\", \"xyzhash\");\r\n    }\r\n\r\n    // function to add new medical store\r\n    function addMedicalStore(/*uint256 _latitude, uint256 _longitude,*/ string memory _medicalStoreId, string memory _email, string memory _phoneno, string memory _aadhaarCardHash) public {\r\n        require(medicalStores[_medicalStoreId].exists == false, \"Medical store name already exists\");\r\n        \r\n        medicalStoresCount++;\r\n        medicalStores[_medicalStoreId] = MedicalStore(/*_latitude, _longitude,*/ msg.sender, _medicalStoreId, _email, _phoneno, 0, 0, _aadhaarCardHash, true);\r\n        myMedicalStores[msg.sender] = MedicalStore(/*_latitude, _longitude,*/ msg.sender, _medicalStoreId, _email, _phoneno, 0, 0, _aadhaarCardHash, true);\r\n    }\r\n\r\n    // function to add new stock of a specific medicine having a particular expiry date to a particular medical store\r\n    function addMedicine(string memory _medicalStoreId, string memory _medicineName, uint256 _price, uint256 _quantity, string memory _batchNo, string memory _expiryDate, string memory _billHash) public {\r\n        require(medicalStores[_medicalStoreId].owner == msg.sender, \"You are not the owner of medical store\");\r\n        require(_quantity > 0, \"Quantity should be greater than 0\");\r\n        \r\n        /*if(medicines[_medicalStoreId][_medicineName][_expiryDate].exists){\r\n            medicines[_medicalStoreId][_medicineName][_expiryDate].quantity += _quantity;\r\n        }\r\n        else{\r\n            medicines[_medicalStoreId][_medicineName][_expiryDate] = Medicine( _medicineName, _price, _quantity, _expiryDate, _billHash, true);   \r\n        }*/\r\n        medicineCountInMedicalStore[_medicalStoreId]++;\r\n        batchIdOfMedicine[_medicalStoreId][ medicineCountInMedicalStore[_medicalStoreId]] = _batchNo;\r\n        medicines[_medicalStoreId][_batchNo] = Medicine( _medicineName, _price, _quantity, _batchNo, _expiryDate, _billHash, true);\r\n\r\n        medicalStores[_medicalStoreId].invoices++;\r\n        myMedicalStores[msg.sender].invoices++;\r\n    }\r\n    \r\n    // function to purchase a specific medicine of a particular expiry date from a particular medical store\r\n    function purchaseMedicine(string memory _medicalStoreId, string memory _medicineName, uint256 _quantity, string memory _batchNo/*, string memory _expiryDate*/) public {\r\n        require(medicalStores[_medicalStoreId].owner == msg.sender, \"You are not the owner of medical store\");\r\n        require(medicines[_medicalStoreId][_batchNo].quantity > 0, \"Inufficient stock\");\r\n        require(_quantity > 0, \"Quantity should be greater than 0\");\r\n        \r\n        medicines[_medicalStoreId][_batchNo].quantity -= _quantity;\r\n        medicalStores[_medicalStoreId].purchases++;\r\n        myMedicalStores[msg.sender].purchases++;\r\n    }\r\n    \r\n    // function to return the count of a specific medicine of a particular expiry date present in a particular medical store \r\n    function medicineCount(string memory _medicineName, string memory _medicalStoreId, string memory _batchNo/*, string memory _expiryDate*/) view public returns(uint256){\r\n        require(medicalStores[_medicalStoreId].exists, \"Medical store does not exist\");\r\n        return medicines[_medicalStoreId][_batchNo].quantity;\r\n    }\r\n    \r\n    // function to return the number of invoices for a particular medical store\r\n    function invoicesCount(/*string memory _medicalStoreId*/) view public returns(uint256){\r\n        /*require(medicalStores[_medicalStoreId].exists, \"Medical store does not exist\");\r\n        return medicalStores[_medicalStoreId].invoices;*/\r\n        return myMedicalStores[msg.sender].invoices;\r\n    }\r\n    \r\n    // function to return the number of purchases for a particular medical store\r\n    function purchasesCount(/*string memory _medicalStoreId*/) view public returns(uint256){\r\n        /*require(medicalStores[_medicalStoreId].exists, \"Medical store does not exist\");\r\n        return medicalStores[_medicalStoreId].purchases;\r\n        */\r\n        return myMedicalStores[msg.sender].purchases;\r\n    }\r\n\r\n    // function to return all the medicines in a particular store\r\n    /*function getMedicines(string memory _medicalStoreId) view public returns(uint256) {\r\n        require(medicalStores[_medicalStoreId].exists, \"Medical store does not exist\");\r\n\r\n    }*/\r\n    \r\n}\r\n",
  "sourcePath": "C:\\Users\\Akshat\\Desktop\\sem5\\HackIIITV\\MedImpact\\contracts\\MedImpact.sol",
  "compiler": {
    "name": "solc",
    "version": "0.5.16+commit.9c3226ce.Emscripten.clang"
  },
  "schemaVersion": "3.4.3",
  "updatedAt": "2021-12-11T15:02:50.554Z",
  "devdoc": {
    "methods": {}
  },
  "userdoc": {
    "methods": {}
  }
}