{
  "contractName": "MedImpact",
  "abi": [
    {
      "inputs": [],
      "payable": false,
      "stateMutability": "nonpayable",
      "type": "constructor"
    },
    {
      "constant": true,
      "inputs": [
        {
          "internalType": "string",
          "name": "",
          "type": "string"
        }
      ],
      "name": "medicalStores",
      "outputs": [
        {
          "internalType": "uint256",
          "name": "latitude",
          "type": "uint256"
        },
        {
          "internalType": "uint256",
          "name": "longitude",
          "type": "uint256"
        },
        {
          "internalType": "address",
          "name": "owner",
          "type": "address"
        },
        {
          "internalType": "string",
          "name": "name",
          "type": "string"
        },
        {
          "internalType": "string",
          "name": "email",
          "type": "string"
        },
        {
          "internalType": "string",
          "name": "phoneno",
          "type": "string"
        },
        {
          "internalType": "uint256",
          "name": "invoices",
          "type": "uint256"
        },
        {
          "internalType": "uint256",
          "name": "purchases",
          "type": "uint256"
        },
        {
          "internalType": "string",
          "name": "aadhaarCardHash",
          "type": "string"
        },
        {
          "internalType": "bool",
          "name": "exists",
          "type": "bool"
        }
      ],
      "payable": false,
      "stateMutability": "view",
      "type": "function"
    },
    {
      "constant": true,
      "inputs": [],
      "name": "medicalStoresCount",
      "outputs": [
        {
          "internalType": "uint256",
          "name": "",
          "type": "uint256"
        }
      ],
      "payable": false,
      "stateMutability": "view",
      "type": "function"
    },
    {
      "constant": true,
      "inputs": [
        {
          "internalType": "string",
          "name": "",
          "type": "string"
        },
        {
          "internalType": "string",
          "name": "",
          "type": "string"
        },
        {
          "internalType": "string",
          "name": "",
          "type": "string"
        }
      ],
      "name": "medicines",
      "outputs": [
        {
          "internalType": "string",
          "name": "name",
          "type": "string"
        },
        {
          "internalType": "uint256",
          "name": "price",
          "type": "uint256"
        },
        {
          "internalType": "uint256",
          "name": "quantity",
          "type": "uint256"
        },
        {
          "internalType": "string",
          "name": "expiryDate",
          "type": "string"
        },
        {
          "internalType": "string",
          "name": "billHash",
          "type": "string"
        },
        {
          "internalType": "bool",
          "name": "exists",
          "type": "bool"
        }
      ],
      "payable": false,
      "stateMutability": "view",
      "type": "function"
    },
    {
      "constant": false,
      "inputs": [
        {
          "internalType": "uint256",
          "name": "_latitude",
          "type": "uint256"
        },
        {
          "internalType": "uint256",
          "name": "_longitude",
          "type": "uint256"
        },
        {
          "internalType": "string",
          "name": "_medicalStoreName",
          "type": "string"
        },
        {
          "internalType": "string",
          "name": "_email",
          "type": "string"
        },
        {
          "internalType": "string",
          "name": "_phoneno",
          "type": "string"
        },
        {
          "internalType": "string",
          "name": "_aadhaarCardHash",
          "type": "string"
        }
      ],
      "name": "addMedicalStore",
      "outputs": [],
      "payable": false,
      "stateMutability": "nonpayable",
      "type": "function"
    },
    {
      "constant": false,
      "inputs": [
        {
          "internalType": "string",
          "name": "_medicalStoreName",
          "type": "string"
        },
        {
          "internalType": "string",
          "name": "_medicineName",
          "type": "string"
        },
        {
          "internalType": "uint256",
          "name": "_price",
          "type": "uint256"
        },
        {
          "internalType": "uint256",
          "name": "_quantity",
          "type": "uint256"
        },
        {
          "internalType": "string",
          "name": "_expiryDate",
          "type": "string"
        },
        {
          "internalType": "string",
          "name": "_billHash",
          "type": "string"
        }
      ],
      "name": "addMedicine",
      "outputs": [],
      "payable": false,
      "stateMutability": "nonpayable",
      "type": "function"
    },
    {
      "constant": false,
      "inputs": [
        {
          "internalType": "string",
          "name": "_medicalStoreName",
          "type": "string"
        },
        {
          "internalType": "string",
          "name": "_medicineName",
          "type": "string"
        },
        {
          "internalType": "uint256",
          "name": "_quantity",
          "type": "uint256"
        },
        {
          "internalType": "string",
          "name": "_expiryDate",
          "type": "string"
        }
      ],
      "name": "purchaseMedicine",
      "outputs": [],
      "payable": false,
      "stateMutability": "nonpayable",
      "type": "function"
    },
    {
      "constant": true,
      "inputs": [
        {
          "internalType": "string",
          "name": "_medicineName",
          "type": "string"
        },
        {
          "internalType": "string",
          "name": "_medicalStoreName",
          "type": "string"
        },
        {
          "internalType": "string",
          "name": "_expiryDate",
          "type": "string"
        }
      ],
      "name": "medicineCount",
      "outputs": [
        {
          "internalType": "uint256",
          "name": "",
          "type": "uint256"
        }
      ],
      "payable": false,
      "stateMutability": "view",
      "type": "function"
    },
    {
      "constant": true,
      "inputs": [
        {
          "internalType": "string",
          "name": "_medicalStoreName",
          "type": "string"
        }
      ],
      "name": "invoicesCount",
      "outputs": [
        {
          "internalType": "uint256",
          "name": "",
          "type": "uint256"
        }
      ],
      "payable": false,
      "stateMutability": "view",
      "type": "function"
    },
    {
      "constant": true,
      "inputs": [
        {
          "internalType": "string",
          "name": "_medicalStoreName",
          "type": "string"
        }
      ],
      "name": "purchasesCount",
      "outputs": [
        {
          "internalType": "uint256",
          "name": "",
          "type": "uint256"
        }
      ],
      "payable": false,
      "stateMutability": "view",
      "type": "function"
    }
  ],
  "bytecode": "0x608060405234801561001057600080fd5b50612ed4806100206000396000f3fe608060405234801561001057600080fd5b50600436106100925760003560e01c8063625a8e9111610066578063625a8e911461097e5780639813b7fc1461099c578063b33ab79a14610b99578063b543cf7a14610e2d578063b6666bef14610efc57610092565b80624e5e19146100975780631ad385e61461028a57806344925cbf146105dd5780635f362d2b146108af575b600080fd5b610288600480360360808110156100ad57600080fd5b81019080803590602001906401000000008111156100ca57600080fd5b8201836020820111156100dc57600080fd5b803590602001918460018302840111640100000000831117156100fe57600080fd5b91908080601f016020809104026020016040519081016040528093929190818152602001838380828437600081840152601f19601f8201169050808301925050505050505091929192908035906020019064010000000081111561016157600080fd5b82018360208201111561017357600080fd5b8035906020019184600183028401116401000000008311171561019557600080fd5b91908080601f016020809104026020016040519081016040528093929190818152602001838380828437600081840152601f19601f820116905080830192505050505050509192919290803590602001909291908035906020019064010000000081111561020257600080fd5b82018360208201111561021457600080fd5b8035906020019184600183028401116401000000008311171561023657600080fd5b91908080601f016020809104026020016040519081016040528093929190818152602001838380828437600081840152601f19601f820116905080830192505050505050509192919290505050611190565b005b610471600480360360608110156102a057600080fd5b81019080803590602001906401000000008111156102bd57600080fd5b8201836020820111156102cf57600080fd5b803590602001918460018302840111640100000000831117156102f157600080fd5b91908080601f016020809104026020016040519081016040528093929190818152602001838380828437600081840152601f19601f8201169050808301925050505050505091929192908035906020019064010000000081111561035457600080fd5b82018360208201111561036657600080fd5b8035906020019184600183028401116401000000008311171561038857600080fd5b91908080601f016020809104026020016040519081016040528093929190818152602001838380828437600081840152601f19601f820116905080830192505050505050509192919290803590602001906401000000008111156103eb57600080fd5b8201836020820111156103fd57600080fd5b8035906020019184600183028401116401000000008311171561041f57600080fd5b91908080601f016020809104026020016040519081016040528093929190818152602001838380828437600081840152601f19601f82011690508083019250505050505050919291929050505061172b565b604051808060200187815260200186815260200180602001806020018515151515815260200184810384528a818151815260200191508051906020019080838360005b838110156104cf5780820151818401526020810190506104b4565b50505050905090810190601f1680156104fc5780820380516001836020036101000a031916815260200191505b50848103835287818151815260200191508051906020019080838360005b8381101561053557808201518184015260208101905061051a565b50505050905090810190601f1680156105625780820380516001836020036101000a031916815260200191505b50848103825286818151815260200191508051906020019080838360005b8381101561059b578082015181840152602081019050610580565b50505050905090810190601f1680156105c85780820380516001836020036101000a031916815260200191505b50995050505050505050505060405180910390f35b610696600480360360208110156105f357600080fd5b810190808035906020019064010000000081111561061057600080fd5b82018360208201111561062257600080fd5b8035906020019184600183028401116401000000008311171561064457600080fd5b91908080601f016020809104026020016040519081016040528093929190818152602001838380828437600081840152601f19601f820116905080830192505050505050509192919290505050611998565b604051808b81526020018a81526020018973ffffffffffffffffffffffffffffffffffffffff1673ffffffffffffffffffffffffffffffffffffffff168152602001806020018060200180602001888152602001878152602001806020018615151515815260200185810385528c818151815260200191508051906020019080838360005b8381101561073657808201518184015260208101905061071b565b50505050905090810190601f1680156107635780820380516001836020036101000a031916815260200191505b5085810384528b818151815260200191508051906020019080838360005b8381101561079c578082015181840152602081019050610781565b50505050905090810190601f1680156107c95780820380516001836020036101000a031916815260200191505b5085810383528a818151815260200191508051906020019080838360005b838110156108025780820151818401526020810190506107e7565b50505050905090810190601f16801561082f5780820380516001836020036101000a031916815260200191505b50858103825287818151815260200191508051906020019080838360005b8381101561086857808201518184015260208101905061084d565b50505050905090810190601f1680156108955780820380516001836020036101000a031916815260200191505b509e50505050505050505050505050505060405180910390f35b610968600480360360208110156108c557600080fd5b81019080803590602001906401000000008111156108e257600080fd5b8201836020820111156108f457600080fd5b8035906020019184600183028401116401000000008311171561091657600080fd5b91908080601f016020809104026020016040519081016040528093929190818152602001838380828437600081840152601f19601f820116905080830192505050505050509192919290505050611c8f565b6040518082815260200191505060405180910390f35b610986611df1565b6040518082815260200191505060405180910390f35b610b83600480360360608110156109b257600080fd5b81019080803590602001906401000000008111156109cf57600080fd5b8201836020820111156109e157600080fd5b80359060200191846001830284011164010000000083111715610a0357600080fd5b91908080601f016020809104026020016040519081016040528093929190818152602001838380828437600081840152601f19601f82011690508083019250505050505050919291929080359060200190640100000000811115610a6657600080fd5b820183602082011115610a7857600080fd5b80359060200191846001830284011164010000000083111715610a9a57600080fd5b91908080601f016020809104026020016040519081016040528093929190818152602001838380828437600081840152601f19601f82011690508083019250505050505050919291929080359060200190640100000000811115610afd57600080fd5b820183602082011115610b0f57600080fd5b80359060200191846001830284011164010000000083111715610b3157600080fd5b91908080601f016020809104026020016040519081016040528093929190818152602001838380828437600081840152601f19601f820116905080830192505050505050509192919290505050611df7565b6040518082815260200191505060405180910390f35b610e2b600480360360c0811015610baf57600080fd5b8101908080359060200190640100000000811115610bcc57600080fd5b820183602082011115610bde57600080fd5b80359060200191846001830284011164010000000083111715610c0057600080fd5b91908080601f016020809104026020016040519081016040528093929190818152602001838380828437600081840152601f19601f82011690508083019250505050505050919291929080359060200190640100000000811115610c6357600080fd5b820183602082011115610c7557600080fd5b80359060200191846001830284011164010000000083111715610c9757600080fd5b91908080601f016020809104026020016040519081016040528093929190818152602001838380828437600081840152601f19601f820116905080830192505050505050509192919290803590602001909291908035906020019092919080359060200190640100000000811115610d0e57600080fd5b820183602082011115610d2057600080fd5b80359060200191846001830284011164010000000083111715610d4257600080fd5b91908080601f016020809104026020016040519081016040528093929190818152602001838380828437600081840152601f19601f82011690508083019250505050505050919291929080359060200190640100000000811115610da557600080fd5b820183602082011115610db757600080fd5b80359060200191846001830284011164010000000083111715610dd957600080fd5b91908080601f016020809104026020016040519081016040528093929190818152602001838380828437600081840152601f19601f820116905080830192505050505050509192919290505050612029565b005b610ee660048036036020811015610e4357600080fd5b8101908080359060200190640100000000811115610e6057600080fd5b820183602082011115610e7257600080fd5b80359060200191846001830284011164010000000083111715610e9457600080fd5b91908080601f016020809104026020016040519081016040528093929190818152602001838380828437600081840152601f19601f82011690508083019250505050505050919291929050505061275f565b6040518082815260200191505060405180910390f35b61118e600480360360c0811015610f1257600080fd5b81019080803590602001909291908035906020019092919080359060200190640100000000811115610f4357600080fd5b820183602082011115610f5557600080fd5b80359060200191846001830284011164010000000083111715610f7757600080fd5b91908080601f016020809104026020016040519081016040528093929190818152602001838380828437600081840152601f19601f82011690508083019250505050505050919291929080359060200190640100000000811115610fda57600080fd5b820183602082011115610fec57600080fd5b8035906020019184600183028401116401000000008311171561100e57600080fd5b91908080601f016020809104026020016040519081016040528093929190818152602001838380828437600081840152601f19601f8201169050808301925050505050505091929192908035906020019064010000000081111561107157600080fd5b82018360208201111561108357600080fd5b803590602001918460018302840111640100000000831117156110a557600080fd5b91908080601f016020809104026020016040519081016040528093929190818152602001838380828437600081840152601f19601f8201169050808301925050505050505091929192908035906020019064010000000081111561110857600080fd5b82018360208201111561111a57600080fd5b8035906020019184600183028401116401000000008311171561113c57600080fd5b91908080601f016020809104026020016040519081016040528093929190818152602001838380828437600081840152601f19601f8201169050808301925050505050505091929192905050506128c1565b005b3373ffffffffffffffffffffffffffffffffffffffff166001856040518082805190602001908083835b602083106111dd57805182526020820191506020810190506020830392506111ba565b6001836020036101000a038019825116818451168082178552505050505050905001915050908152602001604051809103902060020160009054906101000a900473ffffffffffffffffffffffffffffffffffffffff1673ffffffffffffffffffffffffffffffffffffffff16146112a0576040517f08c379a0000000000000000000000000000000000000000000000000000000008152600401808060200182810382526026815260200180612e596026913960400191505060405180910390fd5b600080846040518082805190602001908083835b602083106112d757805182526020820191506020810190506020830392506112b4565b6001836020036101000a0380198251168184511680821785525050505050509050019150509081526020016040518091039020856040518082805190602001908083835b6020831061133e578051825260208201915060208101905060208303925061131b565b6001836020036101000a0380198251168184511680821785525050505050509050019150509081526020016040518091039020826040518082805190602001908083835b602083106113a55780518252602082019150602081019050602083039250611382565b6001836020036101000a0380198251168184511680821785525050505050509050019150509081526020016040518091039020600201541161144f576040517f08c379a00000000000000000000000000000000000000000000000000000000081526004018080602001828103825260118152602001807f496e756666696369656e742073746f636b00000000000000000000000000000081525060200191505060405180910390fd5b600082116114a8576040517f08c379a0000000000000000000000000000000000000000000000000000000008152600401808060200182810382526021815260200180612e7f6021913960400191505060405180910390fd5b816000846040518082805190602001908083835b602083106114df57805182526020820191506020810190506020830392506114bc565b6001836020036101000a0380198251168184511680821785525050505050509050019150509081526020016040518091039020856040518082805190602001908083835b602083106115465780518252602082019150602081019050602083039250611523565b6001836020036101000a0380198251168184511680821785525050505050509050019150509081526020016040518091039020826040518082805190602001908083835b602083106115ad578051825260208201915060208101905060208303925061158a565b6001836020036101000a0380198251168184511680821785525050505050509050019150509081526020016040518091039020600201600082825403925050819055506001846040518082805190602001908083835b602083106116265780518252602082019150602081019050602083039250611603565b6001836020036101000a038019825116818451168082178552505050505050905001915050908152602001604051809103902060070160008154809291906001019190505550600260003373ffffffffffffffffffffffffffffffffffffffff1673ffffffffffffffffffffffffffffffffffffffff168152602001908152602001600020846040518082805190602001908083835b602083106116df57805182526020820191506020810190506020830392506116bc565b6001836020036101000a03801982511681845116808217855250505050505090500191505090815260200160405180910390206007016000815480929190600101919050555050505050565b60008380516020810182018051848252602083016020850120818352809550505050505082805160208101820180518482526020830160208501208183528095505050505050818051602081018201805184825260208301602085012081835280955050505050506000925092505050806000018054600181600116156101000203166002900480601f0160208091040260200160405190810160405280929190818152602001828054600181600116156101000203166002900480156118335780601f1061180857610100808354040283529160200191611833565b820191906000526020600020905b81548152906001019060200180831161181657829003601f168201915b505050505090806001015490806002015490806003018054600181600116156101000203166002900480601f0160208091040260200160405190810160405280929190818152602001828054600181600116156101000203166002900480156118dd5780601f106118b2576101008083540402835291602001916118dd565b820191906000526020600020905b8154815290600101906020018083116118c057829003601f168201915b505050505090806004018054600181600116156101000203166002900480601f01602080910402602001604051908101604052809291908181526020018280546001816001161561010002031660029004801561197b5780601f106119505761010080835404028352916020019161197b565b820191906000526020600020905b81548152906001019060200180831161195e57829003601f168201915b5050505050908060050160009054906101000a900460ff16905086565b6001818051602081018201805184825260208301602085012081835280955050505050506000915090508060000154908060010154908060020160009054906101000a900473ffffffffffffffffffffffffffffffffffffffff1690806003018054600181600116156101000203166002900480601f016020809104026020016040519081016040528092919081815260200182805460018160011615610100020316600290048015611a8c5780601f10611a6157610100808354040283529160200191611a8c565b820191906000526020600020905b815481529060010190602001808311611a6f57829003601f168201915b505050505090806004018054600181600116156101000203166002900480601f016020809104026020016040519081016040528092919081815260200182805460018160011615610100020316600290048015611b2a5780601f10611aff57610100808354040283529160200191611b2a565b820191906000526020600020905b815481529060010190602001808311611b0d57829003601f168201915b505050505090806005018054600181600116156101000203166002900480601f016020809104026020016040519081016040528092919081815260200182805460018160011615610100020316600290048015611bc85780601f10611b9d57610100808354040283529160200191611bc8565b820191906000526020600020905b815481529060010190602001808311611bab57829003601f168201915b505050505090806006015490806007015490806008018054600181600116156101000203166002900480601f016020809104026020016040519081016040528092919081815260200182805460018160011615610100020316600290048015611c725780601f10611c4757610100808354040283529160200191611c72565b820191906000526020600020905b815481529060010190602001808311611c5557829003601f168201915b5050505050908060090160009054906101000a900460ff1690508a565b60006001826040518082805190602001908083835b60208310611cc75780518252602082019150602081019050602083039250611ca4565b6001836020036101000a038019825116818451168082178552505050505050905001915050908152602001604051809103902060090160009054906101000a900460ff16611d7d576040517f08c379a000000000000000000000000000000000000000000000000000000000815260040180806020018281038252601c8152602001807f4d65646963616c2073746f726520646f6573206e6f742065786973740000000081525060200191505060405180910390fd5b6001826040518082805190602001908083835b60208310611db35780518252602082019150602081019050602083039250611d90565b6001836020036101000a0380198251168184511680821785525050505050509050019150509081526020016040518091039020600601549050919050565b60035481565b60006001836040518082805190602001908083835b60208310611e2f5780518252602082019150602081019050602083039250611e0c565b6001836020036101000a038019825116818451168082178552505050505050905001915050908152602001604051809103902060090160009054906101000a900460ff16611ee5576040517f08c379a000000000000000000000000000000000000000000000000000000000815260040180806020018281038252601c8152602001807f4d65646963616c2073746f726520646f6573206e6f742065786973740000000081525060200191505060405180910390fd5b6000846040518082805190602001908083835b60208310611f1b5780518252602082019150602081019050602083039250611ef8565b6001836020036101000a0380198251168184511680821785525050505050509050019150509081526020016040518091039020836040518082805190602001908083835b60208310611f825780518252602082019150602081019050602083039250611f5f565b6001836020036101000a0380198251168184511680821785525050505050509050019150509081526020016040518091039020826040518082805190602001908083835b60208310611fe95780518252602082019150602081019050602083039250611fc6565b6001836020036101000a03801982511681845116808217855250505050505090500191505090815260200160405180910390206002015490509392505050565b3373ffffffffffffffffffffffffffffffffffffffff166001876040518082805190602001908083835b602083106120765780518252602082019150602081019050602083039250612053565b6001836020036101000a038019825116818451168082178552505050505050905001915050908152602001604051809103902060020160009054906101000a900473ffffffffffffffffffffffffffffffffffffffff1673ffffffffffffffffffffffffffffffffffffffff1614612139576040517f08c379a0000000000000000000000000000000000000000000000000000000008152600401808060200182810382526026815260200180612e596026913960400191505060405180910390fd5b60008311612192576040517f08c379a0000000000000000000000000000000000000000000000000000000008152600401808060200182810382526021815260200180612e7f6021913960400191505060405180910390fd5b6000856040518082805190602001908083835b602083106121c857805182526020820191506020810190506020830392506121a5565b6001836020036101000a0380198251168184511680821785525050505050509050019150509081526020016040518091039020866040518082805190602001908083835b6020831061222f578051825260208201915060208101905060208303925061220c565b6001836020036101000a0380198251168184511680821785525050505050509050019150509081526020016040518091039020826040518082805190602001908083835b602083106122965780518252602082019150602081019050602083039250612273565b6001836020036101000a038019825116818451168082178552505050505050905001915050908152602001604051809103902060050160009054906101000a900460ff161561242c57826000866040518082805190602001908083835b6020831061231657805182526020820191506020810190506020830392506122f3565b6001836020036101000a0380198251168184511680821785525050505050509050019150509081526020016040518091039020876040518082805190602001908083835b6020831061237d578051825260208201915060208101905060208303925061235a565b6001836020036101000a0380198251168184511680821785525050505050509050019150509081526020016040518091039020836040518082805190602001908083835b602083106123e457805182526020820191506020810190506020830392506123c1565b6001836020036101000a038019825116818451168082178552505050505050905001915050908152602001604051809103902060020160008282540192505081905550612622565b6040518060c00160405280868152602001858152602001848152602001838152602001828152602001600115158152506000866040518082805190602001908083835b60208310612492578051825260208201915060208101905060208303925061246f565b6001836020036101000a0380198251168184511680821785525050505050509050019150509081526020016040518091039020876040518082805190602001908083835b602083106124f957805182526020820191506020810190506020830392506124d6565b6001836020036101000a0380198251168184511680821785525050505050509050019150509081526020016040518091039020836040518082805190602001908083835b60208310612560578051825260208201915060208101905060208303925061253d565b6001836020036101000a038019825116818451168082178552505050505050905001915050908152602001604051809103902060008201518160000190805190602001906125af929190612d92565b50602082015181600101556040820151816002015560608201518160030190805190602001906125e0929190612d92565b5060808201518160040190805190602001906125fd929190612d92565b5060a08201518160050160006101000a81548160ff0219169083151502179055509050505b6001866040518082805190602001908083835b602083106126585780518252602082019150602081019050602083039250612635565b6001836020036101000a038019825116818451168082178552505050505050905001915050908152602001604051809103902060060160008154809291906001019190505550600260003373ffffffffffffffffffffffffffffffffffffffff1673ffffffffffffffffffffffffffffffffffffffff168152602001908152602001600020866040518082805190602001908083835b6020831061271157805182526020820191506020810190506020830392506126ee565b6001836020036101000a038019825116818451168082178552505050505050905001915050908152602001604051809103902060060160008154809291906001019190505550505050505050565b60006001826040518082805190602001908083835b602083106127975780518252602082019150602081019050602083039250612774565b6001836020036101000a038019825116818451168082178552505050505050905001915050908152602001604051809103902060090160009054906101000a900460ff1661284d576040517f08c379a000000000000000000000000000000000000000000000000000000000815260040180806020018281038252601c8152602001807f4d65646963616c2073746f726520646f6573206e6f742065786973740000000081525060200191505060405180910390fd5b6001826040518082805190602001908083835b602083106128835780518252602082019150602081019050602083039250612860565b6001836020036101000a0380198251168184511680821785525050505050509050019150509081526020016040518091039020600701549050919050565b600015156001856040518082805190602001908083835b602083106128fb57805182526020820191506020810190506020830392506128d8565b6001836020036101000a038019825116818451168082178552505050505050905001915050908152602001604051809103902060090160009054906101000a900460ff16151514612997576040517f08c379a0000000000000000000000000000000000000000000000000000000008152600401808060200182810382526021815260200180612e386021913960400191505060405180910390fd5b6003600081548092919060010191905055506040518061014001604052808781526020018681526020013373ffffffffffffffffffffffffffffffffffffffff1681526020018581526020018481526020018381526020016000815260200160008152602001828152602001600115158152506001856040518082805190602001908083835b60208310612a405780518252602082019150602081019050602083039250612a1d565b6001836020036101000a0380198251168184511680821785525050505050509050019150509081526020016040518091039020600082015181600001556020820151816001015560408201518160020160006101000a81548173ffffffffffffffffffffffffffffffffffffffff021916908373ffffffffffffffffffffffffffffffffffffffff1602179055506060820151816003019080519060200190612aea929190612d92565b506080820151816004019080519060200190612b07929190612d92565b5060a0820151816005019080519060200190612b24929190612d92565b5060c0820151816006015560e08201518160070155610100820151816008019080519060200190612b56929190612d92565b506101208201518160090160006101000a81548160ff0219169083151502179055509050506040518061014001604052808781526020018681526020013373ffffffffffffffffffffffffffffffffffffffff168152602001858152602001848152602001838152602001600081526020016000815260200182815260200160011515815250600260003373ffffffffffffffffffffffffffffffffffffffff1673ffffffffffffffffffffffffffffffffffffffff168152602001908152602001600020856040518082805190602001908083835b60208310612c4f5780518252602082019150602081019050602083039250612c2c565b6001836020036101000a0380198251168184511680821785525050505050509050019150509081526020016040518091039020600082015181600001556020820151816001015560408201518160020160006101000a81548173ffffffffffffffffffffffffffffffffffffffff021916908373ffffffffffffffffffffffffffffffffffffffff1602179055506060820151816003019080519060200190612cf9929190612d92565b506080820151816004019080519060200190612d16929190612d92565b5060a0820151816005019080519060200190612d33929190612d92565b5060c0820151816006015560e08201518160070155610100820151816008019080519060200190612d65929190612d92565b506101208201518160090160006101000a81548160ff021916908315150217905550905050505050505050565b828054600181600116156101000203166002900490600052602060002090601f016020900481019282601f10612dd357805160ff1916838001178555612e01565b82800160010185558215612e01579182015b82811115612e00578251825591602001919060010190612de5565b5b509050612e0e9190612e12565b5090565b612e3491905b80821115612e30576000816000905550600101612e18565b5090565b9056fe4d65646963616c2073746f7265206e616d6520616c726561647920657869737473596f7520617265206e6f7420746865206f776e6572206f66206d65646963616c2073746f72655175616e746974792073686f756c642062652067726561746572207468616e2030a265627a7a723158205e759ed2cf9eabbaef209530d7ca2eec19c5518ee05ccd27c932ed69668cd8d364736f6c63430005100032",
  "source": "// SPDX-License-Identifier: MIT\r\npragma solidity >=0.4.22 <=0.8.9;\r\n\r\ncontract MedImpact {\r\n    \r\n    // model MedicalStore\r\n    struct MedicalStore {\r\n        uint256 latitude;\r\n        uint256 longitude;\r\n        address owner;\r\n        string name;\r\n        string email;\r\n        string phoneno;\r\n        uint256 invoices;\r\n        uint256 purchases;\r\n        string aadhaarCardHash;\r\n        bool exists;\r\n    }\r\n    \r\n    // model Medicine\r\n    struct Medicine {\r\n        string name;\r\n        uint256 price;\r\n        uint256 quantity;\r\n        string expiryDate;\r\n        string billHash;\r\n        bool exists;\r\n    }\r\n    \r\n    // map to store medicines\r\n    // medicineName => medicineStoreName => expiryDate\r\n    mapping(string => mapping(string => mapping(string => Medicine))) public medicines;\r\n    \r\n    // map to store medical stores\r\n    // medicalStoreId => MedicalStore\r\n    mapping(string => MedicalStore) public medicalStores;\r\n    \r\n    // map to store medical stores of a particular user\r\n    // userEthereumAddress => medicalStoreId => MedicalStore\r\n    mapping(address => mapping(string => MedicalStore)) myMedicalStores;\r\n\r\n    // store the number of medical stores\r\n    uint256 public medicalStoresCount;\r\n\r\n    constructor() public {\r\n        //addMedicalStore(\"Real Medicos\", \"realmedicos@gmail.com\", \"9976565437\", \"xyzhash\");\r\n    }\r\n\r\n    // function to add new medical store\r\n    function addMedicalStore(uint256 _latitude, uint256 _longitude, string memory _medicalStoreName, string memory _email, string memory _phoneno, string memory _aadhaarCardHash) public {\r\n        require(medicalStores[_medicalStoreName].exists == false, \"Medical store name already exists\");\r\n        \r\n        medicalStoresCount++;\r\n        medicalStores[_medicalStoreName] = MedicalStore(_latitude, _longitude, msg.sender, _medicalStoreName, _email, _phoneno, 0, 0, _aadhaarCardHash, true);\r\n        myMedicalStores[msg.sender][_medicalStoreName] = MedicalStore(_latitude, _longitude, msg.sender, _medicalStoreName, _email, _phoneno, 0, 0, _aadhaarCardHash, true);\r\n    }\r\n\r\n    // function to add new stock of a specific medicine having a particular expiry date to a particular medical store\r\n    function addMedicine(string memory _medicalStoreName, string memory _medicineName, uint256 _price, uint256 _quantity, string memory _expiryDate, string memory _billHash) public {\r\n        require(medicalStores[_medicalStoreName].owner == msg.sender, \"You are not the owner of medical store\");\r\n        require(_quantity > 0, \"Quantity should be greater than 0\");\r\n        \r\n        if(medicines[_medicineName][_medicalStoreName][_expiryDate].exists){\r\n            medicines[_medicineName][_medicalStoreName][_expiryDate].quantity += _quantity;\r\n        }\r\n        else{\r\n            medicines[_medicineName][_medicalStoreName][_expiryDate] = Medicine( _medicineName, _price, _quantity, _expiryDate, _billHash, true);   \r\n        }\r\n        medicalStores[_medicalStoreName].invoices++;\r\n        myMedicalStores[msg.sender][_medicalStoreName].invoices++;\r\n    }\r\n    \r\n    // function to purchase a specific medicine of a particular expiry date from a particular medical store\r\n    function purchaseMedicine(string memory _medicalStoreName, string memory _medicineName, uint256 _quantity, string memory _expiryDate) public {\r\n        require(medicalStores[_medicalStoreName].owner == msg.sender, \"You are not the owner of medical store\");\r\n        require(medicines[_medicineName][_medicalStoreName][_expiryDate].quantity > 0, \"Inufficient stock\");\r\n        require(_quantity > 0, \"Quantity should be greater than 0\");\r\n        \r\n        medicines[_medicineName][_medicalStoreName][_expiryDate].quantity -= _quantity;\r\n        medicalStores[_medicalStoreName].purchases++;\r\n        myMedicalStores[msg.sender][_medicalStoreName].purchases++;\r\n    }\r\n    \r\n    // function to return the count of a specific medicine of a particular expiry date present in a particular medical store \r\n    function medicineCount(string memory _medicineName, string memory _medicalStoreName, string memory _expiryDate) view public returns(uint256){\r\n        require(medicalStores[_medicalStoreName].exists, \"Medical store does not exist\");\r\n        return medicines[_medicineName][_medicalStoreName][_expiryDate].quantity;\r\n    }\r\n    \r\n    // function to return the number of invoices for a particular medical store\r\n    function invoicesCount(string memory _medicalStoreName) view public returns(uint256){\r\n        require(medicalStores[_medicalStoreName].exists, \"Medical store does not exist\");\r\n        return medicalStores[_medicalStoreName].invoices;\r\n    }\r\n    \r\n    // function to return the number of purchases for a particular medical store\r\n    function purchasesCount(string memory _medicalStoreName) view public returns(uint256){\r\n        require(medicalStores[_medicalStoreName].exists, \"Medical store does not exist\");\r\n        return medicalStores[_medicalStoreName].purchases;\r\n    }\r\n    \r\n}\r\n",
  "sourcePath": "C:\\Users\\Akshat\\Desktop\\sem5\\HackIIITV\\MedImpact\\contracts\\MedImpact.sol",
  "compiler": {
    "name": "solc",
    "version": "0.5.16+commit.9c3226ce.Emscripten.clang"
  },
  "schemaVersion": "3.4.3",
  "updatedAt": "2021-12-10T21:14:43.001Z",
  "devdoc": {
    "methods": {}
  },
  "userdoc": {
    "methods": {}
  }
}