{
  "contractName": "MedImpact",
  "abi": [
    {
      "inputs": [],
      "payable": false,
      "stateMutability": "nonpayable",
      "type": "constructor"
    },
    {
      "constant": true,
      "inputs": [
        {
          "internalType": "address",
          "name": "",
          "type": "address"
        },
        {
          "internalType": "uint256",
          "name": "",
          "type": "uint256"
        }
      ],
      "name": "batchIdOfMedicine",
      "outputs": [
        {
          "internalType": "string",
          "name": "",
          "type": "string"
        }
      ],
      "payable": false,
      "stateMutability": "view",
      "type": "function"
    },
    {
      "constant": true,
      "inputs": [
        {
          "internalType": "address",
          "name": "",
          "type": "address"
        }
      ],
      "name": "medicalStores",
      "outputs": [
        {
          "internalType": "address",
          "name": "owner",
          "type": "address"
        },
        {
          "internalType": "string",
          "name": "ownerName",
          "type": "string"
        },
        {
          "internalType": "string",
          "name": "storeName",
          "type": "string"
        },
        {
          "internalType": "string",
          "name": "phoneno",
          "type": "string"
        },
        {
          "internalType": "string",
          "name": "ownerAddress",
          "type": "string"
        },
        {
          "internalType": "uint256",
          "name": "invoices",
          "type": "uint256"
        },
        {
          "internalType": "uint256",
          "name": "purchases",
          "type": "uint256"
        },
        {
          "internalType": "bool",
          "name": "exists",
          "type": "bool"
        }
      ],
      "payable": false,
      "stateMutability": "view",
      "type": "function"
    },
    {
      "constant": true,
      "inputs": [],
      "name": "medicalStoresCount",
      "outputs": [
        {
          "internalType": "uint256",
          "name": "",
          "type": "uint256"
        }
      ],
      "payable": false,
      "stateMutability": "view",
      "type": "function"
    },
    {
      "constant": true,
      "inputs": [
        {
          "internalType": "address",
          "name": "",
          "type": "address"
        }
      ],
      "name": "medicineCountInMedicalStore",
      "outputs": [
        {
          "internalType": "uint256",
          "name": "",
          "type": "uint256"
        }
      ],
      "payable": false,
      "stateMutability": "view",
      "type": "function"
    },
    {
      "constant": true,
      "inputs": [
        {
          "internalType": "address",
          "name": "",
          "type": "address"
        },
        {
          "internalType": "string",
          "name": "",
          "type": "string"
        }
      ],
      "name": "medicines",
      "outputs": [
        {
          "internalType": "string",
          "name": "name",
          "type": "string"
        },
        {
          "internalType": "uint256",
          "name": "rate",
          "type": "uint256"
        },
        {
          "internalType": "uint256",
          "name": "price",
          "type": "uint256"
        },
        {
          "internalType": "uint256",
          "name": "quantity",
          "type": "uint256"
        },
        {
          "internalType": "string",
          "name": "batchNo",
          "type": "string"
        },
        {
          "internalType": "string",
          "name": "manufactDate",
          "type": "string"
        },
        {
          "internalType": "string",
          "name": "expiryDate",
          "type": "string"
        },
        {
          "internalType": "bool",
          "name": "exists",
          "type": "bool"
        }
      ],
      "payable": false,
      "stateMutability": "view",
      "type": "function"
    },
    {
      "constant": false,
      "inputs": [
        {
          "internalType": "string",
          "name": "_ownerName",
          "type": "string"
        },
        {
          "internalType": "string",
          "name": "_medicalStoreName",
          "type": "string"
        },
        {
          "internalType": "string",
          "name": "_phoneno",
          "type": "string"
        },
        {
          "internalType": "string",
          "name": "_landmark",
          "type": "string"
        },
        {
          "internalType": "string",
          "name": "_city",
          "type": "string"
        },
        {
          "internalType": "string",
          "name": "_ownerAddress",
          "type": "string"
        },
        {
          "internalType": "string",
          "name": "_pincode",
          "type": "string"
        }
      ],
      "name": "addMedicalStore",
      "outputs": [],
      "payable": false,
      "stateMutability": "nonpayable",
      "type": "function"
    },
    {
      "constant": false,
      "inputs": [
        {
          "internalType": "string",
          "name": "_medicineName",
          "type": "string"
        },
        {
          "internalType": "uint256",
          "name": "_rate",
          "type": "uint256"
        },
        {
          "internalType": "uint256",
          "name": "_price",
          "type": "uint256"
        },
        {
          "internalType": "uint256",
          "name": "_quantity",
          "type": "uint256"
        },
        {
          "internalType": "string",
          "name": "_batchNo",
          "type": "string"
        },
        {
          "internalType": "string",
          "name": "_manufactDate",
          "type": "string"
        },
        {
          "internalType": "string",
          "name": "_expiryDate",
          "type": "string"
        }
      ],
      "name": "addMedicine",
      "outputs": [],
      "payable": false,
      "stateMutability": "nonpayable",
      "type": "function"
    },
    {
      "constant": false,
      "inputs": [
        {
          "internalType": "uint256",
          "name": "_quantity",
          "type": "uint256"
        },
        {
          "internalType": "string",
          "name": "_batchNo",
          "type": "string"
        }
      ],
      "name": "purchaseMedicine",
      "outputs": [],
      "payable": false,
      "stateMutability": "nonpayable",
      "type": "function"
    },
    {
      "constant": false,
      "inputs": [
        {
          "internalType": "string",
          "name": "_batchNo",
          "type": "string"
        },
        {
          "internalType": "string",
          "name": "_billHash",
          "type": "string"
        }
      ],
      "name": "addBills",
      "outputs": [],
      "payable": false,
      "stateMutability": "nonpayable",
      "type": "function"
    },
    {
      "constant": true,
      "inputs": [],
      "name": "medicineCount",
      "outputs": [
        {
          "internalType": "uint256",
          "name": "",
          "type": "uint256"
        }
      ],
      "payable": false,
      "stateMutability": "view",
      "type": "function"
    },
    {
      "constant": true,
      "inputs": [],
      "name": "invoicesCount",
      "outputs": [
        {
          "internalType": "uint256",
          "name": "",
          "type": "uint256"
        }
      ],
      "payable": false,
      "stateMutability": "view",
      "type": "function"
    },
    {
      "constant": true,
      "inputs": [],
      "name": "purchasesCount",
      "outputs": [
        {
          "internalType": "uint256",
          "name": "",
          "type": "uint256"
        }
      ],
      "payable": false,
      "stateMutability": "view",
      "type": "function"
    }
  ],
  "bytecode": "0x608060405234801561001057600080fd5b50612443806100206000396000f3fe608060405234801561001057600080fd5b50600436106100b45760003560e01c8063625a8e9111610071578063625a8e91146108645780636c2cd063146108825780639258b18714610947578063c3dbfbfc1461099f578063d6397311146109bd578063f9a537a214610c0a576100b4565b806328adb13a146100b95780633fcec935146101805780634dafd490146104385780634e2d41db1461045657806350904081146106f45780635858d03f14610712575b600080fd5b610105600480360360408110156100cf57600080fd5b81019080803573ffffffffffffffffffffffffffffffffffffffff1690602001909291908035906020019092919050505061104f565b6040518080602001828103825283818151815260200191508051906020019080838360005b8381101561014557808201518184015260208101905061012a565b50505050905090810190601f1680156101725780820380516001836020036101000a031916815260200191505b509250505060405180910390f35b6102596004803603604081101561019657600080fd5b81019080803573ffffffffffffffffffffffffffffffffffffffff169060200190929190803590602001906401000000008111156101d357600080fd5b8201836020820111156101e557600080fd5b8035906020019184600183028401116401000000008311171561020757600080fd5b91908080601f016020809104026020016040519081016040528093929190818152602001838380828437600081840152601f19601f82011690508083019250505050505050919291929050505061110c565b60405180806020018981526020018881526020018781526020018060200180602001806020018615151515815260200185810385528d818151815260200191508051906020019080838360005b838110156102c15780820151818401526020810190506102a6565b50505050905090810190601f1680156102ee5780820380516001836020036101000a031916815260200191505b50858103845289818151815260200191508051906020019080838360005b8381101561032757808201518184015260208101905061030c565b50505050905090810190601f1680156103545780820380516001836020036101000a031916815260200191505b50858103835288818151815260200191508051906020019080838360005b8381101561038d578082015181840152602081019050610372565b50505050905090810190601f1680156103ba5780820380516001836020036101000a031916815260200191505b50858103825287818151815260200191508051906020019080838360005b838110156103f35780820151818401526020810190506103d8565b50505050905090810190601f1680156104205780820380516001836020036101000a031916815260200191505b509c5050505050505050505050505060405180910390f35b6104406113e4565b6040518082815260200191505060405180910390f35b6106f2600480360360e081101561046c57600080fd5b810190808035906020019064010000000081111561048957600080fd5b82018360208201111561049b57600080fd5b803590602001918460018302840111640100000000831117156104bd57600080fd5b91908080601f016020809104026020016040519081016040528093929190818152602001838380828437600081840152601f19601f8201169050808301925050505050505091929192908035906020019092919080359060200190929190803590602001909291908035906020019064010000000081111561053e57600080fd5b82018360208201111561055057600080fd5b8035906020019184600183028401116401000000008311171561057257600080fd5b91908080601f016020809104026020016040519081016040528093929190818152602001838380828437600081840152601f19601f820116905080830192505050505050509192919290803590602001906401000000008111156105d557600080fd5b8201836020820111156105e757600080fd5b8035906020019184600183028401116401000000008311171561060957600080fd5b91908080601f016020809104026020016040519081016040528093929190818152602001838380828437600081840152601f19601f8201169050808301925050505050505091929192908035906020019064010000000081111561066c57600080fd5b82018360208201111561067e57600080fd5b803590602001918460018302840111640100000000831117156106a057600080fd5b91908080601f016020809104026020016040519081016040528093929190818152602001838380828437600081840152601f19601f820116905080830192505050505050509192919290505050611429565b005b6106fc6117b9565b6040518082815260200191505060405180910390f35b6108626004803603604081101561072857600080fd5b810190808035906020019064010000000081111561074557600080fd5b82018360208201111561075757600080fd5b8035906020019184600183028401116401000000008311171561077957600080fd5b91908080601f016020809104026020016040519081016040528093929190818152602001838380828437600081840152601f19601f820116905080830192505050505050509192919290803590602001906401000000008111156107dc57600080fd5b8201836020820111156107ee57600080fd5b8035906020019184600183028401116401000000008311171561081057600080fd5b91908080601f016020809104026020016040519081016040528093929190818152602001838380828437600081840152601f19601f820116905080830192505050505050509192919290505050611803565b005b61086c6118c2565b6040518082815260200191505060405180910390f35b6109456004803603604081101561089857600080fd5b8101908080359060200190929190803590602001906401000000008111156108bf57600080fd5b8201836020820111156108d157600080fd5b803590602001918460018302840111640100000000831117156108f357600080fd5b91908080601f016020809104026020016040519081016040528093929190818152602001838380828437600081840152601f19601f8201169050808301925050505050505091929192905050506118c8565b005b6109896004803603602081101561095d57600080fd5b81019080803573ffffffffffffffffffffffffffffffffffffffff169060200190929190505050611b9d565b6040518082815260200191505060405180910390f35b6109a7611bb5565b6040518082815260200191505060405180910390f35b6109ff600480360360208110156109d357600080fd5b81019080803573ffffffffffffffffffffffffffffffffffffffff169060200190929190505050611bff565b604051808973ffffffffffffffffffffffffffffffffffffffff1673ffffffffffffffffffffffffffffffffffffffff168152602001806020018060200180602001806020018881526020018781526020018615151515815260200185810385528c818151815260200191508051906020019080838360005b83811015610a93578082015181840152602081019050610a78565b50505050905090810190601f168015610ac05780820380516001836020036101000a031916815260200191505b5085810384528b818151815260200191508051906020019080838360005b83811015610af9578082015181840152602081019050610ade565b50505050905090810190601f168015610b265780820380516001836020036101000a031916815260200191505b5085810383528a818151815260200191508051906020019080838360005b83811015610b5f578082015181840152602081019050610b44565b50505050905090810190601f168015610b8c5780820380516001836020036101000a031916815260200191505b50858103825289818151815260200191508051906020019080838360005b83811015610bc5578082015181840152602081019050610baa565b50505050905090810190601f168015610bf25780820380516001836020036101000a031916815260200191505b509c5050505050505050505050505060405180910390f35b61104d600480360360e0811015610c2057600080fd5b8101908080359060200190640100000000811115610c3d57600080fd5b820183602082011115610c4f57600080fd5b80359060200191846001830284011164010000000083111715610c7157600080fd5b91908080601f016020809104026020016040519081016040528093929190818152602001838380828437600081840152601f19601f82011690508083019250505050505050919291929080359060200190640100000000811115610cd457600080fd5b820183602082011115610ce657600080fd5b80359060200191846001830284011164010000000083111715610d0857600080fd5b91908080601f016020809104026020016040519081016040528093929190818152602001838380828437600081840152601f19601f82011690508083019250505050505050919291929080359060200190640100000000811115610d6b57600080fd5b820183602082011115610d7d57600080fd5b80359060200191846001830284011164010000000083111715610d9f57600080fd5b91908080601f016020809104026020016040519081016040528093929190818152602001838380828437600081840152601f19601f82011690508083019250505050505050919291929080359060200190640100000000811115610e0257600080fd5b820183602082011115610e1457600080fd5b80359060200191846001830284011164010000000083111715610e3657600080fd5b91908080601f016020809104026020016040519081016040528093929190818152602001838380828437600081840152601f19601f82011690508083019250505050505050919291929080359060200190640100000000811115610e9957600080fd5b820183602082011115610eab57600080fd5b80359060200191846001830284011164010000000083111715610ecd57600080fd5b91908080601f016020809104026020016040519081016040528093929190818152602001838380828437600081840152601f19601f82011690508083019250505050505050919291929080359060200190640100000000811115610f3057600080fd5b820183602082011115610f4257600080fd5b80359060200191846001830284011164010000000083111715610f6457600080fd5b91908080601f016020809104026020016040519081016040528093929190818152602001838380828437600081840152601f19601f82011690508083019250505050505050919291929080359060200190640100000000811115610fc757600080fd5b820183602082011115610fd957600080fd5b80359060200191846001830284011164010000000083111715610ffb57600080fd5b91908080601f016020809104026020016040519081016040528093929190818152602001838380828437600081840152601f19601f820116905080830192505050505050509192919290505050611ed4565b005b6001602052816000526040600020602052806000526040600020600091509150508054600181600116156101000203166002900480601f0160208091040260200160405190810160405280929190818152602001828054600181600116156101000203166002900480156111045780601f106110d957610100808354040283529160200191611104565b820191906000526020600020905b8154815290600101906020018083116110e757829003601f168201915b505050505081565b60006020528160005260406000208180516020810182018051848252602083016020850120818352809550505050505060009150915050806000018054600181600116156101000203166002900480601f0160208091040260200160405190810160405280929190818152602001828054600181600116156101000203166002900480156111db5780601f106111b0576101008083540402835291602001916111db565b820191906000526020600020905b8154815290600101906020018083116111be57829003601f168201915b505050505090806001015490806002015490806003015490806004018054600181600116156101000203166002900480601f01602080910402602001604051908101604052809291908181526020018280546001816001161561010002031660029004801561128b5780601f106112605761010080835404028352916020019161128b565b820191906000526020600020905b81548152906001019060200180831161126e57829003601f168201915b505050505090806005018054600181600116156101000203166002900480601f0160208091040260200160405190810160405280929190818152602001828054600181600116156101000203166002900480156113295780601f106112fe57610100808354040283529160200191611329565b820191906000526020600020905b81548152906001019060200180831161130c57829003601f168201915b505050505090806006018054600181600116156101000203166002900480601f0160208091040260200160405190810160405280929190818152602001828054600181600116156101000203166002900480156113c75780601f1061139c576101008083540402835291602001916113c7565b820191906000526020600020905b8154815290600101906020018083116113aa57829003601f168201915b5050505050908060070160009054906101000a900460ff16905088565b6000600260003373ffffffffffffffffffffffffffffffffffffffff1673ffffffffffffffffffffffffffffffffffffffff1681526020019081526020016000205090565b60008411611482576040517f08c379a00000000000000000000000000000000000000000000000000000000081526004018080602001828103825260218152602001806123ee6021913960400191505060405180910390fd5b600260003373ffffffffffffffffffffffffffffffffffffffff1673ffffffffffffffffffffffffffffffffffffffff1681526020019081526020016000206000815480929190600101919050555082600160003373ffffffffffffffffffffffffffffffffffffffff1673ffffffffffffffffffffffffffffffffffffffff1681526020019081526020016000206000600260003373ffffffffffffffffffffffffffffffffffffffff1673ffffffffffffffffffffffffffffffffffffffff16815260200190815260200160002054815260200190815260200160002090805190602001906115749291906122a7565b50604051806101000160405280888152602001878152602001868152602001858152602001848152602001838152602001828152602001600115158152506000803373ffffffffffffffffffffffffffffffffffffffff1673ffffffffffffffffffffffffffffffffffffffff168152602001908152602001600020846040518082805190602001908083835b602083106116245780518252602082019150602081019050602083039250611601565b6001836020036101000a03801982511681845116808217855250505050505090500191505090815260200160405180910390206000820151816000019080519060200190611673929190612327565b5060208201518160010155604082015181600201556060820151816003015560808201518160040190805190602001906116ae929190612327565b5060a08201518160050190805190602001906116cb929190612327565b5060c08201518160060190805190602001906116e8929190612327565b5060e08201518160070160006101000a81548160ff021916908315150217905550905050600360003373ffffffffffffffffffffffffffffffffffffffff1673ffffffffffffffffffffffffffffffffffffffff16815260200190815260200160002060050160008154809291906001019190505550600460003373ffffffffffffffffffffffffffffffffffffffff1673ffffffffffffffffffffffffffffffffffffffff1681526020019081526020016000206005016000815480929190600101919050555050505050505050565b6000600460003373ffffffffffffffffffffffffffffffffffffffff1673ffffffffffffffffffffffffffffffffffffffff16815260200190815260200160002060060154905090565b80600560003373ffffffffffffffffffffffffffffffffffffffff1673ffffffffffffffffffffffffffffffffffffffff168152602001908152602001600020836040518082805190602001908083835b602083106118775780518252602082019150602081019050602083039250611854565b6001836020036101000a038019825116818451168082178552505050505050905001915050908152602001604051809103902090805190602001906118bd9291906122a7565b505050565b60065481565b60008060003373ffffffffffffffffffffffffffffffffffffffff1673ffffffffffffffffffffffffffffffffffffffff168152602001908152602001600020826040518082805190602001908083835b6020831061193c5780518252602082019150602081019050602083039250611919565b6001836020036101000a038019825116818451168082178552505050505050905001915050908152602001604051809103902060030154116119e6576040517f08c379a00000000000000000000000000000000000000000000000000000000081526004018080602001828103825260118152602001807f496e756666696369656e742073746f636b00000000000000000000000000000081525060200191505060405180910390fd5b60008211611a3f576040517f08c379a00000000000000000000000000000000000000000000000000000000081526004018080602001828103825260218152602001806123ee6021913960400191505060405180910390fd5b816000803373ffffffffffffffffffffffffffffffffffffffff1673ffffffffffffffffffffffffffffffffffffffff168152602001908152602001600020826040518082805190602001908083835b60208310611ab25780518252602082019150602081019050602083039250611a8f565b6001836020036101000a038019825116818451168082178552505050505050905001915050908152602001604051809103902060030160008282540392505081905550600360003373ffffffffffffffffffffffffffffffffffffffff1673ffffffffffffffffffffffffffffffffffffffff16815260200190815260200160002060060160008154809291906001019190505550600460003373ffffffffffffffffffffffffffffffffffffffff1673ffffffffffffffffffffffffffffffffffffffff168152602001908152602001600020600601600081548092919060010191905055505050565b60026020528060005260406000206000915090505481565b6000600460003373ffffffffffffffffffffffffffffffffffffffff1673ffffffffffffffffffffffffffffffffffffffff16815260200190815260200160002060050154905090565b60036020528060005260406000206000915090508060000160009054906101000a900473ffffffffffffffffffffffffffffffffffffffff1690806001018054600181600116156101000203166002900480601f016020809104026020016040519081016040528092919081815260200182805460018160011615610100020316600290048015611cd15780601f10611ca657610100808354040283529160200191611cd1565b820191906000526020600020905b815481529060010190602001808311611cb457829003601f168201915b505050505090806002018054600181600116156101000203166002900480601f016020809104026020016040519081016040528092919081815260200182805460018160011615610100020316600290048015611d6f5780601f10611d4457610100808354040283529160200191611d6f565b820191906000526020600020905b815481529060010190602001808311611d5257829003601f168201915b505050505090806003018054600181600116156101000203166002900480601f016020809104026020016040519081016040528092919081815260200182805460018160011615610100020316600290048015611e0d5780601f10611de257610100808354040283529160200191611e0d565b820191906000526020600020905b815481529060010190602001808311611df057829003601f168201915b505050505090806004018054600181600116156101000203166002900480601f016020809104026020016040519081016040528092919081815260200182805460018160011615610100020316600290048015611eab5780601f10611e8057610100808354040283529160200191611eab565b820191906000526020600020905b815481529060010190602001808311611e8e57829003601f168201915b5050505050908060050154908060060154908060070160009054906101000a900460ff16905088565b60001515600360003373ffffffffffffffffffffffffffffffffffffffff1673ffffffffffffffffffffffffffffffffffffffff16815260200190815260200160002060070160009054906101000a900460ff16151514611f80576040517f08c379a00000000000000000000000000000000000000000000000000000000081526004018080602001828103825260218152602001806123cd6021913960400191505060405180910390fd5b6006600081548092919060010191905055506040518061010001604052803373ffffffffffffffffffffffffffffffffffffffff168152602001888152602001878152602001868152602001838152602001600081526020016000815260200160011515815250600360003373ffffffffffffffffffffffffffffffffffffffff1673ffffffffffffffffffffffffffffffffffffffff16815260200190815260200160002060008201518160000160006101000a81548173ffffffffffffffffffffffffffffffffffffffff021916908373ffffffffffffffffffffffffffffffffffffffff1602179055506020820151816001019080519060200190612089929190612327565b5060408201518160020190805190602001906120a6929190612327565b5060608201518160030190805190602001906120c3929190612327565b5060808201518160040190805190602001906120e0929190612327565b5060a0820151816005015560c0820151816006015560e08201518160070160006101000a81548160ff0219169083151502179055509050506040518061010001604052803373ffffffffffffffffffffffffffffffffffffffff168152602001888152602001878152602001868152602001838152602001600081526020016000815260200160011515815250600460003373ffffffffffffffffffffffffffffffffffffffff1673ffffffffffffffffffffffffffffffffffffffff16815260200190815260200160002060008201518160000160006101000a81548173ffffffffffffffffffffffffffffffffffffffff021916908373ffffffffffffffffffffffffffffffffffffffff160217905550602082015181600101908051906020019061220f929190612327565b50604082015181600201908051906020019061222c929190612327565b506060820151816003019080519060200190612249929190612327565b506080820151816004019080519060200190612266929190612327565b5060a0820151816005015560c0820151816006015560e08201518160070160006101000a81548160ff02191690831515021790555090505050505050505050565b828054600181600116156101000203166002900490600052602060002090601f016020900481019282601f106122e857805160ff1916838001178555612316565b82800160010185558215612316579182015b828111156123155782518255916020019190600101906122fa565b5b50905061232391906123a7565b5090565b828054600181600116156101000203166002900490600052602060002090601f016020900481019282601f1061236857805160ff1916838001178555612396565b82800160010185558215612396579182015b8281111561239557825182559160200191906001019061237a565b5b5090506123a391906123a7565b5090565b6123c991905b808211156123c55760008160009055506001016123ad565b5090565b9056fe4d65646963616c2073746f7265206e616d6520616c7265616479206578697374735175616e746974792073686f756c642062652067726561746572207468616e2030a265627a7a72315820b7c0aebfa52f3c3ef311a42740e34ea5ba6a2fe2e42711af50e69e695209b25a64736f6c63430005100032",
  "source": "// SPDX-License-Identifier: MIT\r\npragma solidity >=0.4.22 <=0.8.9;\r\n\r\ncontract MedImpact {\r\n    \r\n    // model MedicalStore\r\n    struct MedicalStore {\r\n        //uint256 latitude;\r\n        //uint256 longitude;\r\n        address owner;\r\n        string ownerName;\r\n        string storeName;\r\n        //string email;\r\n        string phoneno;\r\n        //string landmark;\r\n        //string city;\r\n        string ownerAddress;\r\n        //string pincode;\r\n        uint256 invoices;\r\n        uint256 purchases;\r\n        //string aadhaarCardHash;\r\n        bool exists;\r\n    }\r\n    \r\n    // model Medicine\r\n    struct Medicine {\r\n        string name;\r\n        uint256 rate;\r\n        uint256 price;\r\n        uint256 quantity;\r\n        string batchNo;\r\n        string manufactDate;\r\n        string expiryDate;\r\n        //string billHash;\r\n        bool exists;\r\n    }\r\n    \r\n    // map to store medicines\r\n    // medicalStoreId => medicineName => expiryDate => Medicine\r\n    //mapping(string => mapping(string => mapping(string => Medicine))) public medicines;\r\n\r\n    // map to store medicines\r\n    // owneraddress => batchId => Medicine\r\n    mapping(address => mapping(string => Medicine)) public medicines;\r\n\r\n    // map owneraddress => medicine count => batchNo\r\n    mapping(address => mapping(uint256 => string)) public batchIdOfMedicine;\r\n    \r\n    // map owneraddress => medicine count\r\n    mapping(address => uint256) public medicineCountInMedicalStore;\r\n    \r\n    // map to store medical stores\r\n    // owneraddress => MedicalStore\r\n    mapping(address => MedicalStore) public medicalStores;\r\n    \r\n    // map to store medical stores of a particular user\r\n    // owneraddress => MedicalStore\r\n    mapping(address => MedicalStore) myMedicalStores;\r\n\r\n    // map owneraddress => batchNo => bills\r\n    mapping(address => mapping(string => string)) myBills;\r\n\r\n    // store the number of medical stores\r\n    uint256 public medicalStoresCount;\r\n\r\n    constructor() public {\r\n        //addMedicalStore(\"Real Medicos\", \"realmedicos@gmail.com\", \"9976565437\", \"xyzhash\");\r\n    }\r\n\r\n    // function to add new medical store\r\n    function addMedicalStore(/*uint256 _latitude, uint256 _longitude,*/ string memory _ownerName, string memory _medicalStoreName,/* string memory _email,*/ string memory _phoneno, string memory _landmark, string memory _city, string memory _ownerAddress, string memory _pincode/*, string memory _aadhaarCardHash*/) public {\r\n        require(medicalStores[/*_medicalStoreId*/msg.sender].exists == false, \"Medical store name already exists\");\r\n        \r\n        medicalStoresCount++;\r\n        medicalStores[/*_medicalStoreId*/msg.sender] = MedicalStore(/*_latitude, _longitude,*/ msg.sender, _ownerName, _medicalStoreName,/* _email,*/ _phoneno,/* _landmark, _city,*/ _ownerAddress,/* _pincode,*/ 0, 0,/* _aadhaarCardHash,*/ true);\r\n        myMedicalStores[msg.sender] = MedicalStore(/*_latitude, _longitude,*/ msg.sender, _ownerName, _medicalStoreName,/* _email,*/ _phoneno,/* _landmark, _city,*/ _ownerAddress,/* _pincode,*/ 0, 0,/* _aadhaarCardHash,*/ true);\r\n    }\r\n\r\n    // function to add new stock of a specific medicine having a particular expiry date to a particular medical store\r\n    function addMedicine(/*string memory _medicalStoreId,*/ string memory _medicineName, uint256 _rate, uint256 _price, uint256 _quantity, string memory _batchNo, string memory _manufactDate, string memory _expiryDate/*, string memory _billHash*/) public {\r\n        //require(medicalStores[/*_medicalStoreId*/msg.sender].owner == msg.sender, \"You are not the owner of medical store\");\r\n        require(_quantity > 0, \"Quantity should be greater than 0\");\r\n        \r\n        /*if(medicines[_medicalStoreId][_medicineName][_expiryDate].exists){\r\n            medicines[_medicalStoreId][_medicineName][_expiryDate].quantity += _quantity;\r\n        }\r\n        else{\r\n            medicines[_medicalStoreId][_medicineName][_expiryDate] = Medicine( _medicineName, _price, _quantity, _expiryDate, _billHash, true);   \r\n        }*/\r\n        medicineCountInMedicalStore[/*_medicalStoreId*/msg.sender]++;\r\n        batchIdOfMedicine[/*_medicalStoreId*/msg.sender][ medicineCountInMedicalStore[/*_medicalStoreId*/msg.sender]] = _batchNo;\r\n        medicines[/*_medicalStoreId*/msg.sender][_batchNo] = Medicine(_medicineName, _rate, _price, _quantity, _batchNo, _manufactDate, _expiryDate,/* _billHash,*/ true);\r\n\r\n        medicalStores[/*_medicalStoreId*/msg.sender].invoices++;\r\n        myMedicalStores[msg.sender].invoices++;\r\n    }\r\n    \r\n    // function to purchase a specific medicine of a particular expiry date from a particular medical store\r\n    function purchaseMedicine(/*string memory _medicalStoreId, string memory _medicineName,*/ uint256 _quantity, string memory _batchNo/*, string memory _expiryDate*/) public {\r\n        //require(medicalStores[/*_medicalStoreId*/msg.sender].owner == msg.sender, \"You are not the owner of medical store\");\r\n        require(medicines[/*_medicalStoreId*/msg.sender][_batchNo].quantity > 0, \"Inufficient stock\");\r\n        require(_quantity > 0, \"Quantity should be greater than 0\");\r\n        \r\n        medicines[/*_medicalStoreId*/msg.sender][_batchNo].quantity -= _quantity;\r\n        medicalStores[/*_medicalStoreId*/msg.sender].purchases++;\r\n        myMedicalStores[msg.sender].purchases++;\r\n    }\r\n\r\n    function addBills(string memory _batchNo, string memory _billHash) public {\r\n        myBills[msg.sender][_batchNo] = _billHash;\r\n    }\r\n    \r\n    // function to return the count of a specific medicine of a particular expiry date present in a particular medical store \r\n    function medicineCount(/*string memory _medicineName, string memory _medicalStoreId, string memory _batchNo, string memory _expiryDate*/) view public returns(uint256){\r\n        //require(medicalStores[_medicalStoreId].exists, \"Medical store does not exist\");\r\n        //return medicines[_medicalStoreId][_batchNo].quantity;\r\n        medicineCountInMedicalStore[msg.sender];\r\n    }\r\n    \r\n    // function to return the number of invoices for a particular medical store\r\n    function invoicesCount(/*string memory _medicalStoreId*/) view public returns(uint256){\r\n        /*require(medicalStores[_medicalStoreId].exists, \"Medical store does not exist\");\r\n        return medicalStores[_medicalStoreId].invoices;*/\r\n        return myMedicalStores[msg.sender].invoices;\r\n    }\r\n    \r\n    // function to return the number of purchases for a particular medical store\r\n    function purchasesCount(/*string memory _medicalStoreId*/) view public returns(uint256){\r\n        /*require(medicalStores[_medicalStoreId].exists, \"Medical store does not exist\");\r\n        return medicalStores[_medicalStoreId].purchases;\r\n        */\r\n        return myMedicalStores[msg.sender].purchases;\r\n    }\r\n\r\n    // function to return all the medicines in a particular store\r\n    /*function getMedicines(string memory _medicalStoreId) view public returns(uint256) {\r\n        require(medicalStores[_medicalStoreId].exists, \"Medical store does not exist\");\r\n\r\n    }*/\r\n    \r\n}\r\n",
  "sourcePath": "C:\\Users\\Akshat\\Desktop\\MedImpact\\contracts\\MedImpact.sol",
  "compiler": {
    "name": "solc",
    "version": "0.5.16+commit.9c3226ce.Emscripten.clang"
  },
  "schemaVersion": "3.4.3",
  "updatedAt": "2021-12-12T09:41:33.994Z",
  "devdoc": {
    "methods": {}
  },
  "userdoc": {
    "methods": {}
  }
}